{
	"did.sol": {
		"DecentralizedIdentity": {
			"abi": [
				{
					"inputs": [],
					"stateMutability": "nonpayable",
					"type": "constructor"
				},
				{
					"anonymous": false,
					"inputs": [
						{
							"indexed": true,
							"internalType": "address",
							"name": "user",
							"type": "address"
						},
						{
							"indexed": false,
							"internalType": "string",
							"name": "name",
							"type": "string"
						},
						{
							"indexed": false,
							"internalType": "string",
							"name": "email",
							"type": "string"
						}
					],
					"name": "IdentityRegistered",
					"type": "event"
				},
				{
					"anonymous": false,
					"inputs": [
						{
							"indexed": true,
							"internalType": "address",
							"name": "user",
							"type": "address"
						},
						{
							"indexed": true,
							"internalType": "address",
							"name": "revoker",
							"type": "address"
						}
					],
					"name": "IdentityRevoked",
					"type": "event"
				},
				{
					"anonymous": false,
					"inputs": [
						{
							"indexed": true,
							"internalType": "address",
							"name": "user",
							"type": "address"
						},
						{
							"indexed": true,
							"internalType": "address",
							"name": "verifier",
							"type": "address"
						}
					],
					"name": "IdentityVerified",
					"type": "event"
				},
				{
					"anonymous": false,
					"inputs": [
						{
							"indexed": true,
							"internalType": "address",
							"name": "verifier",
							"type": "address"
						}
					],
					"name": "VerifierAdded",
					"type": "event"
				},
				{
					"anonymous": false,
					"inputs": [
						{
							"indexed": true,
							"internalType": "address",
							"name": "verifier",
							"type": "address"
						}
					],
					"name": "VerifierRemoved",
					"type": "event"
				},
				{
					"inputs": [
						{
							"internalType": "address",
							"name": "_verifier",
							"type": "address"
						}
					],
					"name": "addVerifier",
					"outputs": [],
					"stateMutability": "nonpayable",
					"type": "function"
				},
				{
					"inputs": [
						{
							"internalType": "address",
							"name": "_user",
							"type": "address"
						}
					],
					"name": "getIdentity",
					"outputs": [
						{
							"internalType": "string",
							"name": "name",
							"type": "string"
						},
						{
							"internalType": "string",
							"name": "email",
							"type": "string"
						},
						{
							"internalType": "bool",
							"name": "isVerified",
							"type": "bool"
						},
						{
							"internalType": "bool",
							"name": "isRevoked",
							"type": "bool"
						},
						{
							"internalType": "address",
							"name": "_owner",
							"type": "address"
						}
					],
					"stateMutability": "view",
					"type": "function"
				},
				{
					"inputs": [
						{
							"internalType": "address",
							"name": "",
							"type": "address"
						}
					],
					"name": "identities",
					"outputs": [
						{
							"internalType": "string",
							"name": "name",
							"type": "string"
						},
						{
							"internalType": "string",
							"name": "email",
							"type": "string"
						},
						{
							"internalType": "string",
							"name": "verificationDocument",
							"type": "string"
						},
						{
							"internalType": "bool",
							"name": "isVerified",
							"type": "bool"
						},
						{
							"internalType": "bool",
							"name": "isRevoked",
							"type": "bool"
						},
						{
							"internalType": "address",
							"name": "owner",
							"type": "address"
						}
					],
					"stateMutability": "view",
					"type": "function"
				},
				{
					"inputs": [],
					"name": "owner",
					"outputs": [
						{
							"internalType": "address",
							"name": "",
							"type": "address"
						}
					],
					"stateMutability": "view",
					"type": "function"
				},
				{
					"inputs": [
						{
							"internalType": "string",
							"name": "_name",
							"type": "string"
						},
						{
							"internalType": "string",
							"name": "_email",
							"type": "string"
						},
						{
							"internalType": "string",
							"name": "_verificationDocument",
							"type": "string"
						}
					],
					"name": "registerIdentity",
					"outputs": [],
					"stateMutability": "nonpayable",
					"type": "function"
				},
				{
					"inputs": [
						{
							"internalType": "address",
							"name": "_verifier",
							"type": "address"
						}
					],
					"name": "removeVerifier",
					"outputs": [],
					"stateMutability": "nonpayable",
					"type": "function"
				},
				{
					"inputs": [
						{
							"internalType": "address",
							"name": "_user",
							"type": "address"
						}
					],
					"name": "revokeIdentity",
					"outputs": [],
					"stateMutability": "nonpayable",
					"type": "function"
				},
				{
					"inputs": [
						{
							"internalType": "address",
							"name": "",
							"type": "address"
						}
					],
					"name": "verifiers",
					"outputs": [
						{
							"internalType": "bool",
							"name": "",
							"type": "bool"
						}
					],
					"stateMutability": "view",
					"type": "function"
				},
				{
					"inputs": [
						{
							"internalType": "address",
							"name": "_user",
							"type": "address"
						}
					],
					"name": "verifyIdentity",
					"outputs": [],
					"stateMutability": "nonpayable",
					"type": "function"
				}
			],
			"devdoc": {
				"kind": "dev",
				"methods": {
					"revokeIdentity(address)": {
						"details": "Revoke an identity",
						"params": {
							"_user": "The address of the user whose identity to revoke"
						}
					}
				},
				"version": 1
			},
			"evm": {
				"assembly": "    /* \"did.sol\":58:3471  contract DecentralizedIdentity {... */\n  mstore(0x40, 0x80)\n    /* \"did.sol\":958:1007  constructor() {... */\n  callvalue\n  dup1\n  iszero\n  tag_1\n  jumpi\n  0x00\n  dup1\n  revert\ntag_1:\n  pop\n    /* \"did.sol\":990:1000  msg.sender */\n  caller\n    /* \"did.sol\":982:987  owner */\n  0x02\n  0x00\n    /* \"did.sol\":982:1000  owner = msg.sender */\n  0x0100\n  exp\n  dup2\n  sload\n  dup2\n  0xffffffffffffffffffffffffffffffffffffffff\n  mul\n  not\n  and\n  swap1\n  dup4\n  0xffffffffffffffffffffffffffffffffffffffff\n  and\n  mul\n  or\n  swap1\n  sstore\n  pop\n    /* \"did.sol\":58:3471  contract DecentralizedIdentity {... */\n  dataSize(sub_0)\n  dup1\n  dataOffset(sub_0)\n  0x00\n  codecopy\n  0x00\n  return\nstop\n\nsub_0: assembly {\n        /* \"did.sol\":58:3471  contract DecentralizedIdentity {... */\n      mstore(0x40, 0x80)\n      callvalue\n      dup1\n      iszero\n      tag_1\n      jumpi\n      0x00\n      dup1\n      revert\n    tag_1:\n      pop\n      jumpi(tag_2, lt(calldatasize, 0x04))\n      shr(0xe0, calldataload(0x00))\n      dup1\n      0x9000b3d6\n      gt\n      tag_12\n      jumpi\n      dup1\n      0x9000b3d6\n      eq\n      tag_7\n      jumpi\n      dup1\n      0xb5b90fd9\n      eq\n      tag_8\n      jumpi\n      dup1\n      0xbdc95b32\n      eq\n      tag_9\n      jumpi\n      dup1\n      0xca2dfd0a\n      eq\n      tag_10\n      jumpi\n      dup1\n      0xf653b81e\n      eq\n      tag_11\n      jumpi\n      jump(tag_2)\n    tag_12:\n      dup1\n      0x0ebddd17\n      eq\n      tag_3\n      jumpi\n      dup1\n      0x2fea7b81\n      eq\n      tag_4\n      jumpi\n      dup1\n      0x6c824487\n      eq\n      tag_5\n      jumpi\n      dup1\n      0x8da5cb5b\n      eq\n      tag_6\n      jumpi\n    tag_2:\n      0x00\n      dup1\n      revert\n        /* \"did.sol\":2603:2851  function revokeIdentity(address _user) public onlyVerifier {... */\n    tag_3:\n      tag_13\n      0x04\n      dup1\n      calldatasize\n      sub\n      dup2\n      add\n      swap1\n      tag_14\n      swap2\n      swap1\n      tag_15\n      jump\t// in\n    tag_14:\n      tag_16\n      jump\t// in\n    tag_13:\n      stop\n        /* \"did.sol\":2857:3171  function getIdentity(address _user) public view returns (string memory name, string memory email, bool isVerified, bool isRevoked, address _owner) {... */\n    tag_4:\n      tag_17\n      0x04\n      dup1\n      calldatasize\n      sub\n      dup2\n      add\n      swap1\n      tag_18\n      swap2\n      swap1\n      tag_15\n      jump\t// in\n    tag_18:\n      tag_19\n      jump\t// in\n    tag_17:\n      mload(0x40)\n      tag_20\n      swap6\n      swap5\n      swap4\n      swap3\n      swap2\n      swap1\n      tag_21\n      jump\t// in\n    tag_20:\n      mload(0x40)\n      dup1\n      swap2\n      sub\n      swap1\n      return\n        /* \"did.sol\":434:475  mapping(address => bool) public verifiers */\n    tag_5:\n      tag_22\n      0x04\n      dup1\n      calldatasize\n      sub\n      dup2\n      add\n      swap1\n      tag_23\n      swap2\n      swap1\n      tag_15\n      jump\t// in\n    tag_23:\n      tag_24\n      jump\t// in\n    tag_22:\n      mload(0x40)\n      tag_25\n      swap2\n      swap1\n      tag_26\n      jump\t// in\n    tag_25:\n      mload(0x40)\n      dup1\n      swap2\n      sub\n      swap1\n      return\n        /* \"did.sol\":519:539  address public owner */\n    tag_6:\n      tag_27\n      tag_28\n      jump\t// in\n    tag_27:\n      mload(0x40)\n      tag_29\n      swap2\n      swap1\n      tag_30\n      jump\t// in\n    tag_29:\n      mload(0x40)\n      dup1\n      swap2\n      sub\n      swap1\n      return\n        /* \"did.sol\":3177:3317  function addVerifier(address _verifier) public onlyOwner {... */\n    tag_7:\n      tag_31\n      0x04\n      dup1\n      calldatasize\n      sub\n      dup2\n      add\n      swap1\n      tag_32\n      swap2\n      swap1\n      tag_15\n      jump\t// in\n    tag_32:\n      tag_33\n      jump\t// in\n    tag_31:\n      stop\n        /* \"did.sol\":2244:2481  function verifyIdentity(address _user) public onlyVerifier {... */\n    tag_8:\n      tag_34\n      0x04\n      dup1\n      calldatasize\n      sub\n      dup2\n      add\n      swap1\n      tag_35\n      swap2\n      swap1\n      tag_15\n      jump\t// in\n    tag_35:\n      tag_36\n      jump\t// in\n    tag_34:\n      stop\n        /* \"did.sol\":1650:2237  function registerIdentity(string memory _name, string memory _email, string memory _verificationDocument) public {... */\n    tag_9:\n      tag_37\n      0x04\n      dup1\n      calldatasize\n      sub\n      dup2\n      add\n      swap1\n      tag_38\n      swap2\n      swap1\n      tag_39\n      jump\t// in\n    tag_38:\n      tag_40\n      jump\t// in\n    tag_37:\n      stop\n        /* \"did.sol\":3323:3469  function removeVerifier(address _verifier) public onlyOwner {... */\n    tag_10:\n      tag_41\n      0x04\n      dup1\n      calldatasize\n      sub\n      dup2\n      add\n      swap1\n      tag_42\n      swap2\n      swap1\n      tag_15\n      jump\t// in\n    tag_42:\n      tag_43\n      jump\t// in\n    tag_41:\n      stop\n        /* \"did.sol\":317:363  mapping(address => Identity) public identities */\n    tag_11:\n      tag_44\n      0x04\n      dup1\n      calldatasize\n      sub\n      dup2\n      add\n      swap1\n      tag_45\n      swap2\n      swap1\n      tag_15\n      jump\t// in\n    tag_45:\n      tag_46\n      jump\t// in\n    tag_44:\n      mload(0x40)\n      tag_47\n      swap7\n      swap6\n      swap5\n      swap4\n      swap3\n      swap2\n      swap1\n      tag_48\n      jump\t// in\n    tag_47:\n      mload(0x40)\n      dup1\n      swap2\n      sub\n      swap1\n      return\n        /* \"did.sol\":2603:2851  function revokeIdentity(address _user) public onlyVerifier {... */\n    tag_16:\n        /* \"did.sol\":1355:1364  verifiers */\n      0x01\n        /* \"did.sol\":1355:1376  verifiers[msg.sender] */\n      0x00\n        /* \"did.sol\":1365:1375  msg.sender */\n      caller\n        /* \"did.sol\":1355:1376  verifiers[msg.sender] */\n      0xffffffffffffffffffffffffffffffffffffffff\n      and\n      0xffffffffffffffffffffffffffffffffffffffff\n      and\n      dup2\n      mstore\n      0x20\n      add\n      swap1\n      dup2\n      mstore\n      0x20\n      add\n      0x00\n      keccak256\n      0x00\n      swap1\n      sload\n      swap1\n      0x0100\n      exp\n      swap1\n      div\n      0xff\n      and\n        /* \"did.sol\":1347:1430  require(verifiers[msg.sender], \"Only authorized verifiers can perform this action\") */\n      tag_50\n      jumpi\n      mload(0x40)\n      0x08c379a000000000000000000000000000000000000000000000000000000000\n      dup2\n      mstore\n      0x04\n      add\n      tag_51\n      swap1\n      tag_52\n      jump\t// in\n    tag_51:\n      mload(0x40)\n      dup1\n      swap2\n      sub\n      swap1\n      revert\n    tag_50:\n        /* \"did.sol\":2702:2706  true */\n      0x01\n        /* \"did.sol\":2672:2682  identities */\n      0x00\n        /* \"did.sol\":2672:2689  identities[_user] */\n      dup1\n        /* \"did.sol\":2683:2688  _user */\n      dup4\n        /* \"did.sol\":2672:2689  identities[_user] */\n      0xffffffffffffffffffffffffffffffffffffffff\n      and\n      0xffffffffffffffffffffffffffffffffffffffff\n      and\n      dup2\n      mstore\n      0x20\n      add\n      swap1\n      dup2\n      mstore\n      0x20\n      add\n      0x00\n      keccak256\n        /* \"did.sol\":2672:2699  identities[_user].isRevoked */\n      0x03\n      add\n      0x01\n        /* \"did.sol\":2672:2706  identities[_user].isRevoked = true */\n      0x0100\n      exp\n      dup2\n      sload\n      dup2\n      0xff\n      mul\n      not\n      and\n      swap1\n      dup4\n      iszero\n      iszero\n      mul\n      or\n      swap1\n      sstore\n      pop\n        /* \"did.sol\":2747:2752  false */\n      0x00\n        /* \"did.sol\":2716:2726  identities */\n      dup1\n        /* \"did.sol\":2716:2733  identities[_user] */\n      0x00\n        /* \"did.sol\":2727:2732  _user */\n      dup4\n        /* \"did.sol\":2716:2733  identities[_user] */\n      0xffffffffffffffffffffffffffffffffffffffff\n      and\n      0xffffffffffffffffffffffffffffffffffffffff\n      and\n      dup2\n      mstore\n      0x20\n      add\n      swap1\n      dup2\n      mstore\n      0x20\n      add\n      0x00\n      keccak256\n        /* \"did.sol\":2716:2744  identities[_user].isVerified */\n      0x03\n      add\n      0x00\n        /* \"did.sol\":2716:2752  identities[_user].isVerified = false */\n      0x0100\n      exp\n      dup2\n      sload\n      dup2\n      0xff\n      mul\n      not\n      and\n      swap1\n      dup4\n      iszero\n      iszero\n      mul\n      or\n      swap1\n      sstore\n      pop\n        /* \"did.sol\":2833:2843  msg.sender */\n      caller\n        /* \"did.sol\":2810:2844  IdentityRevoked(_user, msg.sender) */\n      0xffffffffffffffffffffffffffffffffffffffff\n      and\n        /* \"did.sol\":2826:2831  _user */\n      dup2\n        /* \"did.sol\":2810:2844  IdentityRevoked(_user, msg.sender) */\n      0xffffffffffffffffffffffffffffffffffffffff\n      and\n      0xd7533bea9fdce549b772c9bf708932fcf1560edaa0c94df3f90e65e75eb75657\n      mload(0x40)\n      mload(0x40)\n      dup1\n      swap2\n      sub\n      swap1\n      log3\n        /* \"did.sol\":2603:2851  function revokeIdentity(address _user) public onlyVerifier {... */\n      pop\n      jump\t// out\n        /* \"did.sol\":2857:3171  function getIdentity(address _user) public view returns (string memory name, string memory email, bool isVerified, bool isRevoked, address _owner) {... */\n    tag_19:\n        /* \"did.sol\":2914:2932  string memory name */\n      0x60\n        /* \"did.sol\":2934:2953  string memory email */\n      dup1\n        /* \"did.sol\":2955:2970  bool isVerified */\n      0x00\n        /* \"did.sol\":2972:2986  bool isRevoked */\n      dup1\n        /* \"did.sol\":2988:3002  address _owner */\n      0x00\n        /* \"did.sol\":3014:3039  Identity storage identity */\n      dup1\n        /* \"did.sol\":3042:3052  identities */\n      0x00\n        /* \"did.sol\":3042:3059  identities[_user] */\n      dup1\n        /* \"did.sol\":3053:3058  _user */\n      dup9\n        /* \"did.sol\":3042:3059  identities[_user] */\n      0xffffffffffffffffffffffffffffffffffffffff\n      and\n      0xffffffffffffffffffffffffffffffffffffffff\n      and\n      dup2\n      mstore\n      0x20\n      add\n      swap1\n      dup2\n      mstore\n      0x20\n      add\n      0x00\n      keccak256\n        /* \"did.sol\":3014:3059  Identity storage identity = identities[_user] */\n      swap1\n      pop\n        /* \"did.sol\":3077:3085  identity */\n      dup1\n        /* \"did.sol\":3077:3090  identity.name */\n      0x00\n      add\n        /* \"did.sol\":3092:3100  identity */\n      dup2\n        /* \"did.sol\":3092:3106  identity.email */\n      0x01\n      add\n        /* \"did.sol\":3108:3116  identity */\n      dup3\n        /* \"did.sol\":3108:3127  identity.isVerified */\n      0x03\n      add\n      0x00\n      swap1\n      sload\n      swap1\n      0x0100\n      exp\n      swap1\n      div\n      0xff\n      and\n        /* \"did.sol\":3129:3137  identity */\n      dup4\n        /* \"did.sol\":3129:3147  identity.isRevoked */\n      0x03\n      add\n      0x01\n      swap1\n      sload\n      swap1\n      0x0100\n      exp\n      swap1\n      div\n      0xff\n      and\n        /* \"did.sol\":3149:3157  identity */\n      dup5\n        /* \"did.sol\":3149:3163  identity.owner */\n      0x03\n      add\n      0x02\n      swap1\n      sload\n      swap1\n      0x0100\n      exp\n      swap1\n      div\n      0xffffffffffffffffffffffffffffffffffffffff\n      and\n        /* \"did.sol\":3069:3164  return (identity.name, identity.email, identity.isVerified, identity.isRevoked, identity.owner) */\n      dup5\n      dup1\n      sload\n      tag_55\n      swap1\n      tag_56\n      jump\t// in\n    tag_55:\n      dup1\n      0x1f\n      add\n      0x20\n      dup1\n      swap2\n      div\n      mul\n      0x20\n      add\n      mload(0x40)\n      swap1\n      dup2\n      add\n      0x40\n      mstore\n      dup1\n      swap3\n      swap2\n      swap1\n      dup2\n      dup2\n      mstore\n      0x20\n      add\n      dup3\n      dup1\n      sload\n      tag_57\n      swap1\n      tag_56\n      jump\t// in\n    tag_57:\n      dup1\n      iszero\n      tag_58\n      jumpi\n      dup1\n      0x1f\n      lt\n      tag_59\n      jumpi\n      0x0100\n      dup1\n      dup4\n      sload\n      div\n      mul\n      dup4\n      mstore\n      swap2\n      0x20\n      add\n      swap2\n      jump(tag_58)\n    tag_59:\n      dup3\n      add\n      swap2\n      swap1\n      0x00\n      mstore\n      keccak256(0x00, 0x20)\n      swap1\n    tag_60:\n      dup2\n      sload\n      dup2\n      mstore\n      swap1\n      0x01\n      add\n      swap1\n      0x20\n      add\n      dup1\n      dup4\n      gt\n      tag_60\n      jumpi\n      dup3\n      swap1\n      sub\n      0x1f\n      and\n      dup3\n      add\n      swap2\n    tag_58:\n      pop\n      pop\n      pop\n      pop\n      pop\n      swap5\n      pop\n      dup4\n      dup1\n      sload\n      tag_61\n      swap1\n      tag_56\n      jump\t// in\n    tag_61:\n      dup1\n      0x1f\n      add\n      0x20\n      dup1\n      swap2\n      div\n      mul\n      0x20\n      add\n      mload(0x40)\n      swap1\n      dup2\n      add\n      0x40\n      mstore\n      dup1\n      swap3\n      swap2\n      swap1\n      dup2\n      dup2\n      mstore\n      0x20\n      add\n      dup3\n      dup1\n      sload\n      tag_62\n      swap1\n      tag_56\n      jump\t// in\n    tag_62:\n      dup1\n      iszero\n      tag_63\n      jumpi\n      dup1\n      0x1f\n      lt\n      tag_64\n      jumpi\n      0x0100\n      dup1\n      dup4\n      sload\n      div\n      mul\n      dup4\n      mstore\n      swap2\n      0x20\n      add\n      swap2\n      jump(tag_63)\n    tag_64:\n      dup3\n      add\n      swap2\n      swap1\n      0x00\n      mstore\n      keccak256(0x00, 0x20)\n      swap1\n    tag_65:\n      dup2\n      sload\n      dup2\n      mstore\n      swap1\n      0x01\n      add\n      swap1\n      0x20\n      add\n      dup1\n      dup4\n      gt\n      tag_65\n      jumpi\n      dup3\n      swap1\n      sub\n      0x1f\n      and\n      dup3\n      add\n      swap2\n    tag_63:\n      pop\n      pop\n      pop\n      pop\n      pop\n      swap4\n      pop\n      swap6\n      pop\n      swap6\n      pop\n      swap6\n      pop\n      swap6\n      pop\n      swap6\n      pop\n      pop\n        /* \"did.sol\":2857:3171  function getIdentity(address _user) public view returns (string memory name, string memory email, bool isVerified, bool isRevoked, address _owner) {... */\n      swap2\n      swap4\n      swap6\n      swap1\n      swap3\n      swap5\n      pop\n      jump\t// out\n        /* \"did.sol\":434:475  mapping(address => bool) public verifiers */\n    tag_24:\n      mstore(0x20, 0x01)\n      dup1\n      0x00\n      mstore\n      keccak256(0x00, 0x40)\n      0x00\n      swap2\n      pop\n      sload\n      swap1\n      0x0100\n      exp\n      swap1\n      div\n      0xff\n      and\n      dup2\n      jump\t// out\n        /* \"did.sol\":519:539  address public owner */\n    tag_28:\n      0x02\n      0x00\n      swap1\n      sload\n      swap1\n      0x0100\n      exp\n      swap1\n      div\n      0xffffffffffffffffffffffffffffffffffffffff\n      and\n      dup2\n      jump\t// out\n        /* \"did.sol\":3177:3317  function addVerifier(address _verifier) public onlyOwner {... */\n    tag_33:\n        /* \"did.sol\":1568:1573  owner */\n      0x02\n      0x00\n      swap1\n      sload\n      swap1\n      0x0100\n      exp\n      swap1\n      div\n      0xffffffffffffffffffffffffffffffffffffffff\n      and\n        /* \"did.sol\":1554:1573  msg.sender == owner */\n      0xffffffffffffffffffffffffffffffffffffffff\n      and\n        /* \"did.sol\":1554:1564  msg.sender */\n      caller\n        /* \"did.sol\":1554:1573  msg.sender == owner */\n      0xffffffffffffffffffffffffffffffffffffffff\n      and\n      eq\n        /* \"did.sol\":1546:1625  require(msg.sender == owner, \"Only the contract owner can perform this action\") */\n      tag_67\n      jumpi\n      mload(0x40)\n      0x08c379a000000000000000000000000000000000000000000000000000000000\n      dup2\n      mstore\n      0x04\n      add\n      tag_68\n      swap1\n      tag_69\n      jump\t// in\n    tag_68:\n      mload(0x40)\n      dup1\n      swap2\n      sub\n      swap1\n      revert\n    tag_67:\n        /* \"did.sol\":3267:3271  true */\n      0x01\n        /* \"did.sol\":3244:3253  verifiers */\n      dup1\n        /* \"did.sol\":3244:3264  verifiers[_verifier] */\n      0x00\n        /* \"did.sol\":3254:3263  _verifier */\n      dup4\n        /* \"did.sol\":3244:3264  verifiers[_verifier] */\n      0xffffffffffffffffffffffffffffffffffffffff\n      and\n      0xffffffffffffffffffffffffffffffffffffffff\n      and\n      dup2\n      mstore\n      0x20\n      add\n      swap1\n      dup2\n      mstore\n      0x20\n      add\n      0x00\n      keccak256\n      0x00\n        /* \"did.sol\":3244:3271  verifiers[_verifier] = true */\n      0x0100\n      exp\n      dup2\n      sload\n      dup2\n      0xff\n      mul\n      not\n      and\n      swap1\n      dup4\n      iszero\n      iszero\n      mul\n      or\n      swap1\n      sstore\n      pop\n        /* \"did.sol\":3300:3309  _verifier */\n      dup1\n        /* \"did.sol\":3286:3310  VerifierAdded(_verifier) */\n      0xffffffffffffffffffffffffffffffffffffffff\n      and\n      0x6d05492139c5ea989514a5d2150c028041e5c087e2a39967f67dc7d2655adb81\n      mload(0x40)\n      mload(0x40)\n      dup1\n      swap2\n      sub\n      swap1\n      log2\n        /* \"did.sol\":3177:3317  function addVerifier(address _verifier) public onlyOwner {... */\n      pop\n      jump\t// out\n        /* \"did.sol\":2244:2481  function verifyIdentity(address _user) public onlyVerifier {... */\n    tag_36:\n        /* \"did.sol\":1355:1364  verifiers */\n      0x01\n        /* \"did.sol\":1355:1376  verifiers[msg.sender] */\n      0x00\n        /* \"did.sol\":1365:1375  msg.sender */\n      caller\n        /* \"did.sol\":1355:1376  verifiers[msg.sender] */\n      0xffffffffffffffffffffffffffffffffffffffff\n      and\n      0xffffffffffffffffffffffffffffffffffffffff\n      and\n      dup2\n      mstore\n      0x20\n      add\n      swap1\n      dup2\n      mstore\n      0x20\n      add\n      0x00\n      keccak256\n      0x00\n      swap1\n      sload\n      swap1\n      0x0100\n      exp\n      swap1\n      div\n      0xff\n      and\n        /* \"did.sol\":1347:1430  require(verifiers[msg.sender], \"Only authorized verifiers can perform this action\") */\n      tag_72\n      jumpi\n      mload(0x40)\n      0x08c379a000000000000000000000000000000000000000000000000000000000\n      dup2\n      mstore\n      0x04\n      add\n      tag_73\n      swap1\n      tag_52\n      jump\t// in\n    tag_73:\n      mload(0x40)\n      dup1\n      swap2\n      sub\n      swap1\n      revert\n    tag_72:\n        /* \"did.sol\":2322:2332  identities */\n      0x00\n        /* \"did.sol\":2322:2339  identities[_user] */\n      dup1\n        /* \"did.sol\":2333:2338  _user */\n      dup3\n        /* \"did.sol\":2322:2339  identities[_user] */\n      0xffffffffffffffffffffffffffffffffffffffff\n      and\n      0xffffffffffffffffffffffffffffffffffffffff\n      and\n      dup2\n      mstore\n      0x20\n      add\n      swap1\n      dup2\n      mstore\n      0x20\n      add\n      0x00\n      keccak256\n        /* \"did.sol\":2322:2349  identities[_user].isRevoked */\n      0x03\n      add\n      0x01\n      swap1\n      sload\n      swap1\n      0x0100\n      exp\n      swap1\n      div\n      0xff\n      and\n        /* \"did.sol\":2321:2349  !identities[_user].isRevoked */\n      iszero\n        /* \"did.sol\":2313:2379  require(!identities[_user].isRevoked, \"Identity has been revoked\") */\n      tag_75\n      jumpi\n      mload(0x40)\n      0x08c379a000000000000000000000000000000000000000000000000000000000\n      dup2\n      mstore\n      0x04\n      add\n      tag_76\n      swap1\n      tag_77\n      jump\t// in\n    tag_76:\n      mload(0x40)\n      dup1\n      swap2\n      sub\n      swap1\n      revert\n    tag_75:\n        /* \"did.sol\":2420:2424  true */\n      0x01\n        /* \"did.sol\":2389:2399  identities */\n      0x00\n        /* \"did.sol\":2389:2406  identities[_user] */\n      dup1\n        /* \"did.sol\":2400:2405  _user */\n      dup4\n        /* \"did.sol\":2389:2406  identities[_user] */\n      0xffffffffffffffffffffffffffffffffffffffff\n      and\n      0xffffffffffffffffffffffffffffffffffffffff\n      and\n      dup2\n      mstore\n      0x20\n      add\n      swap1\n      dup2\n      mstore\n      0x20\n      add\n      0x00\n      keccak256\n        /* \"did.sol\":2389:2417  identities[_user].isVerified */\n      0x03\n      add\n      0x00\n        /* \"did.sol\":2389:2424  identities[_user].isVerified = true */\n      0x0100\n      exp\n      dup2\n      sload\n      dup2\n      0xff\n      mul\n      not\n      and\n      swap1\n      dup4\n      iszero\n      iszero\n      mul\n      or\n      swap1\n      sstore\n      pop\n        /* \"did.sol\":2463:2473  msg.sender */\n      caller\n        /* \"did.sol\":2439:2474  IdentityVerified(_user, msg.sender) */\n      0xffffffffffffffffffffffffffffffffffffffff\n      and\n        /* \"did.sol\":2456:2461  _user */\n      dup2\n        /* \"did.sol\":2439:2474  IdentityVerified(_user, msg.sender) */\n      0xffffffffffffffffffffffffffffffffffffffff\n      and\n      0x25e4589528aa4c1dcd5c91ab0cc06e99d962229fb9e54162702032772a1655a0\n      mload(0x40)\n      mload(0x40)\n      dup1\n      swap2\n      sub\n      swap1\n      log3\n        /* \"did.sol\":2244:2481  function verifyIdentity(address _user) public onlyVerifier {... */\n      pop\n      jump\t// out\n        /* \"did.sol\":1650:2237  function registerIdentity(string memory _name, string memory _email, string memory _verificationDocument) public {... */\n    tag_40:\n        /* \"did.sol\":1851:1871  abi.encodePacked(\"\") */\n      add(0x20, mload(0x40))\n      tag_79\n      swap1\n      tag_80\n      jump\t// in\n    tag_79:\n      mload(0x40)\n      0x20\n      dup2\n      dup4\n      sub\n      sub\n      dup2\n      mstore\n      swap1\n      0x40\n      mstore\n        /* \"did.sol\":1841:1872  keccak256(abi.encodePacked(\"\")) */\n      dup1\n      mload\n      swap1\n      0x20\n      add\n      keccak256\n        /* \"did.sol\":1808:1818  identities */\n      0x00\n        /* \"did.sol\":1808:1830  identities[msg.sender] */\n      dup1\n        /* \"did.sol\":1819:1829  msg.sender */\n      caller\n        /* \"did.sol\":1808:1830  identities[msg.sender] */\n      0xffffffffffffffffffffffffffffffffffffffff\n      and\n      0xffffffffffffffffffffffffffffffffffffffff\n      and\n      dup2\n      mstore\n      0x20\n      add\n      swap1\n      dup2\n      mstore\n      0x20\n      add\n      0x00\n      keccak256\n        /* \"did.sol\":1808:1835  identities[msg.sender].name */\n      0x00\n      add\n        /* \"did.sol\":1791:1836  abi.encodePacked(identities[msg.sender].name) */\n      add(0x20, mload(0x40))\n      tag_81\n      swap2\n      swap1\n      tag_82\n      jump\t// in\n    tag_81:\n      mload(0x40)\n      0x20\n      dup2\n      dup4\n      sub\n      sub\n      dup2\n      mstore\n      swap1\n      0x40\n      mstore\n        /* \"did.sol\":1781:1837  keccak256(abi.encodePacked(identities[msg.sender].name)) */\n      dup1\n      mload\n      swap1\n      0x20\n      add\n      keccak256\n        /* \"did.sol\":1781:1872  keccak256(abi.encodePacked(identities[msg.sender].name)) == keccak256(abi.encodePacked(\"\")) */\n      eq\n        /* \"did.sol\":1773:1904  require(keccak256(abi.encodePacked(identities[msg.sender].name)) == keccak256(abi.encodePacked(\"\")), \"Identity already registered\") */\n      tag_83\n      jumpi\n      mload(0x40)\n      0x08c379a000000000000000000000000000000000000000000000000000000000\n      dup2\n      mstore\n      0x04\n      add\n      tag_84\n      swap1\n      tag_85\n      jump\t// in\n    tag_84:\n      mload(0x40)\n      dup1\n      swap2\n      sub\n      swap1\n      revert\n    tag_83:\n        /* \"did.sol\":1948:2169  Identity({... */\n      mload(0x40)\n      dup1\n      0xc0\n      add\n      0x40\n      mstore\n      dup1\n        /* \"did.sol\":1977:1982  _name */\n      dup5\n        /* \"did.sol\":1948:2169  Identity({... */\n      dup2\n      mstore\n      0x20\n      add\n        /* \"did.sol\":2003:2009  _email */\n      dup4\n        /* \"did.sol\":1948:2169  Identity({... */\n      dup2\n      mstore\n      0x20\n      add\n        /* \"did.sol\":2045:2066  _verificationDocument */\n      dup3\n        /* \"did.sol\":1948:2169  Identity({... */\n      dup2\n      mstore\n      0x20\n      add\n        /* \"did.sol\":2092:2097  false */\n      0x00\n        /* \"did.sol\":1948:2169  Identity({... */\n      iszero\n      iszero\n      dup2\n      mstore\n      0x20\n      add\n        /* \"did.sol\":2122:2127  false */\n      0x00\n        /* \"did.sol\":1948:2169  Identity({... */\n      iszero\n      iszero\n      dup2\n      mstore\n      0x20\n      add\n        /* \"did.sol\":2148:2158  msg.sender */\n      caller\n        /* \"did.sol\":1948:2169  Identity({... */\n      0xffffffffffffffffffffffffffffffffffffffff\n      and\n      dup2\n      mstore\n      pop\n        /* \"did.sol\":1923:1933  identities */\n      0x00\n        /* \"did.sol\":1923:1945  identities[msg.sender] */\n      dup1\n        /* \"did.sol\":1934:1944  msg.sender */\n      caller\n        /* \"did.sol\":1923:1945  identities[msg.sender] */\n      0xffffffffffffffffffffffffffffffffffffffff\n      and\n      0xffffffffffffffffffffffffffffffffffffffff\n      and\n      dup2\n      mstore\n      0x20\n      add\n      swap1\n      dup2\n      mstore\n      0x20\n      add\n      0x00\n      keccak256\n        /* \"did.sol\":1923:2169  identities[msg.sender] = Identity({... */\n      0x00\n      dup3\n      add\n      mload\n      dup2\n      0x00\n      add\n      swap1\n      dup2\n      tag_86\n      swap2\n      swap1\n      tag_87\n      jump\t// in\n    tag_86:\n      pop\n      0x20\n      dup3\n      add\n      mload\n      dup2\n      0x01\n      add\n      swap1\n      dup2\n      tag_88\n      swap2\n      swap1\n      tag_87\n      jump\t// in\n    tag_88:\n      pop\n      0x40\n      dup3\n      add\n      mload\n      dup2\n      0x02\n      add\n      swap1\n      dup2\n      tag_89\n      swap2\n      swap1\n      tag_87\n      jump\t// in\n    tag_89:\n      pop\n      0x60\n      dup3\n      add\n      mload\n      dup2\n      0x03\n      add\n      exp(0x0100, 0x00)\n      dup2\n      sload\n      dup2\n      0xff\n      mul\n      not\n      and\n      swap1\n      dup4\n      iszero\n      iszero\n      mul\n      or\n      swap1\n      sstore\n      pop\n      0x80\n      dup3\n      add\n      mload\n      dup2\n      0x03\n      add\n      exp(0x0100, 0x01)\n      dup2\n      sload\n      dup2\n      0xff\n      mul\n      not\n      and\n      swap1\n      dup4\n      iszero\n      iszero\n      mul\n      or\n      swap1\n      sstore\n      pop\n      0xa0\n      dup3\n      add\n      mload\n      dup2\n      0x03\n      add\n      exp(0x0100, 0x02)\n      dup2\n      sload\n      dup2\n      0xffffffffffffffffffffffffffffffffffffffff\n      mul\n      not\n      and\n      swap1\n      dup4\n      0xffffffffffffffffffffffffffffffffffffffff\n      and\n      mul\n      or\n      swap1\n      sstore\n      pop\n      swap1\n      pop\n      pop\n        /* \"did.sol\":2204:2214  msg.sender */\n      caller\n        /* \"did.sol\":2185:2230  IdentityRegistered(msg.sender, _name, _email) */\n      0xffffffffffffffffffffffffffffffffffffffff\n      and\n      0xdc8c7948efd57970d2239c1bd917b1aacccb1af7b9d31499bb5ed1f80a792527\n        /* \"did.sol\":2216:2221  _name */\n      dup5\n        /* \"did.sol\":2223:2229  _email */\n      dup5\n        /* \"did.sol\":2185:2230  IdentityRegistered(msg.sender, _name, _email) */\n      mload(0x40)\n      tag_90\n      swap3\n      swap2\n      swap1\n      tag_91\n      jump\t// in\n    tag_90:\n      mload(0x40)\n      dup1\n      swap2\n      sub\n      swap1\n      log2\n        /* \"did.sol\":1650:2237  function registerIdentity(string memory _name, string memory _email, string memory _verificationDocument) public {... */\n      pop\n      pop\n      pop\n      jump\t// out\n        /* \"did.sol\":3323:3469  function removeVerifier(address _verifier) public onlyOwner {... */\n    tag_43:\n        /* \"did.sol\":1568:1573  owner */\n      0x02\n      0x00\n      swap1\n      sload\n      swap1\n      0x0100\n      exp\n      swap1\n      div\n      0xffffffffffffffffffffffffffffffffffffffff\n      and\n        /* \"did.sol\":1554:1573  msg.sender == owner */\n      0xffffffffffffffffffffffffffffffffffffffff\n      and\n        /* \"did.sol\":1554:1564  msg.sender */\n      caller\n        /* \"did.sol\":1554:1573  msg.sender == owner */\n      0xffffffffffffffffffffffffffffffffffffffff\n      and\n      eq\n        /* \"did.sol\":1546:1625  require(msg.sender == owner, \"Only the contract owner can perform this action\") */\n      tag_93\n      jumpi\n      mload(0x40)\n      0x08c379a000000000000000000000000000000000000000000000000000000000\n      dup2\n      mstore\n      0x04\n      add\n      tag_94\n      swap1\n      tag_69\n      jump\t// in\n    tag_94:\n      mload(0x40)\n      dup1\n      swap2\n      sub\n      swap1\n      revert\n    tag_93:\n        /* \"did.sol\":3416:3421  false */\n      0x00\n        /* \"did.sol\":3393:3402  verifiers */\n      0x01\n        /* \"did.sol\":3393:3413  verifiers[_verifier] */\n      0x00\n        /* \"did.sol\":3403:3412  _verifier */\n      dup4\n        /* \"did.sol\":3393:3413  verifiers[_verifier] */\n      0xffffffffffffffffffffffffffffffffffffffff\n      and\n      0xffffffffffffffffffffffffffffffffffffffff\n      and\n      dup2\n      mstore\n      0x20\n      add\n      swap1\n      dup2\n      mstore\n      0x20\n      add\n      0x00\n      keccak256\n      0x00\n        /* \"did.sol\":3393:3421  verifiers[_verifier] = false */\n      0x0100\n      exp\n      dup2\n      sload\n      dup2\n      0xff\n      mul\n      not\n      and\n      swap1\n      dup4\n      iszero\n      iszero\n      mul\n      or\n      swap1\n      sstore\n      pop\n        /* \"did.sol\":3452:3461  _verifier */\n      dup1\n        /* \"did.sol\":3436:3462  VerifierRemoved(_verifier) */\n      0xffffffffffffffffffffffffffffffffffffffff\n      and\n      0x44a3cd4eb5cc5748f6169df057b1cb2ae4c383e87cd94663c430e095d4cba424\n      mload(0x40)\n      mload(0x40)\n      dup1\n      swap2\n      sub\n      swap1\n      log2\n        /* \"did.sol\":3323:3469  function removeVerifier(address _verifier) public onlyOwner {... */\n      pop\n      jump\t// out\n        /* \"did.sol\":317:363  mapping(address => Identity) public identities */\n    tag_46:\n      mstore(0x20, 0x00)\n      dup1\n      0x00\n      mstore\n      keccak256(0x00, 0x40)\n      0x00\n      swap2\n      pop\n      swap1\n      pop\n      dup1\n      0x00\n      add\n      dup1\n      sload\n      tag_96\n      swap1\n      tag_56\n      jump\t// in\n    tag_96:\n      dup1\n      0x1f\n      add\n      0x20\n      dup1\n      swap2\n      div\n      mul\n      0x20\n      add\n      mload(0x40)\n      swap1\n      dup2\n      add\n      0x40\n      mstore\n      dup1\n      swap3\n      swap2\n      swap1\n      dup2\n      dup2\n      mstore\n      0x20\n      add\n      dup3\n      dup1\n      sload\n      tag_97\n      swap1\n      tag_56\n      jump\t// in\n    tag_97:\n      dup1\n      iszero\n      tag_98\n      jumpi\n      dup1\n      0x1f\n      lt\n      tag_99\n      jumpi\n      0x0100\n      dup1\n      dup4\n      sload\n      div\n      mul\n      dup4\n      mstore\n      swap2\n      0x20\n      add\n      swap2\n      jump(tag_98)\n    tag_99:\n      dup3\n      add\n      swap2\n      swap1\n      0x00\n      mstore\n      keccak256(0x00, 0x20)\n      swap1\n    tag_100:\n      dup2\n      sload\n      dup2\n      mstore\n      swap1\n      0x01\n      add\n      swap1\n      0x20\n      add\n      dup1\n      dup4\n      gt\n      tag_100\n      jumpi\n      dup3\n      swap1\n      sub\n      0x1f\n      and\n      dup3\n      add\n      swap2\n    tag_98:\n      pop\n      pop\n      pop\n      pop\n      pop\n      swap1\n      dup1\n      0x01\n      add\n      dup1\n      sload\n      tag_101\n      swap1\n      tag_56\n      jump\t// in\n    tag_101:\n      dup1\n      0x1f\n      add\n      0x20\n      dup1\n      swap2\n      div\n      mul\n      0x20\n      add\n      mload(0x40)\n      swap1\n      dup2\n      add\n      0x40\n      mstore\n      dup1\n      swap3\n      swap2\n      swap1\n      dup2\n      dup2\n      mstore\n      0x20\n      add\n      dup3\n      dup1\n      sload\n      tag_102\n      swap1\n      tag_56\n      jump\t// in\n    tag_102:\n      dup1\n      iszero\n      tag_103\n      jumpi\n      dup1\n      0x1f\n      lt\n      tag_104\n      jumpi\n      0x0100\n      dup1\n      dup4\n      sload\n      div\n      mul\n      dup4\n      mstore\n      swap2\n      0x20\n      add\n      swap2\n      jump(tag_103)\n    tag_104:\n      dup3\n      add\n      swap2\n      swap1\n      0x00\n      mstore\n      keccak256(0x00, 0x20)\n      swap1\n    tag_105:\n      dup2\n      sload\n      dup2\n      mstore\n      swap1\n      0x01\n      add\n      swap1\n      0x20\n      add\n      dup1\n      dup4\n      gt\n      tag_105\n      jumpi\n      dup3\n      swap1\n      sub\n      0x1f\n      and\n      dup3\n      add\n      swap2\n    tag_103:\n      pop\n      pop\n      pop\n      pop\n      pop\n      swap1\n      dup1\n      0x02\n      add\n      dup1\n      sload\n      tag_106\n      swap1\n      tag_56\n      jump\t// in\n    tag_106:\n      dup1\n      0x1f\n      add\n      0x20\n      dup1\n      swap2\n      div\n      mul\n      0x20\n      add\n      mload(0x40)\n      swap1\n      dup2\n      add\n      0x40\n      mstore\n      dup1\n      swap3\n      swap2\n      swap1\n      dup2\n      dup2\n      mstore\n      0x20\n      add\n      dup3\n      dup1\n      sload\n      tag_107\n      swap1\n      tag_56\n      jump\t// in\n    tag_107:\n      dup1\n      iszero\n      tag_108\n      jumpi\n      dup1\n      0x1f\n      lt\n      tag_109\n      jumpi\n      0x0100\n      dup1\n      dup4\n      sload\n      div\n      mul\n      dup4\n      mstore\n      swap2\n      0x20\n      add\n      swap2\n      jump(tag_108)\n    tag_109:\n      dup3\n      add\n      swap2\n      swap1\n      0x00\n      mstore\n      keccak256(0x00, 0x20)\n      swap1\n    tag_110:\n      dup2\n      sload\n      dup2\n      mstore\n      swap1\n      0x01\n      add\n      swap1\n      0x20\n      add\n      dup1\n      dup4\n      gt\n      tag_110\n      jumpi\n      dup3\n      swap1\n      sub\n      0x1f\n      and\n      dup3\n      add\n      swap2\n    tag_108:\n      pop\n      pop\n      pop\n      pop\n      pop\n      swap1\n      dup1\n      0x03\n      add\n      0x00\n      swap1\n      sload\n      swap1\n      0x0100\n      exp\n      swap1\n      div\n      0xff\n      and\n      swap1\n      dup1\n      0x03\n      add\n      0x01\n      swap1\n      sload\n      swap1\n      0x0100\n      exp\n      swap1\n      div\n      0xff\n      and\n      swap1\n      dup1\n      0x03\n      add\n      0x02\n      swap1\n      sload\n      swap1\n      0x0100\n      exp\n      swap1\n      div\n      0xffffffffffffffffffffffffffffffffffffffff\n      and\n      swap1\n      pop\n      dup7\n      jump\t// out\n        /* \"#utility.yul\":7:82   */\n    tag_111:\n        /* \"#utility.yul\":40:46   */\n      0x00\n        /* \"#utility.yul\":73:75   */\n      0x40\n        /* \"#utility.yul\":67:76   */\n      mload\n        /* \"#utility.yul\":57:76   */\n      swap1\n      pop\n        /* \"#utility.yul\":7:82   */\n      swap1\n      jump\t// out\n        /* \"#utility.yul\":88:205   */\n    tag_112:\n        /* \"#utility.yul\":197:198   */\n      0x00\n        /* \"#utility.yul\":194:195   */\n      dup1\n        /* \"#utility.yul\":187:199   */\n      revert\n        /* \"#utility.yul\":211:328   */\n    tag_113:\n        /* \"#utility.yul\":320:321   */\n      0x00\n        /* \"#utility.yul\":317:318   */\n      dup1\n        /* \"#utility.yul\":310:322   */\n      revert\n        /* \"#utility.yul\":334:460   */\n    tag_114:\n        /* \"#utility.yul\":371:378   */\n      0x00\n        /* \"#utility.yul\":411:453   */\n      0xffffffffffffffffffffffffffffffffffffffff\n        /* \"#utility.yul\":404:409   */\n      dup3\n        /* \"#utility.yul\":400:454   */\n      and\n        /* \"#utility.yul\":389:454   */\n      swap1\n      pop\n        /* \"#utility.yul\":334:460   */\n      swap2\n      swap1\n      pop\n      jump\t// out\n        /* \"#utility.yul\":466:562   */\n    tag_115:\n        /* \"#utility.yul\":503:510   */\n      0x00\n        /* \"#utility.yul\":532:556   */\n      tag_170\n        /* \"#utility.yul\":550:555   */\n      dup3\n        /* \"#utility.yul\":532:556   */\n      tag_114\n      jump\t// in\n    tag_170:\n        /* \"#utility.yul\":521:556   */\n      swap1\n      pop\n        /* \"#utility.yul\":466:562   */\n      swap2\n      swap1\n      pop\n      jump\t// out\n        /* \"#utility.yul\":568:690   */\n    tag_116:\n        /* \"#utility.yul\":641:665   */\n      tag_172\n        /* \"#utility.yul\":659:664   */\n      dup2\n        /* \"#utility.yul\":641:665   */\n      tag_115\n      jump\t// in\n    tag_172:\n        /* \"#utility.yul\":634:639   */\n      dup2\n        /* \"#utility.yul\":631:666   */\n      eq\n        /* \"#utility.yul\":621:684   */\n      tag_173\n      jumpi\n        /* \"#utility.yul\":680:681   */\n      0x00\n        /* \"#utility.yul\":677:678   */\n      dup1\n        /* \"#utility.yul\":670:682   */\n      revert\n        /* \"#utility.yul\":621:684   */\n    tag_173:\n        /* \"#utility.yul\":568:690   */\n      pop\n      jump\t// out\n        /* \"#utility.yul\":696:835   */\n    tag_117:\n        /* \"#utility.yul\":742:747   */\n      0x00\n        /* \"#utility.yul\":780:786   */\n      dup2\n        /* \"#utility.yul\":767:787   */\n      calldataload\n        /* \"#utility.yul\":758:787   */\n      swap1\n      pop\n        /* \"#utility.yul\":796:829   */\n      tag_175\n        /* \"#utility.yul\":823:828   */\n      dup2\n        /* \"#utility.yul\":796:829   */\n      tag_116\n      jump\t// in\n    tag_175:\n        /* \"#utility.yul\":696:835   */\n      swap3\n      swap2\n      pop\n      pop\n      jump\t// out\n        /* \"#utility.yul\":841:1170   */\n    tag_15:\n        /* \"#utility.yul\":900:906   */\n      0x00\n        /* \"#utility.yul\":949:951   */\n      0x20\n        /* \"#utility.yul\":937:946   */\n      dup3\n        /* \"#utility.yul\":928:935   */\n      dup5\n        /* \"#utility.yul\":924:947   */\n      sub\n        /* \"#utility.yul\":920:952   */\n      slt\n        /* \"#utility.yul\":917:1036   */\n      iszero\n      tag_177\n      jumpi\n        /* \"#utility.yul\":955:1034   */\n      tag_178\n      tag_112\n      jump\t// in\n    tag_178:\n        /* \"#utility.yul\":917:1036   */\n    tag_177:\n        /* \"#utility.yul\":1075:1076   */\n      0x00\n        /* \"#utility.yul\":1100:1153   */\n      tag_179\n        /* \"#utility.yul\":1145:1152   */\n      dup5\n        /* \"#utility.yul\":1136:1142   */\n      dup3\n        /* \"#utility.yul\":1125:1134   */\n      dup6\n        /* \"#utility.yul\":1121:1143   */\n      add\n        /* \"#utility.yul\":1100:1153   */\n      tag_117\n      jump\t// in\n    tag_179:\n        /* \"#utility.yul\":1090:1153   */\n      swap2\n      pop\n        /* \"#utility.yul\":1046:1163   */\n      pop\n        /* \"#utility.yul\":841:1170   */\n      swap3\n      swap2\n      pop\n      pop\n      jump\t// out\n        /* \"#utility.yul\":1176:1275   */\n    tag_118:\n        /* \"#utility.yul\":1228:1234   */\n      0x00\n        /* \"#utility.yul\":1262:1267   */\n      dup2\n        /* \"#utility.yul\":1256:1268   */\n      mload\n        /* \"#utility.yul\":1246:1268   */\n      swap1\n      pop\n        /* \"#utility.yul\":1176:1275   */\n      swap2\n      swap1\n      pop\n      jump\t// out\n        /* \"#utility.yul\":1281:1450   */\n    tag_119:\n        /* \"#utility.yul\":1365:1376   */\n      0x00\n        /* \"#utility.yul\":1399:1405   */\n      dup3\n        /* \"#utility.yul\":1394:1397   */\n      dup3\n        /* \"#utility.yul\":1387:1406   */\n      mstore\n        /* \"#utility.yul\":1439:1443   */\n      0x20\n        /* \"#utility.yul\":1434:1437   */\n      dup3\n        /* \"#utility.yul\":1430:1444   */\n      add\n        /* \"#utility.yul\":1415:1444   */\n      swap1\n      pop\n        /* \"#utility.yul\":1281:1450   */\n      swap3\n      swap2\n      pop\n      pop\n      jump\t// out\n        /* \"#utility.yul\":1456:1595   */\n    tag_120:\n        /* \"#utility.yul\":1545:1551   */\n      dup3\n        /* \"#utility.yul\":1540:1543   */\n      dup2\n        /* \"#utility.yul\":1535:1538   */\n      dup4\n        /* \"#utility.yul\":1529:1552   */\n      mcopy\n        /* \"#utility.yul\":1586:1587   */\n      0x00\n        /* \"#utility.yul\":1577:1583   */\n      dup4\n        /* \"#utility.yul\":1572:1575   */\n      dup4\n        /* \"#utility.yul\":1568:1584   */\n      add\n        /* \"#utility.yul\":1561:1588   */\n      mstore\n        /* \"#utility.yul\":1456:1595   */\n      pop\n      pop\n      pop\n      jump\t// out\n        /* \"#utility.yul\":1601:1703   */\n    tag_121:\n        /* \"#utility.yul\":1642:1648   */\n      0x00\n        /* \"#utility.yul\":1693:1695   */\n      0x1f\n        /* \"#utility.yul\":1689:1696   */\n      not\n        /* \"#utility.yul\":1684:1686   */\n      0x1f\n        /* \"#utility.yul\":1677:1682   */\n      dup4\n        /* \"#utility.yul\":1673:1687   */\n      add\n        /* \"#utility.yul\":1669:1697   */\n      and\n        /* \"#utility.yul\":1659:1697   */\n      swap1\n      pop\n        /* \"#utility.yul\":1601:1703   */\n      swap2\n      swap1\n      pop\n      jump\t// out\n        /* \"#utility.yul\":1709:2086   */\n    tag_122:\n        /* \"#utility.yul\":1797:1800   */\n      0x00\n        /* \"#utility.yul\":1825:1864   */\n      tag_185\n        /* \"#utility.yul\":1858:1863   */\n      dup3\n        /* \"#utility.yul\":1825:1864   */\n      tag_118\n      jump\t// in\n    tag_185:\n        /* \"#utility.yul\":1880:1951   */\n      tag_186\n        /* \"#utility.yul\":1944:1950   */\n      dup2\n        /* \"#utility.yul\":1939:1942   */\n      dup6\n        /* \"#utility.yul\":1880:1951   */\n      tag_119\n      jump\t// in\n    tag_186:\n        /* \"#utility.yul\":1873:1951   */\n      swap4\n      pop\n        /* \"#utility.yul\":1960:2025   */\n      tag_187\n        /* \"#utility.yul\":2018:2024   */\n      dup2\n        /* \"#utility.yul\":2013:2016   */\n      dup6\n        /* \"#utility.yul\":2006:2010   */\n      0x20\n        /* \"#utility.yul\":1999:2004   */\n      dup7\n        /* \"#utility.yul\":1995:2011   */\n      add\n        /* \"#utility.yul\":1960:2025   */\n      tag_120\n      jump\t// in\n    tag_187:\n        /* \"#utility.yul\":2050:2079   */\n      tag_188\n        /* \"#utility.yul\":2072:2078   */\n      dup2\n        /* \"#utility.yul\":2050:2079   */\n      tag_121\n      jump\t// in\n    tag_188:\n        /* \"#utility.yul\":2045:2048   */\n      dup5\n        /* \"#utility.yul\":2041:2080   */\n      add\n        /* \"#utility.yul\":2034:2080   */\n      swap2\n      pop\n        /* \"#utility.yul\":1801:2086   */\n      pop\n        /* \"#utility.yul\":1709:2086   */\n      swap3\n      swap2\n      pop\n      pop\n      jump\t// out\n        /* \"#utility.yul\":2092:2182   */\n    tag_123:\n        /* \"#utility.yul\":2126:2133   */\n      0x00\n        /* \"#utility.yul\":2169:2174   */\n      dup2\n        /* \"#utility.yul\":2162:2175   */\n      iszero\n        /* \"#utility.yul\":2155:2176   */\n      iszero\n        /* \"#utility.yul\":2144:2176   */\n      swap1\n      pop\n        /* \"#utility.yul\":2092:2182   */\n      swap2\n      swap1\n      pop\n      jump\t// out\n        /* \"#utility.yul\":2188:2297   */\n    tag_124:\n        /* \"#utility.yul\":2269:2290   */\n      tag_191\n        /* \"#utility.yul\":2284:2289   */\n      dup2\n        /* \"#utility.yul\":2269:2290   */\n      tag_123\n      jump\t// in\n    tag_191:\n        /* \"#utility.yul\":2264:2267   */\n      dup3\n        /* \"#utility.yul\":2257:2291   */\n      mstore\n        /* \"#utility.yul\":2188:2297   */\n      pop\n      pop\n      jump\t// out\n        /* \"#utility.yul\":2303:2421   */\n    tag_125:\n        /* \"#utility.yul\":2390:2414   */\n      tag_193\n        /* \"#utility.yul\":2408:2413   */\n      dup2\n        /* \"#utility.yul\":2390:2414   */\n      tag_115\n      jump\t// in\n    tag_193:\n        /* \"#utility.yul\":2385:2388   */\n      dup3\n        /* \"#utility.yul\":2378:2415   */\n      mstore\n        /* \"#utility.yul\":2303:2421   */\n      pop\n      pop\n      jump\t// out\n        /* \"#utility.yul\":2427:3249   */\n    tag_21:\n        /* \"#utility.yul\":2660:2664   */\n      0x00\n        /* \"#utility.yul\":2698:2701   */\n      0xa0\n        /* \"#utility.yul\":2687:2696   */\n      dup3\n        /* \"#utility.yul\":2683:2702   */\n      add\n        /* \"#utility.yul\":2675:2702   */\n      swap1\n      pop\n        /* \"#utility.yul\":2748:2757   */\n      dup2\n        /* \"#utility.yul\":2742:2746   */\n      dup2\n        /* \"#utility.yul\":2738:2758   */\n      sub\n        /* \"#utility.yul\":2734:2735   */\n      0x00\n        /* \"#utility.yul\":2723:2732   */\n      dup4\n        /* \"#utility.yul\":2719:2736   */\n      add\n        /* \"#utility.yul\":2712:2759   */\n      mstore\n        /* \"#utility.yul\":2776:2854   */\n      tag_195\n        /* \"#utility.yul\":2849:2853   */\n      dup2\n        /* \"#utility.yul\":2840:2846   */\n      dup9\n        /* \"#utility.yul\":2776:2854   */\n      tag_122\n      jump\t// in\n    tag_195:\n        /* \"#utility.yul\":2768:2854   */\n      swap1\n      pop\n        /* \"#utility.yul\":2901:2910   */\n      dup2\n        /* \"#utility.yul\":2895:2899   */\n      dup2\n        /* \"#utility.yul\":2891:2911   */\n      sub\n        /* \"#utility.yul\":2886:2888   */\n      0x20\n        /* \"#utility.yul\":2875:2884   */\n      dup4\n        /* \"#utility.yul\":2871:2889   */\n      add\n        /* \"#utility.yul\":2864:2912   */\n      mstore\n        /* \"#utility.yul\":2929:3007   */\n      tag_196\n        /* \"#utility.yul\":3002:3006   */\n      dup2\n        /* \"#utility.yul\":2993:2999   */\n      dup8\n        /* \"#utility.yul\":2929:3007   */\n      tag_122\n      jump\t// in\n    tag_196:\n        /* \"#utility.yul\":2921:3007   */\n      swap1\n      pop\n        /* \"#utility.yul\":3017:3083   */\n      tag_197\n        /* \"#utility.yul\":3079:3081   */\n      0x40\n        /* \"#utility.yul\":3068:3077   */\n      dup4\n        /* \"#utility.yul\":3064:3082   */\n      add\n        /* \"#utility.yul\":3055:3061   */\n      dup7\n        /* \"#utility.yul\":3017:3083   */\n      tag_124\n      jump\t// in\n    tag_197:\n        /* \"#utility.yul\":3093:3159   */\n      tag_198\n        /* \"#utility.yul\":3155:3157   */\n      0x60\n        /* \"#utility.yul\":3144:3153   */\n      dup4\n        /* \"#utility.yul\":3140:3158   */\n      add\n        /* \"#utility.yul\":3131:3137   */\n      dup6\n        /* \"#utility.yul\":3093:3159   */\n      tag_124\n      jump\t// in\n    tag_198:\n        /* \"#utility.yul\":3169:3242   */\n      tag_199\n        /* \"#utility.yul\":3237:3240   */\n      0x80\n        /* \"#utility.yul\":3226:3235   */\n      dup4\n        /* \"#utility.yul\":3222:3241   */\n      add\n        /* \"#utility.yul\":3213:3219   */\n      dup5\n        /* \"#utility.yul\":3169:3242   */\n      tag_125\n      jump\t// in\n    tag_199:\n        /* \"#utility.yul\":2427:3249   */\n      swap7\n      swap6\n      pop\n      pop\n      pop\n      pop\n      pop\n      pop\n      jump\t// out\n        /* \"#utility.yul\":3255:3465   */\n    tag_26:\n        /* \"#utility.yul\":3342:3346   */\n      0x00\n        /* \"#utility.yul\":3380:3382   */\n      0x20\n        /* \"#utility.yul\":3369:3378   */\n      dup3\n        /* \"#utility.yul\":3365:3383   */\n      add\n        /* \"#utility.yul\":3357:3383   */\n      swap1\n      pop\n        /* \"#utility.yul\":3393:3458   */\n      tag_201\n        /* \"#utility.yul\":3455:3456   */\n      0x00\n        /* \"#utility.yul\":3444:3453   */\n      dup4\n        /* \"#utility.yul\":3440:3457   */\n      add\n        /* \"#utility.yul\":3431:3437   */\n      dup5\n        /* \"#utility.yul\":3393:3458   */\n      tag_124\n      jump\t// in\n    tag_201:\n        /* \"#utility.yul\":3255:3465   */\n      swap3\n      swap2\n      pop\n      pop\n      jump\t// out\n        /* \"#utility.yul\":3471:3693   */\n    tag_30:\n        /* \"#utility.yul\":3564:3568   */\n      0x00\n        /* \"#utility.yul\":3602:3604   */\n      0x20\n        /* \"#utility.yul\":3591:3600   */\n      dup3\n        /* \"#utility.yul\":3587:3605   */\n      add\n        /* \"#utility.yul\":3579:3605   */\n      swap1\n      pop\n        /* \"#utility.yul\":3615:3686   */\n      tag_203\n        /* \"#utility.yul\":3683:3684   */\n      0x00\n        /* \"#utility.yul\":3672:3681   */\n      dup4\n        /* \"#utility.yul\":3668:3685   */\n      add\n        /* \"#utility.yul\":3659:3665   */\n      dup5\n        /* \"#utility.yul\":3615:3686   */\n      tag_125\n      jump\t// in\n    tag_203:\n        /* \"#utility.yul\":3471:3693   */\n      swap3\n      swap2\n      pop\n      pop\n      jump\t// out\n        /* \"#utility.yul\":3699:3816   */\n    tag_126:\n        /* \"#utility.yul\":3808:3809   */\n      0x00\n        /* \"#utility.yul\":3805:3806   */\n      dup1\n        /* \"#utility.yul\":3798:3810   */\n      revert\n        /* \"#utility.yul\":3822:3939   */\n    tag_127:\n        /* \"#utility.yul\":3931:3932   */\n      0x00\n        /* \"#utility.yul\":3928:3929   */\n      dup1\n        /* \"#utility.yul\":3921:3933   */\n      revert\n        /* \"#utility.yul\":3945:4125   */\n    tag_128:\n        /* \"#utility.yul\":3993:4070   */\n      0x4e487b7100000000000000000000000000000000000000000000000000000000\n        /* \"#utility.yul\":3990:3991   */\n      0x00\n        /* \"#utility.yul\":3983:4071   */\n      mstore\n        /* \"#utility.yul\":4090:4094   */\n      0x41\n        /* \"#utility.yul\":4087:4088   */\n      0x04\n        /* \"#utility.yul\":4080:4095   */\n      mstore\n        /* \"#utility.yul\":4114:4118   */\n      0x24\n        /* \"#utility.yul\":4111:4112   */\n      0x00\n        /* \"#utility.yul\":4104:4119   */\n      revert\n        /* \"#utility.yul\":4131:4412   */\n    tag_129:\n        /* \"#utility.yul\":4214:4241   */\n      tag_208\n        /* \"#utility.yul\":4236:4240   */\n      dup3\n        /* \"#utility.yul\":4214:4241   */\n      tag_121\n      jump\t// in\n    tag_208:\n        /* \"#utility.yul\":4206:4212   */\n      dup2\n        /* \"#utility.yul\":4202:4242   */\n      add\n        /* \"#utility.yul\":4344:4350   */\n      dup2\n        /* \"#utility.yul\":4332:4342   */\n      dup2\n        /* \"#utility.yul\":4329:4351   */\n      lt\n        /* \"#utility.yul\":4308:4326   */\n      0xffffffffffffffff\n        /* \"#utility.yul\":4296:4306   */\n      dup3\n        /* \"#utility.yul\":4293:4327   */\n      gt\n        /* \"#utility.yul\":4290:4352   */\n      or\n        /* \"#utility.yul\":4287:4375   */\n      iszero\n      tag_209\n      jumpi\n        /* \"#utility.yul\":4355:4373   */\n      tag_210\n      tag_128\n      jump\t// in\n    tag_210:\n        /* \"#utility.yul\":4287:4375   */\n    tag_209:\n        /* \"#utility.yul\":4395:4405   */\n      dup1\n        /* \"#utility.yul\":4391:4393   */\n      0x40\n        /* \"#utility.yul\":4384:4406   */\n      mstore\n        /* \"#utility.yul\":4174:4412   */\n      pop\n        /* \"#utility.yul\":4131:4412   */\n      pop\n      pop\n      jump\t// out\n        /* \"#utility.yul\":4418:4547   */\n    tag_130:\n        /* \"#utility.yul\":4452:4458   */\n      0x00\n        /* \"#utility.yul\":4479:4499   */\n      tag_212\n      tag_111\n      jump\t// in\n    tag_212:\n        /* \"#utility.yul\":4469:4499   */\n      swap1\n      pop\n        /* \"#utility.yul\":4508:4541   */\n      tag_213\n        /* \"#utility.yul\":4536:4540   */\n      dup3\n        /* \"#utility.yul\":4528:4534   */\n      dup3\n        /* \"#utility.yul\":4508:4541   */\n      tag_129\n      jump\t// in\n    tag_213:\n        /* \"#utility.yul\":4418:4547   */\n      swap2\n      swap1\n      pop\n      jump\t// out\n        /* \"#utility.yul\":4553:4861   */\n    tag_131:\n        /* \"#utility.yul\":4615:4619   */\n      0x00\n        /* \"#utility.yul\":4705:4723   */\n      0xffffffffffffffff\n        /* \"#utility.yul\":4697:4703   */\n      dup3\n        /* \"#utility.yul\":4694:4724   */\n      gt\n        /* \"#utility.yul\":4691:4747   */\n      iszero\n      tag_215\n      jumpi\n        /* \"#utility.yul\":4727:4745   */\n      tag_216\n      tag_128\n      jump\t// in\n    tag_216:\n        /* \"#utility.yul\":4691:4747   */\n    tag_215:\n        /* \"#utility.yul\":4765:4794   */\n      tag_217\n        /* \"#utility.yul\":4787:4793   */\n      dup3\n        /* \"#utility.yul\":4765:4794   */\n      tag_121\n      jump\t// in\n    tag_217:\n        /* \"#utility.yul\":4757:4794   */\n      swap1\n      pop\n        /* \"#utility.yul\":4849:4853   */\n      0x20\n        /* \"#utility.yul\":4843:4847   */\n      dup2\n        /* \"#utility.yul\":4839:4854   */\n      add\n        /* \"#utility.yul\":4831:4854   */\n      swap1\n      pop\n        /* \"#utility.yul\":4553:4861   */\n      swap2\n      swap1\n      pop\n      jump\t// out\n        /* \"#utility.yul\":4867:5015   */\n    tag_132:\n        /* \"#utility.yul\":4965:4971   */\n      dup3\n        /* \"#utility.yul\":4960:4963   */\n      dup2\n        /* \"#utility.yul\":4955:4958   */\n      dup4\n        /* \"#utility.yul\":4942:4972   */\n      calldatacopy\n        /* \"#utility.yul\":5006:5007   */\n      0x00\n        /* \"#utility.yul\":4997:5003   */\n      dup4\n        /* \"#utility.yul\":4992:4995   */\n      dup4\n        /* \"#utility.yul\":4988:5004   */\n      add\n        /* \"#utility.yul\":4981:5008   */\n      mstore\n        /* \"#utility.yul\":4867:5015   */\n      pop\n      pop\n      pop\n      jump\t// out\n        /* \"#utility.yul\":5021:5446   */\n    tag_133:\n        /* \"#utility.yul\":5099:5104   */\n      0x00\n        /* \"#utility.yul\":5124:5190   */\n      tag_220\n        /* \"#utility.yul\":5140:5189   */\n      tag_221\n        /* \"#utility.yul\":5182:5188   */\n      dup5\n        /* \"#utility.yul\":5140:5189   */\n      tag_131\n      jump\t// in\n    tag_221:\n        /* \"#utility.yul\":5124:5190   */\n      tag_130\n      jump\t// in\n    tag_220:\n        /* \"#utility.yul\":5115:5190   */\n      swap1\n      pop\n        /* \"#utility.yul\":5213:5219   */\n      dup3\n        /* \"#utility.yul\":5206:5211   */\n      dup2\n        /* \"#utility.yul\":5199:5220   */\n      mstore\n        /* \"#utility.yul\":5251:5255   */\n      0x20\n        /* \"#utility.yul\":5244:5249   */\n      dup2\n        /* \"#utility.yul\":5240:5256   */\n      add\n        /* \"#utility.yul\":5289:5292   */\n      dup5\n        /* \"#utility.yul\":5280:5286   */\n      dup5\n        /* \"#utility.yul\":5275:5278   */\n      dup5\n        /* \"#utility.yul\":5271:5287   */\n      add\n        /* \"#utility.yul\":5268:5293   */\n      gt\n        /* \"#utility.yul\":5265:5377   */\n      iszero\n      tag_222\n      jumpi\n        /* \"#utility.yul\":5296:5375   */\n      tag_223\n      tag_127\n      jump\t// in\n    tag_223:\n        /* \"#utility.yul\":5265:5377   */\n    tag_222:\n        /* \"#utility.yul\":5386:5440   */\n      tag_224\n        /* \"#utility.yul\":5433:5439   */\n      dup5\n        /* \"#utility.yul\":5428:5431   */\n      dup3\n        /* \"#utility.yul\":5423:5426   */\n      dup6\n        /* \"#utility.yul\":5386:5440   */\n      tag_132\n      jump\t// in\n    tag_224:\n        /* \"#utility.yul\":5105:5446   */\n      pop\n        /* \"#utility.yul\":5021:5446   */\n      swap4\n      swap3\n      pop\n      pop\n      pop\n      jump\t// out\n        /* \"#utility.yul\":5466:5806   */\n    tag_134:\n        /* \"#utility.yul\":5522:5527   */\n      0x00\n        /* \"#utility.yul\":5571:5574   */\n      dup3\n        /* \"#utility.yul\":5564:5568   */\n      0x1f\n        /* \"#utility.yul\":5556:5562   */\n      dup4\n        /* \"#utility.yul\":5552:5569   */\n      add\n        /* \"#utility.yul\":5548:5575   */\n      slt\n        /* \"#utility.yul\":5538:5660   */\n      tag_226\n      jumpi\n        /* \"#utility.yul\":5579:5658   */\n      tag_227\n      tag_126\n      jump\t// in\n    tag_227:\n        /* \"#utility.yul\":5538:5660   */\n    tag_226:\n        /* \"#utility.yul\":5696:5702   */\n      dup2\n        /* \"#utility.yul\":5683:5703   */\n      calldataload\n        /* \"#utility.yul\":5721:5800   */\n      tag_228\n        /* \"#utility.yul\":5796:5799   */\n      dup5\n        /* \"#utility.yul\":5788:5794   */\n      dup3\n        /* \"#utility.yul\":5781:5785   */\n      0x20\n        /* \"#utility.yul\":5773:5779   */\n      dup7\n        /* \"#utility.yul\":5769:5786   */\n      add\n        /* \"#utility.yul\":5721:5800   */\n      tag_133\n      jump\t// in\n    tag_228:\n        /* \"#utility.yul\":5712:5800   */\n      swap2\n      pop\n        /* \"#utility.yul\":5528:5806   */\n      pop\n        /* \"#utility.yul\":5466:5806   */\n      swap3\n      swap2\n      pop\n      pop\n      jump\t// out\n        /* \"#utility.yul\":5812:6971   */\n    tag_39:\n        /* \"#utility.yul\":5919:5925   */\n      0x00\n        /* \"#utility.yul\":5927:5933   */\n      dup1\n        /* \"#utility.yul\":5935:5941   */\n      0x00\n        /* \"#utility.yul\":5984:5986   */\n      0x60\n        /* \"#utility.yul\":5972:5981   */\n      dup5\n        /* \"#utility.yul\":5963:5970   */\n      dup7\n        /* \"#utility.yul\":5959:5982   */\n      sub\n        /* \"#utility.yul\":5955:5987   */\n      slt\n        /* \"#utility.yul\":5952:6071   */\n      iszero\n      tag_230\n      jumpi\n        /* \"#utility.yul\":5990:6069   */\n      tag_231\n      tag_112\n      jump\t// in\n    tag_231:\n        /* \"#utility.yul\":5952:6071   */\n    tag_230:\n        /* \"#utility.yul\":6138:6139   */\n      0x00\n        /* \"#utility.yul\":6127:6136   */\n      dup5\n        /* \"#utility.yul\":6123:6140   */\n      add\n        /* \"#utility.yul\":6110:6141   */\n      calldataload\n        /* \"#utility.yul\":6168:6186   */\n      0xffffffffffffffff\n        /* \"#utility.yul\":6160:6166   */\n      dup2\n        /* \"#utility.yul\":6157:6187   */\n      gt\n        /* \"#utility.yul\":6154:6271   */\n      iszero\n      tag_232\n      jumpi\n        /* \"#utility.yul\":6190:6269   */\n      tag_233\n      tag_113\n      jump\t// in\n    tag_233:\n        /* \"#utility.yul\":6154:6271   */\n    tag_232:\n        /* \"#utility.yul\":6295:6358   */\n      tag_234\n        /* \"#utility.yul\":6350:6357   */\n      dup7\n        /* \"#utility.yul\":6341:6347   */\n      dup3\n        /* \"#utility.yul\":6330:6339   */\n      dup8\n        /* \"#utility.yul\":6326:6348   */\n      add\n        /* \"#utility.yul\":6295:6358   */\n      tag_134\n      jump\t// in\n    tag_234:\n        /* \"#utility.yul\":6285:6358   */\n      swap4\n      pop\n        /* \"#utility.yul\":6081:6368   */\n      pop\n        /* \"#utility.yul\":6435:6437   */\n      0x20\n        /* \"#utility.yul\":6424:6433   */\n      dup5\n        /* \"#utility.yul\":6420:6438   */\n      add\n        /* \"#utility.yul\":6407:6439   */\n      calldataload\n        /* \"#utility.yul\":6466:6484   */\n      0xffffffffffffffff\n        /* \"#utility.yul\":6458:6464   */\n      dup2\n        /* \"#utility.yul\":6455:6485   */\n      gt\n        /* \"#utility.yul\":6452:6569   */\n      iszero\n      tag_235\n      jumpi\n        /* \"#utility.yul\":6488:6567   */\n      tag_236\n      tag_113\n      jump\t// in\n    tag_236:\n        /* \"#utility.yul\":6452:6569   */\n    tag_235:\n        /* \"#utility.yul\":6593:6656   */\n      tag_237\n        /* \"#utility.yul\":6648:6655   */\n      dup7\n        /* \"#utility.yul\":6639:6645   */\n      dup3\n        /* \"#utility.yul\":6628:6637   */\n      dup8\n        /* \"#utility.yul\":6624:6646   */\n      add\n        /* \"#utility.yul\":6593:6656   */\n      tag_134\n      jump\t// in\n    tag_237:\n        /* \"#utility.yul\":6583:6656   */\n      swap3\n      pop\n        /* \"#utility.yul\":6378:6666   */\n      pop\n        /* \"#utility.yul\":6733:6735   */\n      0x40\n        /* \"#utility.yul\":6722:6731   */\n      dup5\n        /* \"#utility.yul\":6718:6736   */\n      add\n        /* \"#utility.yul\":6705:6737   */\n      calldataload\n        /* \"#utility.yul\":6764:6782   */\n      0xffffffffffffffff\n        /* \"#utility.yul\":6756:6762   */\n      dup2\n        /* \"#utility.yul\":6753:6783   */\n      gt\n        /* \"#utility.yul\":6750:6867   */\n      iszero\n      tag_238\n      jumpi\n        /* \"#utility.yul\":6786:6865   */\n      tag_239\n      tag_113\n      jump\t// in\n    tag_239:\n        /* \"#utility.yul\":6750:6867   */\n    tag_238:\n        /* \"#utility.yul\":6891:6954   */\n      tag_240\n        /* \"#utility.yul\":6946:6953   */\n      dup7\n        /* \"#utility.yul\":6937:6943   */\n      dup3\n        /* \"#utility.yul\":6926:6935   */\n      dup8\n        /* \"#utility.yul\":6922:6944   */\n      add\n        /* \"#utility.yul\":6891:6954   */\n      tag_134\n      jump\t// in\n    tag_240:\n        /* \"#utility.yul\":6881:6954   */\n      swap2\n      pop\n        /* \"#utility.yul\":6676:6964   */\n      pop\n        /* \"#utility.yul\":5812:6971   */\n      swap3\n      pop\n      swap3\n      pop\n      swap3\n      jump\t// out\n        /* \"#utility.yul\":6977:8001   */\n    tag_48:\n        /* \"#utility.yul\":7258:7262   */\n      0x00\n        /* \"#utility.yul\":7296:7299   */\n      0xc0\n        /* \"#utility.yul\":7285:7294   */\n      dup3\n        /* \"#utility.yul\":7281:7300   */\n      add\n        /* \"#utility.yul\":7273:7300   */\n      swap1\n      pop\n        /* \"#utility.yul\":7346:7355   */\n      dup2\n        /* \"#utility.yul\":7340:7344   */\n      dup2\n        /* \"#utility.yul\":7336:7356   */\n      sub\n        /* \"#utility.yul\":7332:7333   */\n      0x00\n        /* \"#utility.yul\":7321:7330   */\n      dup4\n        /* \"#utility.yul\":7317:7334   */\n      add\n        /* \"#utility.yul\":7310:7357   */\n      mstore\n        /* \"#utility.yul\":7374:7452   */\n      tag_242\n        /* \"#utility.yul\":7447:7451   */\n      dup2\n        /* \"#utility.yul\":7438:7444   */\n      dup10\n        /* \"#utility.yul\":7374:7452   */\n      tag_122\n      jump\t// in\n    tag_242:\n        /* \"#utility.yul\":7366:7452   */\n      swap1\n      pop\n        /* \"#utility.yul\":7499:7508   */\n      dup2\n        /* \"#utility.yul\":7493:7497   */\n      dup2\n        /* \"#utility.yul\":7489:7509   */\n      sub\n        /* \"#utility.yul\":7484:7486   */\n      0x20\n        /* \"#utility.yul\":7473:7482   */\n      dup4\n        /* \"#utility.yul\":7469:7487   */\n      add\n        /* \"#utility.yul\":7462:7510   */\n      mstore\n        /* \"#utility.yul\":7527:7605   */\n      tag_243\n        /* \"#utility.yul\":7600:7604   */\n      dup2\n        /* \"#utility.yul\":7591:7597   */\n      dup9\n        /* \"#utility.yul\":7527:7605   */\n      tag_122\n      jump\t// in\n    tag_243:\n        /* \"#utility.yul\":7519:7605   */\n      swap1\n      pop\n        /* \"#utility.yul\":7652:7661   */\n      dup2\n        /* \"#utility.yul\":7646:7650   */\n      dup2\n        /* \"#utility.yul\":7642:7662   */\n      sub\n        /* \"#utility.yul\":7637:7639   */\n      0x40\n        /* \"#utility.yul\":7626:7635   */\n      dup4\n        /* \"#utility.yul\":7622:7640   */\n      add\n        /* \"#utility.yul\":7615:7663   */\n      mstore\n        /* \"#utility.yul\":7680:7758   */\n      tag_244\n        /* \"#utility.yul\":7753:7757   */\n      dup2\n        /* \"#utility.yul\":7744:7750   */\n      dup8\n        /* \"#utility.yul\":7680:7758   */\n      tag_122\n      jump\t// in\n    tag_244:\n        /* \"#utility.yul\":7672:7758   */\n      swap1\n      pop\n        /* \"#utility.yul\":7768:7834   */\n      tag_245\n        /* \"#utility.yul\":7830:7832   */\n      0x60\n        /* \"#utility.yul\":7819:7828   */\n      dup4\n        /* \"#utility.yul\":7815:7833   */\n      add\n        /* \"#utility.yul\":7806:7812   */\n      dup7\n        /* \"#utility.yul\":7768:7834   */\n      tag_124\n      jump\t// in\n    tag_245:\n        /* \"#utility.yul\":7844:7911   */\n      tag_246\n        /* \"#utility.yul\":7906:7909   */\n      0x80\n        /* \"#utility.yul\":7895:7904   */\n      dup4\n        /* \"#utility.yul\":7891:7910   */\n      add\n        /* \"#utility.yul\":7882:7888   */\n      dup6\n        /* \"#utility.yul\":7844:7911   */\n      tag_124\n      jump\t// in\n    tag_246:\n        /* \"#utility.yul\":7921:7994   */\n      tag_247\n        /* \"#utility.yul\":7989:7992   */\n      0xa0\n        /* \"#utility.yul\":7978:7987   */\n      dup4\n        /* \"#utility.yul\":7974:7993   */\n      add\n        /* \"#utility.yul\":7965:7971   */\n      dup5\n        /* \"#utility.yul\":7921:7994   */\n      tag_125\n      jump\t// in\n    tag_247:\n        /* \"#utility.yul\":6977:8001   */\n      swap8\n      swap7\n      pop\n      pop\n      pop\n      pop\n      pop\n      pop\n      pop\n      jump\t// out\n        /* \"#utility.yul\":8007:8243   */\n    tag_135:\n        /* \"#utility.yul\":8147:8181   */\n      0x4f6e6c7920617574686f72697a6564207665726966696572732063616e207065\n        /* \"#utility.yul\":8143:8144   */\n      0x00\n        /* \"#utility.yul\":8135:8141   */\n      dup3\n        /* \"#utility.yul\":8131:8145   */\n      add\n        /* \"#utility.yul\":8124:8182   */\n      mstore\n        /* \"#utility.yul\":8216:8235   */\n      0x72666f726d207468697320616374696f6e000000000000000000000000000000\n        /* \"#utility.yul\":8211:8213   */\n      0x20\n        /* \"#utility.yul\":8203:8209   */\n      dup3\n        /* \"#utility.yul\":8199:8214   */\n      add\n        /* \"#utility.yul\":8192:8236   */\n      mstore\n        /* \"#utility.yul\":8007:8243   */\n      pop\n      jump\t// out\n        /* \"#utility.yul\":8249:8615   */\n    tag_136:\n        /* \"#utility.yul\":8391:8394   */\n      0x00\n        /* \"#utility.yul\":8412:8479   */\n      tag_250\n        /* \"#utility.yul\":8476:8478   */\n      0x31\n        /* \"#utility.yul\":8471:8474   */\n      dup4\n        /* \"#utility.yul\":8412:8479   */\n      tag_119\n      jump\t// in\n    tag_250:\n        /* \"#utility.yul\":8405:8479   */\n      swap2\n      pop\n        /* \"#utility.yul\":8488:8581   */\n      tag_251\n        /* \"#utility.yul\":8577:8580   */\n      dup3\n        /* \"#utility.yul\":8488:8581   */\n      tag_135\n      jump\t// in\n    tag_251:\n        /* \"#utility.yul\":8606:8608   */\n      0x40\n        /* \"#utility.yul\":8601:8604   */\n      dup3\n        /* \"#utility.yul\":8597:8609   */\n      add\n        /* \"#utility.yul\":8590:8609   */\n      swap1\n      pop\n        /* \"#utility.yul\":8249:8615   */\n      swap2\n      swap1\n      pop\n      jump\t// out\n        /* \"#utility.yul\":8621:9040   */\n    tag_52:\n        /* \"#utility.yul\":8787:8791   */\n      0x00\n        /* \"#utility.yul\":8825:8827   */\n      0x20\n        /* \"#utility.yul\":8814:8823   */\n      dup3\n        /* \"#utility.yul\":8810:8828   */\n      add\n        /* \"#utility.yul\":8802:8828   */\n      swap1\n      pop\n        /* \"#utility.yul\":8874:8883   */\n      dup2\n        /* \"#utility.yul\":8868:8872   */\n      dup2\n        /* \"#utility.yul\":8864:8884   */\n      sub\n        /* \"#utility.yul\":8860:8861   */\n      0x00\n        /* \"#utility.yul\":8849:8858   */\n      dup4\n        /* \"#utility.yul\":8845:8862   */\n      add\n        /* \"#utility.yul\":8838:8885   */\n      mstore\n        /* \"#utility.yul\":8902:9033   */\n      tag_253\n        /* \"#utility.yul\":9028:9032   */\n      dup2\n        /* \"#utility.yul\":8902:9033   */\n      tag_136\n      jump\t// in\n    tag_253:\n        /* \"#utility.yul\":8894:9033   */\n      swap1\n      pop\n        /* \"#utility.yul\":8621:9040   */\n      swap2\n      swap1\n      pop\n      jump\t// out\n        /* \"#utility.yul\":9046:9226   */\n    tag_137:\n        /* \"#utility.yul\":9094:9171   */\n      0x4e487b7100000000000000000000000000000000000000000000000000000000\n        /* \"#utility.yul\":9091:9092   */\n      0x00\n        /* \"#utility.yul\":9084:9172   */\n      mstore\n        /* \"#utility.yul\":9191:9195   */\n      0x22\n        /* \"#utility.yul\":9188:9189   */\n      0x04\n        /* \"#utility.yul\":9181:9196   */\n      mstore\n        /* \"#utility.yul\":9215:9219   */\n      0x24\n        /* \"#utility.yul\":9212:9213   */\n      0x00\n        /* \"#utility.yul\":9205:9220   */\n      revert\n        /* \"#utility.yul\":9232:9552   */\n    tag_56:\n        /* \"#utility.yul\":9276:9282   */\n      0x00\n        /* \"#utility.yul\":9313:9314   */\n      0x02\n        /* \"#utility.yul\":9307:9311   */\n      dup3\n        /* \"#utility.yul\":9303:9315   */\n      div\n        /* \"#utility.yul\":9293:9315   */\n      swap1\n      pop\n        /* \"#utility.yul\":9360:9361   */\n      0x01\n        /* \"#utility.yul\":9354:9358   */\n      dup3\n        /* \"#utility.yul\":9350:9362   */\n      and\n        /* \"#utility.yul\":9381:9399   */\n      dup1\n        /* \"#utility.yul\":9371:9452   */\n      tag_256\n      jumpi\n        /* \"#utility.yul\":9437:9441   */\n      0x7f\n        /* \"#utility.yul\":9429:9435   */\n      dup3\n        /* \"#utility.yul\":9425:9442   */\n      and\n        /* \"#utility.yul\":9415:9442   */\n      swap2\n      pop\n        /* \"#utility.yul\":9371:9452   */\n    tag_256:\n        /* \"#utility.yul\":9499:9501   */\n      0x20\n        /* \"#utility.yul\":9491:9497   */\n      dup3\n        /* \"#utility.yul\":9488:9502   */\n      lt\n        /* \"#utility.yul\":9468:9486   */\n      dup2\n        /* \"#utility.yul\":9465:9503   */\n      sub\n        /* \"#utility.yul\":9462:9546   */\n      tag_257\n      jumpi\n        /* \"#utility.yul\":9518:9536   */\n      tag_258\n      tag_137\n      jump\t// in\n    tag_258:\n        /* \"#utility.yul\":9462:9546   */\n    tag_257:\n        /* \"#utility.yul\":9283:9552   */\n      pop\n        /* \"#utility.yul\":9232:9552   */\n      swap2\n      swap1\n      pop\n      jump\t// out\n        /* \"#utility.yul\":9558:9792   */\n    tag_138:\n        /* \"#utility.yul\":9698:9732   */\n      0x4f6e6c792074686520636f6e7472616374206f776e65722063616e2070657266\n        /* \"#utility.yul\":9694:9695   */\n      0x00\n        /* \"#utility.yul\":9686:9692   */\n      dup3\n        /* \"#utility.yul\":9682:9696   */\n      add\n        /* \"#utility.yul\":9675:9733   */\n      mstore\n        /* \"#utility.yul\":9767:9784   */\n      0x6f726d207468697320616374696f6e0000000000000000000000000000000000\n        /* \"#utility.yul\":9762:9764   */\n      0x20\n        /* \"#utility.yul\":9754:9760   */\n      dup3\n        /* \"#utility.yul\":9750:9765   */\n      add\n        /* \"#utility.yul\":9743:9785   */\n      mstore\n        /* \"#utility.yul\":9558:9792   */\n      pop\n      jump\t// out\n        /* \"#utility.yul\":9798:10164   */\n    tag_139:\n        /* \"#utility.yul\":9940:9943   */\n      0x00\n        /* \"#utility.yul\":9961:10028   */\n      tag_261\n        /* \"#utility.yul\":10025:10027   */\n      0x2f\n        /* \"#utility.yul\":10020:10023   */\n      dup4\n        /* \"#utility.yul\":9961:10028   */\n      tag_119\n      jump\t// in\n    tag_261:\n        /* \"#utility.yul\":9954:10028   */\n      swap2\n      pop\n        /* \"#utility.yul\":10037:10130   */\n      tag_262\n        /* \"#utility.yul\":10126:10129   */\n      dup3\n        /* \"#utility.yul\":10037:10130   */\n      tag_138\n      jump\t// in\n    tag_262:\n        /* \"#utility.yul\":10155:10157   */\n      0x40\n        /* \"#utility.yul\":10150:10153   */\n      dup3\n        /* \"#utility.yul\":10146:10158   */\n      add\n        /* \"#utility.yul\":10139:10158   */\n      swap1\n      pop\n        /* \"#utility.yul\":9798:10164   */\n      swap2\n      swap1\n      pop\n      jump\t// out\n        /* \"#utility.yul\":10170:10589   */\n    tag_69:\n        /* \"#utility.yul\":10336:10340   */\n      0x00\n        /* \"#utility.yul\":10374:10376   */\n      0x20\n        /* \"#utility.yul\":10363:10372   */\n      dup3\n        /* \"#utility.yul\":10359:10377   */\n      add\n        /* \"#utility.yul\":10351:10377   */\n      swap1\n      pop\n        /* \"#utility.yul\":10423:10432   */\n      dup2\n        /* \"#utility.yul\":10417:10421   */\n      dup2\n        /* \"#utility.yul\":10413:10433   */\n      sub\n        /* \"#utility.yul\":10409:10410   */\n      0x00\n        /* \"#utility.yul\":10398:10407   */\n      dup4\n        /* \"#utility.yul\":10394:10411   */\n      add\n        /* \"#utility.yul\":10387:10434   */\n      mstore\n        /* \"#utility.yul\":10451:10582   */\n      tag_264\n        /* \"#utility.yul\":10577:10581   */\n      dup2\n        /* \"#utility.yul\":10451:10582   */\n      tag_139\n      jump\t// in\n    tag_264:\n        /* \"#utility.yul\":10443:10582   */\n      swap1\n      pop\n        /* \"#utility.yul\":10170:10589   */\n      swap2\n      swap1\n      pop\n      jump\t// out\n        /* \"#utility.yul\":10595:10770   */\n    tag_140:\n        /* \"#utility.yul\":10735:10762   */\n      0x4964656e7469747920686173206265656e207265766f6b656400000000000000\n        /* \"#utility.yul\":10731:10732   */\n      0x00\n        /* \"#utility.yul\":10723:10729   */\n      dup3\n        /* \"#utility.yul\":10719:10733   */\n      add\n        /* \"#utility.yul\":10712:10763   */\n      mstore\n        /* \"#utility.yul\":10595:10770   */\n      pop\n      jump\t// out\n        /* \"#utility.yul\":10776:11142   */\n    tag_141:\n        /* \"#utility.yul\":10918:10921   */\n      0x00\n        /* \"#utility.yul\":10939:11006   */\n      tag_267\n        /* \"#utility.yul\":11003:11005   */\n      0x19\n        /* \"#utility.yul\":10998:11001   */\n      dup4\n        /* \"#utility.yul\":10939:11006   */\n      tag_119\n      jump\t// in\n    tag_267:\n        /* \"#utility.yul\":10932:11006   */\n      swap2\n      pop\n        /* \"#utility.yul\":11015:11108   */\n      tag_268\n        /* \"#utility.yul\":11104:11107   */\n      dup3\n        /* \"#utility.yul\":11015:11108   */\n      tag_140\n      jump\t// in\n    tag_268:\n        /* \"#utility.yul\":11133:11135   */\n      0x20\n        /* \"#utility.yul\":11128:11131   */\n      dup3\n        /* \"#utility.yul\":11124:11136   */\n      add\n        /* \"#utility.yul\":11117:11136   */\n      swap1\n      pop\n        /* \"#utility.yul\":10776:11142   */\n      swap2\n      swap1\n      pop\n      jump\t// out\n        /* \"#utility.yul\":11148:11567   */\n    tag_77:\n        /* \"#utility.yul\":11314:11318   */\n      0x00\n        /* \"#utility.yul\":11352:11354   */\n      0x20\n        /* \"#utility.yul\":11341:11350   */\n      dup3\n        /* \"#utility.yul\":11337:11355   */\n      add\n        /* \"#utility.yul\":11329:11355   */\n      swap1\n      pop\n        /* \"#utility.yul\":11401:11410   */\n      dup2\n        /* \"#utility.yul\":11395:11399   */\n      dup2\n        /* \"#utility.yul\":11391:11411   */\n      sub\n        /* \"#utility.yul\":11387:11388   */\n      0x00\n        /* \"#utility.yul\":11376:11385   */\n      dup4\n        /* \"#utility.yul\":11372:11389   */\n      add\n        /* \"#utility.yul\":11365:11412   */\n      mstore\n        /* \"#utility.yul\":11429:11560   */\n      tag_270\n        /* \"#utility.yul\":11555:11559   */\n      dup2\n        /* \"#utility.yul\":11429:11560   */\n      tag_141\n      jump\t// in\n    tag_270:\n        /* \"#utility.yul\":11421:11560   */\n      swap1\n      pop\n        /* \"#utility.yul\":11148:11567   */\n      swap2\n      swap1\n      pop\n      jump\t// out\n        /* \"#utility.yul\":11573:11721   */\n    tag_142:\n        /* \"#utility.yul\":11675:11686   */\n      0x00\n        /* \"#utility.yul\":11712:11715   */\n      dup2\n        /* \"#utility.yul\":11697:11715   */\n      swap1\n      pop\n        /* \"#utility.yul\":11573:11721   */\n      swap3\n      swap2\n      pop\n      pop\n      jump\t// out\n        /* \"#utility.yul\":11727:11841   */\n    tag_143:\n      pop\n      jump\t// out\n        /* \"#utility.yul\":11847:12247   */\n    tag_144:\n        /* \"#utility.yul\":12007:12010   */\n      0x00\n        /* \"#utility.yul\":12028:12112   */\n      tag_274\n        /* \"#utility.yul\":12110:12111   */\n      0x00\n        /* \"#utility.yul\":12105:12108   */\n      dup4\n        /* \"#utility.yul\":12028:12112   */\n      tag_142\n      jump\t// in\n    tag_274:\n        /* \"#utility.yul\":12021:12112   */\n      swap2\n      pop\n        /* \"#utility.yul\":12121:12214   */\n      tag_275\n        /* \"#utility.yul\":12210:12213   */\n      dup3\n        /* \"#utility.yul\":12121:12214   */\n      tag_143\n      jump\t// in\n    tag_275:\n        /* \"#utility.yul\":12239:12240   */\n      0x00\n        /* \"#utility.yul\":12234:12237   */\n      dup3\n        /* \"#utility.yul\":12230:12241   */\n      add\n        /* \"#utility.yul\":12223:12241   */\n      swap1\n      pop\n        /* \"#utility.yul\":11847:12247   */\n      swap2\n      swap1\n      pop\n      jump\t// out\n        /* \"#utility.yul\":12253:12634   */\n    tag_80:\n        /* \"#utility.yul\":12438:12441   */\n      0x00\n        /* \"#utility.yul\":12460:12608   */\n      tag_277\n        /* \"#utility.yul\":12604:12607   */\n      dup3\n        /* \"#utility.yul\":12460:12608   */\n      tag_144\n      jump\t// in\n    tag_277:\n        /* \"#utility.yul\":12453:12608   */\n      swap2\n      pop\n        /* \"#utility.yul\":12625:12628   */\n      dup2\n        /* \"#utility.yul\":12618:12628   */\n      swap1\n      pop\n        /* \"#utility.yul\":12253:12634   */\n      swap2\n      swap1\n      pop\n      jump\t// out\n        /* \"#utility.yul\":12640:12781   */\n    tag_145:\n        /* \"#utility.yul\":12689:12693   */\n      0x00\n        /* \"#utility.yul\":12712:12715   */\n      dup2\n        /* \"#utility.yul\":12704:12715   */\n      swap1\n      pop\n        /* \"#utility.yul\":12735:12738   */\n      dup2\n        /* \"#utility.yul\":12732:12733   */\n      0x00\n        /* \"#utility.yul\":12725:12739   */\n      mstore\n        /* \"#utility.yul\":12769:12773   */\n      0x20\n        /* \"#utility.yul\":12766:12767   */\n      0x00\n        /* \"#utility.yul\":12756:12774   */\n      keccak256\n        /* \"#utility.yul\":12748:12774   */\n      swap1\n      pop\n        /* \"#utility.yul\":12640:12781   */\n      swap2\n      swap1\n      pop\n      jump\t// out\n        /* \"#utility.yul\":12811:13685   */\n    tag_146:\n        /* \"#utility.yul\":12914:12917   */\n      0x00\n        /* \"#utility.yul\":12951:12956   */\n      dup2\n        /* \"#utility.yul\":12945:12957   */\n      sload\n        /* \"#utility.yul\":12980:13016   */\n      tag_280\n        /* \"#utility.yul\":13006:13015   */\n      dup2\n        /* \"#utility.yul\":12980:13016   */\n      tag_56\n      jump\t// in\n    tag_280:\n        /* \"#utility.yul\":13032:13121   */\n      tag_281\n        /* \"#utility.yul\":13114:13120   */\n      dup2\n        /* \"#utility.yul\":13109:13112   */\n      dup7\n        /* \"#utility.yul\":13032:13121   */\n      tag_142\n      jump\t// in\n    tag_281:\n        /* \"#utility.yul\":13025:13121   */\n      swap5\n      pop\n        /* \"#utility.yul\":13152:13153   */\n      0x01\n        /* \"#utility.yul\":13141:13150   */\n      dup3\n        /* \"#utility.yul\":13137:13154   */\n      and\n        /* \"#utility.yul\":13168:13169   */\n      0x00\n        /* \"#utility.yul\":13163:13329   */\n      dup2\n      eq\n      tag_283\n      jumpi\n        /* \"#utility.yul\":13343:13344   */\n      0x01\n        /* \"#utility.yul\":13338:13679   */\n      dup2\n      eq\n      tag_284\n      jumpi\n        /* \"#utility.yul\":13130:13679   */\n      jump(tag_282)\n        /* \"#utility.yul\":13163:13329   */\n    tag_283:\n        /* \"#utility.yul\":13247:13251   */\n      0xff\n        /* \"#utility.yul\":13243:13252   */\n      not\n        /* \"#utility.yul\":13232:13241   */\n      dup4\n        /* \"#utility.yul\":13228:13253   */\n      and\n        /* \"#utility.yul\":13223:13226   */\n      dup7\n        /* \"#utility.yul\":13216:13254   */\n      mstore\n        /* \"#utility.yul\":13309:13315   */\n      dup2\n        /* \"#utility.yul\":13302:13316   */\n      iszero\n        /* \"#utility.yul\":13295:13317   */\n      iszero\n        /* \"#utility.yul\":13287:13293   */\n      dup3\n        /* \"#utility.yul\":13283:13318   */\n      mul\n        /* \"#utility.yul\":13278:13281   */\n      dup7\n        /* \"#utility.yul\":13274:13319   */\n      add\n        /* \"#utility.yul\":13267:13319   */\n      swap4\n      pop\n        /* \"#utility.yul\":13163:13329   */\n      jump(tag_282)\n        /* \"#utility.yul\":13338:13679   */\n    tag_284:\n        /* \"#utility.yul\":13405:13443   */\n      tag_285\n        /* \"#utility.yul\":13437:13442   */\n      dup6\n        /* \"#utility.yul\":13405:13443   */\n      tag_145\n      jump\t// in\n    tag_285:\n        /* \"#utility.yul\":13465:13466   */\n      0x00\n        /* \"#utility.yul\":13479:13633   */\n    tag_286:\n        /* \"#utility.yul\":13493:13499   */\n      dup4\n        /* \"#utility.yul\":13490:13491   */\n      dup2\n        /* \"#utility.yul\":13487:13500   */\n      lt\n        /* \"#utility.yul\":13479:13633   */\n      iszero\n      tag_288\n      jumpi\n        /* \"#utility.yul\":13567:13574   */\n      dup2\n        /* \"#utility.yul\":13561:13575   */\n      sload\n        /* \"#utility.yul\":13557:13558   */\n      dup2\n        /* \"#utility.yul\":13552:13555   */\n      dup10\n        /* \"#utility.yul\":13548:13559   */\n      add\n        /* \"#utility.yul\":13541:13576   */\n      mstore\n        /* \"#utility.yul\":13617:13618   */\n      0x01\n        /* \"#utility.yul\":13608:13615   */\n      dup3\n        /* \"#utility.yul\":13604:13619   */\n      add\n        /* \"#utility.yul\":13593:13619   */\n      swap2\n      pop\n        /* \"#utility.yul\":13515:13519   */\n      0x20\n        /* \"#utility.yul\":13512:13513   */\n      dup2\n        /* \"#utility.yul\":13508:13520   */\n      add\n        /* \"#utility.yul\":13503:13520   */\n      swap1\n      pop\n        /* \"#utility.yul\":13479:13633   */\n      jump(tag_286)\n    tag_288:\n        /* \"#utility.yul\":13662:13668   */\n      dup4\n        /* \"#utility.yul\":13657:13660   */\n      dup9\n        /* \"#utility.yul\":13653:13669   */\n      add\n        /* \"#utility.yul\":13646:13669   */\n      swap6\n      pop\n        /* \"#utility.yul\":13345:13679   */\n      pop\n      pop\n        /* \"#utility.yul\":13130:13679   */\n    tag_282:\n      pop\n        /* \"#utility.yul\":12918:13685   */\n      pop\n      pop\n        /* \"#utility.yul\":12811:13685   */\n      swap3\n      swap2\n      pop\n      pop\n      jump\t// out\n        /* \"#utility.yul\":13691:13960   */\n    tag_82:\n        /* \"#utility.yul\":13820:13823   */\n      0x00\n        /* \"#utility.yul\":13842:13934   */\n      tag_290\n        /* \"#utility.yul\":13930:13933   */\n      dup3\n        /* \"#utility.yul\":13921:13927   */\n      dup5\n        /* \"#utility.yul\":13842:13934   */\n      tag_146\n      jump\t// in\n    tag_290:\n        /* \"#utility.yul\":13835:13934   */\n      swap2\n      pop\n        /* \"#utility.yul\":13951:13954   */\n      dup2\n        /* \"#utility.yul\":13944:13954   */\n      swap1\n      pop\n        /* \"#utility.yul\":13691:13960   */\n      swap3\n      swap2\n      pop\n      pop\n      jump\t// out\n        /* \"#utility.yul\":13966:14143   */\n    tag_147:\n        /* \"#utility.yul\":14106:14135   */\n      0x4964656e7469747920616c726561647920726567697374657265640000000000\n        /* \"#utility.yul\":14102:14103   */\n      0x00\n        /* \"#utility.yul\":14094:14100   */\n      dup3\n        /* \"#utility.yul\":14090:14104   */\n      add\n        /* \"#utility.yul\":14083:14136   */\n      mstore\n        /* \"#utility.yul\":13966:14143   */\n      pop\n      jump\t// out\n        /* \"#utility.yul\":14149:14515   */\n    tag_148:\n        /* \"#utility.yul\":14291:14294   */\n      0x00\n        /* \"#utility.yul\":14312:14379   */\n      tag_293\n        /* \"#utility.yul\":14376:14378   */\n      0x1b\n        /* \"#utility.yul\":14371:14374   */\n      dup4\n        /* \"#utility.yul\":14312:14379   */\n      tag_119\n      jump\t// in\n    tag_293:\n        /* \"#utility.yul\":14305:14379   */\n      swap2\n      pop\n        /* \"#utility.yul\":14388:14481   */\n      tag_294\n        /* \"#utility.yul\":14477:14480   */\n      dup3\n        /* \"#utility.yul\":14388:14481   */\n      tag_147\n      jump\t// in\n    tag_294:\n        /* \"#utility.yul\":14506:14508   */\n      0x20\n        /* \"#utility.yul\":14501:14504   */\n      dup3\n        /* \"#utility.yul\":14497:14509   */\n      add\n        /* \"#utility.yul\":14490:14509   */\n      swap1\n      pop\n        /* \"#utility.yul\":14149:14515   */\n      swap2\n      swap1\n      pop\n      jump\t// out\n        /* \"#utility.yul\":14521:14940   */\n    tag_85:\n        /* \"#utility.yul\":14687:14691   */\n      0x00\n        /* \"#utility.yul\":14725:14727   */\n      0x20\n        /* \"#utility.yul\":14714:14723   */\n      dup3\n        /* \"#utility.yul\":14710:14728   */\n      add\n        /* \"#utility.yul\":14702:14728   */\n      swap1\n      pop\n        /* \"#utility.yul\":14774:14783   */\n      dup2\n        /* \"#utility.yul\":14768:14772   */\n      dup2\n        /* \"#utility.yul\":14764:14784   */\n      sub\n        /* \"#utility.yul\":14760:14761   */\n      0x00\n        /* \"#utility.yul\":14749:14758   */\n      dup4\n        /* \"#utility.yul\":14745:14762   */\n      add\n        /* \"#utility.yul\":14738:14785   */\n      mstore\n        /* \"#utility.yul\":14802:14933   */\n      tag_296\n        /* \"#utility.yul\":14928:14932   */\n      dup2\n        /* \"#utility.yul\":14802:14933   */\n      tag_148\n      jump\t// in\n    tag_296:\n        /* \"#utility.yul\":14794:14933   */\n      swap1\n      pop\n        /* \"#utility.yul\":14521:14940   */\n      swap2\n      swap1\n      pop\n      jump\t// out\n        /* \"#utility.yul\":14946:15039   */\n    tag_149:\n        /* \"#utility.yul\":14983:14989   */\n      0x00\n        /* \"#utility.yul\":15030:15032   */\n      0x20\n        /* \"#utility.yul\":15025:15027   */\n      0x1f\n        /* \"#utility.yul\":15018:15023   */\n      dup4\n        /* \"#utility.yul\":15014:15028   */\n      add\n        /* \"#utility.yul\":15010:15033   */\n      div\n        /* \"#utility.yul\":15000:15033   */\n      swap1\n      pop\n        /* \"#utility.yul\":14946:15039   */\n      swap2\n      swap1\n      pop\n      jump\t// out\n        /* \"#utility.yul\":15045:15152   */\n    tag_150:\n        /* \"#utility.yul\":15089:15097   */\n      0x00\n        /* \"#utility.yul\":15139:15144   */\n      dup3\n        /* \"#utility.yul\":15133:15137   */\n      dup3\n        /* \"#utility.yul\":15129:15145   */\n      shl\n        /* \"#utility.yul\":15108:15145   */\n      swap1\n      pop\n        /* \"#utility.yul\":15045:15152   */\n      swap3\n      swap2\n      pop\n      pop\n      jump\t// out\n        /* \"#utility.yul\":15158:15551   */\n    tag_151:\n        /* \"#utility.yul\":15227:15233   */\n      0x00\n        /* \"#utility.yul\":15277:15278   */\n      0x08\n        /* \"#utility.yul\":15265:15275   */\n      dup4\n        /* \"#utility.yul\":15261:15279   */\n      mul\n        /* \"#utility.yul\":15300:15397   */\n      tag_300\n        /* \"#utility.yul\":15330:15396   */\n      0xffffffffffffffffffffffffffffffffffffffffffffffffffffffffffffffff\n        /* \"#utility.yul\":15319:15328   */\n      dup3\n        /* \"#utility.yul\":15300:15397   */\n      tag_150\n      jump\t// in\n    tag_300:\n        /* \"#utility.yul\":15418:15457   */\n      tag_301\n        /* \"#utility.yul\":15448:15456   */\n      dup7\n        /* \"#utility.yul\":15437:15446   */\n      dup4\n        /* \"#utility.yul\":15418:15457   */\n      tag_150\n      jump\t// in\n    tag_301:\n        /* \"#utility.yul\":15406:15457   */\n      swap6\n      pop\n        /* \"#utility.yul\":15490:15494   */\n      dup1\n        /* \"#utility.yul\":15486:15495   */\n      not\n        /* \"#utility.yul\":15479:15484   */\n      dup5\n        /* \"#utility.yul\":15475:15496   */\n      and\n        /* \"#utility.yul\":15466:15496   */\n      swap4\n      pop\n        /* \"#utility.yul\":15539:15543   */\n      dup1\n        /* \"#utility.yul\":15529:15537   */\n      dup7\n        /* \"#utility.yul\":15525:15544   */\n      and\n        /* \"#utility.yul\":15518:15523   */\n      dup5\n        /* \"#utility.yul\":15515:15545   */\n      or\n        /* \"#utility.yul\":15505:15545   */\n      swap3\n      pop\n        /* \"#utility.yul\":15234:15551   */\n      pop\n      pop\n        /* \"#utility.yul\":15158:15551   */\n      swap4\n      swap3\n      pop\n      pop\n      pop\n      jump\t// out\n        /* \"#utility.yul\":15557:15634   */\n    tag_152:\n        /* \"#utility.yul\":15594:15601   */\n      0x00\n        /* \"#utility.yul\":15623:15628   */\n      dup2\n        /* \"#utility.yul\":15612:15628   */\n      swap1\n      pop\n        /* \"#utility.yul\":15557:15634   */\n      swap2\n      swap1\n      pop\n      jump\t// out\n        /* \"#utility.yul\":15640:15700   */\n    tag_153:\n        /* \"#utility.yul\":15668:15671   */\n      0x00\n        /* \"#utility.yul\":15689:15694   */\n      dup2\n        /* \"#utility.yul\":15682:15694   */\n      swap1\n      pop\n        /* \"#utility.yul\":15640:15700   */\n      swap2\n      swap1\n      pop\n      jump\t// out\n        /* \"#utility.yul\":15706:15848   */\n    tag_154:\n        /* \"#utility.yul\":15756:15765   */\n      0x00\n        /* \"#utility.yul\":15789:15842   */\n      tag_305\n        /* \"#utility.yul\":15807:15841   */\n      tag_306\n        /* \"#utility.yul\":15816:15840   */\n      tag_307\n        /* \"#utility.yul\":15834:15839   */\n      dup5\n        /* \"#utility.yul\":15816:15840   */\n      tag_152\n      jump\t// in\n    tag_307:\n        /* \"#utility.yul\":15807:15841   */\n      tag_153\n      jump\t// in\n    tag_306:\n        /* \"#utility.yul\":15789:15842   */\n      tag_152\n      jump\t// in\n    tag_305:\n        /* \"#utility.yul\":15776:15842   */\n      swap1\n      pop\n        /* \"#utility.yul\":15706:15848   */\n      swap2\n      swap1\n      pop\n      jump\t// out\n        /* \"#utility.yul\":15854:15929   */\n    tag_155:\n        /* \"#utility.yul\":15897:15900   */\n      0x00\n        /* \"#utility.yul\":15918:15923   */\n      dup2\n        /* \"#utility.yul\":15911:15923   */\n      swap1\n      pop\n        /* \"#utility.yul\":15854:15929   */\n      swap2\n      swap1\n      pop\n      jump\t// out\n        /* \"#utility.yul\":15935:16204   */\n    tag_156:\n        /* \"#utility.yul\":16045:16084   */\n      tag_310\n        /* \"#utility.yul\":16076:16083   */\n      dup4\n        /* \"#utility.yul\":16045:16084   */\n      tag_154\n      jump\t// in\n    tag_310:\n        /* \"#utility.yul\":16106:16197   */\n      tag_311\n        /* \"#utility.yul\":16155:16196   */\n      tag_312\n        /* \"#utility.yul\":16179:16195   */\n      dup3\n        /* \"#utility.yul\":16155:16196   */\n      tag_155\n      jump\t// in\n    tag_312:\n        /* \"#utility.yul\":16147:16153   */\n      dup5\n        /* \"#utility.yul\":16140:16144   */\n      dup5\n        /* \"#utility.yul\":16134:16145   */\n      sload\n        /* \"#utility.yul\":16106:16197   */\n      tag_151\n      jump\t// in\n    tag_311:\n        /* \"#utility.yul\":16100:16104   */\n      dup3\n        /* \"#utility.yul\":16093:16198   */\n      sstore\n        /* \"#utility.yul\":16011:16204   */\n      pop\n        /* \"#utility.yul\":15935:16204   */\n      pop\n      pop\n      pop\n      jump\t// out\n        /* \"#utility.yul\":16210:16283   */\n    tag_157:\n        /* \"#utility.yul\":16255:16258   */\n      0x00\n        /* \"#utility.yul\":16210:16283   */\n      swap1\n      jump\t// out\n        /* \"#utility.yul\":16289:16478   */\n    tag_158:\n        /* \"#utility.yul\":16366:16398   */\n      tag_315\n      tag_157\n      jump\t// in\n    tag_315:\n        /* \"#utility.yul\":16407:16472   */\n      tag_316\n        /* \"#utility.yul\":16465:16471   */\n      dup2\n        /* \"#utility.yul\":16457:16463   */\n      dup5\n        /* \"#utility.yul\":16451:16455   */\n      dup5\n        /* \"#utility.yul\":16407:16472   */\n      tag_156\n      jump\t// in\n    tag_316:\n        /* \"#utility.yul\":16342:16478   */\n      pop\n        /* \"#utility.yul\":16289:16478   */\n      pop\n      pop\n      jump\t// out\n        /* \"#utility.yul\":16484:16670   */\n    tag_159:\n        /* \"#utility.yul\":16544:16664   */\n    tag_318:\n        /* \"#utility.yul\":16561:16564   */\n      dup2\n        /* \"#utility.yul\":16554:16559   */\n      dup2\n        /* \"#utility.yul\":16551:16565   */\n      lt\n        /* \"#utility.yul\":16544:16664   */\n      iszero\n      tag_320\n      jumpi\n        /* \"#utility.yul\":16615:16654   */\n      tag_321\n        /* \"#utility.yul\":16652:16653   */\n      0x00\n        /* \"#utility.yul\":16645:16650   */\n      dup3\n        /* \"#utility.yul\":16615:16654   */\n      tag_158\n      jump\t// in\n    tag_321:\n        /* \"#utility.yul\":16588:16589   */\n      0x01\n        /* \"#utility.yul\":16581:16586   */\n      dup2\n        /* \"#utility.yul\":16577:16590   */\n      add\n        /* \"#utility.yul\":16568:16590   */\n      swap1\n      pop\n        /* \"#utility.yul\":16544:16664   */\n      jump(tag_318)\n    tag_320:\n        /* \"#utility.yul\":16484:16670   */\n      pop\n      pop\n      jump\t// out\n        /* \"#utility.yul\":16676:17219   */\n    tag_160:\n        /* \"#utility.yul\":16777:16779   */\n      0x1f\n        /* \"#utility.yul\":16772:16775   */\n      dup3\n        /* \"#utility.yul\":16769:16780   */\n      gt\n        /* \"#utility.yul\":16766:17212   */\n      iszero\n      tag_323\n      jumpi\n        /* \"#utility.yul\":16811:16849   */\n      tag_324\n        /* \"#utility.yul\":16843:16848   */\n      dup2\n        /* \"#utility.yul\":16811:16849   */\n      tag_145\n      jump\t// in\n    tag_324:\n        /* \"#utility.yul\":16895:16924   */\n      tag_325\n        /* \"#utility.yul\":16913:16923   */\n      dup5\n        /* \"#utility.yul\":16895:16924   */\n      tag_149\n      jump\t// in\n    tag_325:\n        /* \"#utility.yul\":16885:16893   */\n      dup2\n        /* \"#utility.yul\":16881:16925   */\n      add\n        /* \"#utility.yul\":17078:17080   */\n      0x20\n        /* \"#utility.yul\":17066:17076   */\n      dup6\n        /* \"#utility.yul\":17063:17081   */\n      lt\n        /* \"#utility.yul\":17060:17109   */\n      iszero\n      tag_326\n      jumpi\n        /* \"#utility.yul\":17099:17107   */\n      dup2\n        /* \"#utility.yul\":17084:17107   */\n      swap1\n      pop\n        /* \"#utility.yul\":17060:17109   */\n    tag_326:\n        /* \"#utility.yul\":17122:17202   */\n      tag_327\n        /* \"#utility.yul\":17178:17200   */\n      tag_328\n        /* \"#utility.yul\":17196:17199   */\n      dup6\n        /* \"#utility.yul\":17178:17200   */\n      tag_149\n      jump\t// in\n    tag_328:\n        /* \"#utility.yul\":17168:17176   */\n      dup4\n        /* \"#utility.yul\":17164:17201   */\n      add\n        /* \"#utility.yul\":17151:17162   */\n      dup3\n        /* \"#utility.yul\":17122:17202   */\n      tag_159\n      jump\t// in\n    tag_327:\n        /* \"#utility.yul\":16781:17212   */\n      pop\n      pop\n        /* \"#utility.yul\":16766:17212   */\n    tag_323:\n        /* \"#utility.yul\":16676:17219   */\n      pop\n      pop\n      pop\n      jump\t// out\n        /* \"#utility.yul\":17225:17342   */\n    tag_161:\n        /* \"#utility.yul\":17279:17287   */\n      0x00\n        /* \"#utility.yul\":17329:17334   */\n      dup3\n        /* \"#utility.yul\":17323:17327   */\n      dup3\n        /* \"#utility.yul\":17319:17335   */\n      shr\n        /* \"#utility.yul\":17298:17335   */\n      swap1\n      pop\n        /* \"#utility.yul\":17225:17342   */\n      swap3\n      swap2\n      pop\n      pop\n      jump\t// out\n        /* \"#utility.yul\":17348:17517   */\n    tag_162:\n        /* \"#utility.yul\":17392:17398   */\n      0x00\n        /* \"#utility.yul\":17425:17476   */\n      tag_331\n        /* \"#utility.yul\":17473:17474   */\n      0x00\n        /* \"#utility.yul\":17469:17475   */\n      not\n        /* \"#utility.yul\":17461:17466   */\n      dup5\n        /* \"#utility.yul\":17458:17459   */\n      0x08\n        /* \"#utility.yul\":17454:17467   */\n      mul\n        /* \"#utility.yul\":17425:17476   */\n      tag_161\n      jump\t// in\n    tag_331:\n        /* \"#utility.yul\":17421:17477   */\n      not\n        /* \"#utility.yul\":17506:17510   */\n      dup1\n        /* \"#utility.yul\":17500:17504   */\n      dup4\n        /* \"#utility.yul\":17496:17511   */\n      and\n        /* \"#utility.yul\":17486:17511   */\n      swap2\n      pop\n        /* \"#utility.yul\":17399:17517   */\n      pop\n        /* \"#utility.yul\":17348:17517   */\n      swap3\n      swap2\n      pop\n      pop\n      jump\t// out\n        /* \"#utility.yul\":17522:17817   */\n    tag_163:\n        /* \"#utility.yul\":17598:17602   */\n      0x00\n        /* \"#utility.yul\":17744:17773   */\n      tag_333\n        /* \"#utility.yul\":17769:17772   */\n      dup4\n        /* \"#utility.yul\":17763:17767   */\n      dup4\n        /* \"#utility.yul\":17744:17773   */\n      tag_162\n      jump\t// in\n    tag_333:\n        /* \"#utility.yul\":17736:17773   */\n      swap2\n      pop\n        /* \"#utility.yul\":17806:17809   */\n      dup3\n        /* \"#utility.yul\":17803:17804   */\n      0x02\n        /* \"#utility.yul\":17799:17810   */\n      mul\n        /* \"#utility.yul\":17793:17797   */\n      dup3\n        /* \"#utility.yul\":17790:17811   */\n      or\n        /* \"#utility.yul\":17782:17811   */\n      swap1\n      pop\n        /* \"#utility.yul\":17522:17817   */\n      swap3\n      swap2\n      pop\n      pop\n      jump\t// out\n        /* \"#utility.yul\":17822:19217   */\n    tag_87:\n        /* \"#utility.yul\":17939:17976   */\n      tag_335\n        /* \"#utility.yul\":17972:17975   */\n      dup3\n        /* \"#utility.yul\":17939:17976   */\n      tag_118\n      jump\t// in\n    tag_335:\n        /* \"#utility.yul\":18041:18059   */\n      0xffffffffffffffff\n        /* \"#utility.yul\":18033:18039   */\n      dup2\n        /* \"#utility.yul\":18030:18060   */\n      gt\n        /* \"#utility.yul\":18027:18083   */\n      iszero\n      tag_336\n      jumpi\n        /* \"#utility.yul\":18063:18081   */\n      tag_337\n      tag_128\n      jump\t// in\n    tag_337:\n        /* \"#utility.yul\":18027:18083   */\n    tag_336:\n        /* \"#utility.yul\":18107:18145   */\n      tag_338\n        /* \"#utility.yul\":18139:18143   */\n      dup3\n        /* \"#utility.yul\":18133:18144   */\n      sload\n        /* \"#utility.yul\":18107:18145   */\n      tag_56\n      jump\t// in\n    tag_338:\n        /* \"#utility.yul\":18192:18259   */\n      tag_339\n        /* \"#utility.yul\":18252:18258   */\n      dup3\n        /* \"#utility.yul\":18244:18250   */\n      dup3\n        /* \"#utility.yul\":18238:18242   */\n      dup6\n        /* \"#utility.yul\":18192:18259   */\n      tag_160\n      jump\t// in\n    tag_339:\n        /* \"#utility.yul\":18286:18287   */\n      0x00\n        /* \"#utility.yul\":18310:18314   */\n      0x20\n        /* \"#utility.yul\":18297:18314   */\n      swap1\n      pop\n        /* \"#utility.yul\":18342:18344   */\n      0x1f\n        /* \"#utility.yul\":18334:18340   */\n      dup4\n        /* \"#utility.yul\":18331:18345   */\n      gt\n        /* \"#utility.yul\":18359:18360   */\n      0x01\n        /* \"#utility.yul\":18354:18972   */\n      dup2\n      eq\n      tag_341\n      jumpi\n        /* \"#utility.yul\":19016:19017   */\n      0x00\n        /* \"#utility.yul\":19033:19039   */\n      dup5\n        /* \"#utility.yul\":19030:19107   */\n      iszero\n      tag_342\n      jumpi\n        /* \"#utility.yul\":19082:19091   */\n      dup3\n        /* \"#utility.yul\":19077:19080   */\n      dup8\n        /* \"#utility.yul\":19073:19092   */\n      add\n        /* \"#utility.yul\":19067:19093   */\n      mload\n        /* \"#utility.yul\":19058:19093   */\n      swap1\n      pop\n        /* \"#utility.yul\":19030:19107   */\n    tag_342:\n        /* \"#utility.yul\":19133:19200   */\n      tag_343\n        /* \"#utility.yul\":19193:19199   */\n      dup6\n        /* \"#utility.yul\":19186:19191   */\n      dup3\n        /* \"#utility.yul\":19133:19200   */\n      tag_163\n      jump\t// in\n    tag_343:\n        /* \"#utility.yul\":19127:19131   */\n      dup7\n        /* \"#utility.yul\":19120:19201   */\n      sstore\n        /* \"#utility.yul\":18989:19211   */\n      pop\n        /* \"#utility.yul\":18324:19211   */\n      jump(tag_340)\n        /* \"#utility.yul\":18354:18972   */\n    tag_341:\n        /* \"#utility.yul\":18406:18410   */\n      0x1f\n        /* \"#utility.yul\":18402:18411   */\n      not\n        /* \"#utility.yul\":18394:18400   */\n      dup5\n        /* \"#utility.yul\":18390:18412   */\n      and\n        /* \"#utility.yul\":18440:18477   */\n      tag_344\n        /* \"#utility.yul\":18472:18476   */\n      dup7\n        /* \"#utility.yul\":18440:18477   */\n      tag_145\n      jump\t// in\n    tag_344:\n        /* \"#utility.yul\":18499:18500   */\n      0x00\n        /* \"#utility.yul\":18513:18721   */\n    tag_345:\n        /* \"#utility.yul\":18527:18534   */\n      dup3\n        /* \"#utility.yul\":18524:18525   */\n      dup2\n        /* \"#utility.yul\":18521:18535   */\n      lt\n        /* \"#utility.yul\":18513:18721   */\n      iszero\n      tag_347\n      jumpi\n        /* \"#utility.yul\":18606:18615   */\n      dup5\n        /* \"#utility.yul\":18601:18604   */\n      dup10\n        /* \"#utility.yul\":18597:18616   */\n      add\n        /* \"#utility.yul\":18591:18617   */\n      mload\n        /* \"#utility.yul\":18583:18589   */\n      dup3\n        /* \"#utility.yul\":18576:18618   */\n      sstore\n        /* \"#utility.yul\":18657:18658   */\n      0x01\n        /* \"#utility.yul\":18649:18655   */\n      dup3\n        /* \"#utility.yul\":18645:18659   */\n      add\n        /* \"#utility.yul\":18635:18659   */\n      swap2\n      pop\n        /* \"#utility.yul\":18704:18706   */\n      0x20\n        /* \"#utility.yul\":18693:18702   */\n      dup6\n        /* \"#utility.yul\":18689:18707   */\n      add\n        /* \"#utility.yul\":18676:18707   */\n      swap5\n      pop\n        /* \"#utility.yul\":18550:18554   */\n      0x20\n        /* \"#utility.yul\":18547:18548   */\n      dup2\n        /* \"#utility.yul\":18543:18555   */\n      add\n        /* \"#utility.yul\":18538:18555   */\n      swap1\n      pop\n        /* \"#utility.yul\":18513:18721   */\n      jump(tag_345)\n    tag_347:\n        /* \"#utility.yul\":18749:18755   */\n      dup7\n        /* \"#utility.yul\":18740:18747   */\n      dup4\n        /* \"#utility.yul\":18737:18756   */\n      lt\n        /* \"#utility.yul\":18734:18913   */\n      iszero\n      tag_348\n      jumpi\n        /* \"#utility.yul\":18807:18816   */\n      dup5\n        /* \"#utility.yul\":18802:18805   */\n      dup10\n        /* \"#utility.yul\":18798:18817   */\n      add\n        /* \"#utility.yul\":18792:18818   */\n      mload\n        /* \"#utility.yul\":18850:18898   */\n      tag_349\n        /* \"#utility.yul\":18892:18896   */\n      0x1f\n        /* \"#utility.yul\":18884:18890   */\n      dup10\n        /* \"#utility.yul\":18880:18897   */\n      and\n        /* \"#utility.yul\":18869:18878   */\n      dup3\n        /* \"#utility.yul\":18850:18898   */\n      tag_162\n      jump\t// in\n    tag_349:\n        /* \"#utility.yul\":18842:18848   */\n      dup4\n        /* \"#utility.yul\":18835:18899   */\n      sstore\n        /* \"#utility.yul\":18757:18913   */\n      pop\n        /* \"#utility.yul\":18734:18913   */\n    tag_348:\n        /* \"#utility.yul\":18959:18960   */\n      0x01\n        /* \"#utility.yul\":18955:18956   */\n      0x02\n        /* \"#utility.yul\":18947:18953   */\n      dup9\n        /* \"#utility.yul\":18943:18957   */\n      mul\n        /* \"#utility.yul\":18939:18961   */\n      add\n        /* \"#utility.yul\":18933:18937   */\n      dup9\n        /* \"#utility.yul\":18926:18962   */\n      sstore\n        /* \"#utility.yul\":18361:18972   */\n      pop\n      pop\n      pop\n        /* \"#utility.yul\":18324:19211   */\n    tag_340:\n      pop\n        /* \"#utility.yul\":17914:19217   */\n      pop\n      pop\n      pop\n        /* \"#utility.yul\":17822:19217   */\n      pop\n      pop\n      jump\t// out\n        /* \"#utility.yul\":19223:19737   */\n    tag_91:\n        /* \"#utility.yul\":19384:19388   */\n      0x00\n        /* \"#utility.yul\":19422:19424   */\n      0x40\n        /* \"#utility.yul\":19411:19420   */\n      dup3\n        /* \"#utility.yul\":19407:19425   */\n      add\n        /* \"#utility.yul\":19399:19425   */\n      swap1\n      pop\n        /* \"#utility.yul\":19471:19480   */\n      dup2\n        /* \"#utility.yul\":19465:19469   */\n      dup2\n        /* \"#utility.yul\":19461:19481   */\n      sub\n        /* \"#utility.yul\":19457:19458   */\n      0x00\n        /* \"#utility.yul\":19446:19455   */\n      dup4\n        /* \"#utility.yul\":19442:19459   */\n      add\n        /* \"#utility.yul\":19435:19482   */\n      mstore\n        /* \"#utility.yul\":19499:19577   */\n      tag_351\n        /* \"#utility.yul\":19572:19576   */\n      dup2\n        /* \"#utility.yul\":19563:19569   */\n      dup6\n        /* \"#utility.yul\":19499:19577   */\n      tag_122\n      jump\t// in\n    tag_351:\n        /* \"#utility.yul\":19491:19577   */\n      swap1\n      pop\n        /* \"#utility.yul\":19624:19633   */\n      dup2\n        /* \"#utility.yul\":19618:19622   */\n      dup2\n        /* \"#utility.yul\":19614:19634   */\n      sub\n        /* \"#utility.yul\":19609:19611   */\n      0x20\n        /* \"#utility.yul\":19598:19607   */\n      dup4\n        /* \"#utility.yul\":19594:19612   */\n      add\n        /* \"#utility.yul\":19587:19635   */\n      mstore\n        /* \"#utility.yul\":19652:19730   */\n      tag_352\n        /* \"#utility.yul\":19725:19729   */\n      dup2\n        /* \"#utility.yul\":19716:19722   */\n      dup5\n        /* \"#utility.yul\":19652:19730   */\n      tag_122\n      jump\t// in\n    tag_352:\n        /* \"#utility.yul\":19644:19730   */\n      swap1\n      pop\n        /* \"#utility.yul\":19223:19737   */\n      swap4\n      swap3\n      pop\n      pop\n      pop\n      jump\t// out\n\n    auxdata: 0xa26469706673582212208a79a259a235b7f37d9023ae53a2585297f8c169d61040607e01ff4f4dba568264736f6c63430008190033\n}\n",
				"bytecode": {
					"linkReferences": {},
					"object": "6080604052348015600e575f80fd5b503360025f6101000a81548173ffffffffffffffffffffffffffffffffffffffff021916908373ffffffffffffffffffffffffffffffffffffffff1602179055506117f68061005c5f395ff3fe608060405234801561000f575f80fd5b5060043610610091575f3560e01c80639000b3d6116100645780639000b3d614610133578063b5b90fd91461014f578063bdc95b321461016b578063ca2dfd0a14610187578063f653b81e146101a357610091565b80630ebddd17146100955780632fea7b81146100b15780636c824487146100e55780638da5cb5b14610115575b5f80fd5b6100af60048036038101906100aa9190610e5d565b6101d8565b005b6100cb60048036038101906100c69190610e5d565b61036c565b6040516100dc959493929190610f21565b60405180910390f35b6100ff60048036038101906100fa9190610e5d565b610528565b60405161010c9190610f80565b60405180910390f35b61011d610545565b60405161012a9190610f99565b60405180910390f35b61014d60048036038101906101489190610e5d565b61056a565b005b61016960048036038101906101649190610e5d565b610693565b005b610185600480360381019061018091906110de565b61085d565b005b6101a1600480360381019061019c9190610e5d565b610ac7565b005b6101bd60048036038101906101b89190610e5d565b610bf0565b6040516101cf96959493929190611182565b60405180910390f35b60015f3373ffffffffffffffffffffffffffffffffffffffff1673ffffffffffffffffffffffffffffffffffffffff1681526020019081526020015f205f9054906101000a900460ff16610261576040517f08c379a000000000000000000000000000000000000000000000000000000000815260040161025890611266565b60405180910390fd5b60015f808373ffffffffffffffffffffffffffffffffffffffff1673ffffffffffffffffffffffffffffffffffffffff1681526020019081526020015f2060030160016101000a81548160ff0219169083151502179055505f805f8373ffffffffffffffffffffffffffffffffffffffff1673ffffffffffffffffffffffffffffffffffffffff1681526020019081526020015f206003015f6101000a81548160ff0219169083151502179055503373ffffffffffffffffffffffffffffffffffffffff168173ffffffffffffffffffffffffffffffffffffffff167fd7533bea9fdce549b772c9bf708932fcf1560edaa0c94df3f90e65e75eb7565760405160405180910390a350565b6060805f805f805f808873ffffffffffffffffffffffffffffffffffffffff1673ffffffffffffffffffffffffffffffffffffffff1681526020019081526020015f209050805f0181600101826003015f9054906101000a900460ff168360030160019054906101000a900460ff168460030160029054906101000a900473ffffffffffffffffffffffffffffffffffffffff1684805461040c906112b1565b80601f0160208091040260200160405190810160405280929190818152602001828054610438906112b1565b80156104835780601f1061045a57610100808354040283529160200191610483565b820191905f5260205f20905b81548152906001019060200180831161046657829003601f168201915b50505050509450838054610496906112b1565b80601f01602080910402602001604051908101604052809291908181526020018280546104c2906112b1565b801561050d5780601f106104e45761010080835404028352916020019161050d565b820191905f5260205f20905b8154815290600101906020018083116104f057829003601f168201915b50505050509350955095509550955095505091939590929450565b6001602052805f5260405f205f915054906101000a900460ff1681565b60025f9054906101000a900473ffffffffffffffffffffffffffffffffffffffff1681565b60025f9054906101000a900473ffffffffffffffffffffffffffffffffffffffff1673ffffffffffffffffffffffffffffffffffffffff163373ffffffffffffffffffffffffffffffffffffffff16146105f9576040517f08c379a00000000000000000000000000000000000000000000000000000000081526004016105f090611351565b60405180910390fd5b6001805f8373ffffffffffffffffffffffffffffffffffffffff1673ffffffffffffffffffffffffffffffffffffffff1681526020019081526020015f205f6101000a81548160ff0219169083151502179055508073ffffffffffffffffffffffffffffffffffffffff167f6d05492139c5ea989514a5d2150c028041e5c087e2a39967f67dc7d2655adb8160405160405180910390a250565b60015f3373ffffffffffffffffffffffffffffffffffffffff1673ffffffffffffffffffffffffffffffffffffffff1681526020019081526020015f205f9054906101000a900460ff1661071c576040517f08c379a000000000000000000000000000000000000000000000000000000000815260040161071390611266565b60405180910390fd5b5f808273ffffffffffffffffffffffffffffffffffffffff1673ffffffffffffffffffffffffffffffffffffffff1681526020019081526020015f2060030160019054906101000a900460ff16156107a9576040517f08c379a00000000000000000000000000000000000000000000000000000000081526004016107a0906113b9565b60405180910390fd5b60015f808373ffffffffffffffffffffffffffffffffffffffff1673ffffffffffffffffffffffffffffffffffffffff1681526020019081526020015f206003015f6101000a81548160ff0219169083151502179055503373ffffffffffffffffffffffffffffffffffffffff168173ffffffffffffffffffffffffffffffffffffffff167f25e4589528aa4c1dcd5c91ab0cc06e99d962229fb9e54162702032772a1655a060405160405180910390a350565b60405160200161086c90611404565b604051602081830303815290604052805190602001205f803373ffffffffffffffffffffffffffffffffffffffff1673ffffffffffffffffffffffffffffffffffffffff1681526020019081526020015f205f016040516020016108d091906114aa565b6040516020818303038152906040528051906020012014610926576040517f08c379a000000000000000000000000000000000000000000000000000000000815260040161091d9061150a565b60405180910390fd5b6040518060c001604052808481526020018381526020018281526020015f151581526020015f151581526020013373ffffffffffffffffffffffffffffffffffffffff168152505f803373ffffffffffffffffffffffffffffffffffffffff1673ffffffffffffffffffffffffffffffffffffffff1681526020019081526020015f205f820151815f0190816109bc91906116bc565b5060208201518160010190816109d291906116bc565b5060408201518160020190816109e891906116bc565b506060820151816003015f6101000a81548160ff02191690831515021790555060808201518160030160016101000a81548160ff02191690831515021790555060a08201518160030160026101000a81548173ffffffffffffffffffffffffffffffffffffffff021916908373ffffffffffffffffffffffffffffffffffffffff1602179055509050503373ffffffffffffffffffffffffffffffffffffffff167fdc8c7948efd57970d2239c1bd917b1aacccb1af7b9d31499bb5ed1f80a7925278484604051610aba92919061178b565b60405180910390a2505050565b60025f9054906101000a900473ffffffffffffffffffffffffffffffffffffffff1673ffffffffffffffffffffffffffffffffffffffff163373ffffffffffffffffffffffffffffffffffffffff1614610b56576040517f08c379a0000000000000000000000000000000000000000000000000000000008152600401610b4d90611351565b60405180910390fd5b5f60015f8373ffffffffffffffffffffffffffffffffffffffff1673ffffffffffffffffffffffffffffffffffffffff1681526020019081526020015f205f6101000a81548160ff0219169083151502179055508073ffffffffffffffffffffffffffffffffffffffff167f44a3cd4eb5cc5748f6169df057b1cb2ae4c383e87cd94663c430e095d4cba42460405160405180910390a250565b5f602052805f5260405f205f91509050805f018054610c0e906112b1565b80601f0160208091040260200160405190810160405280929190818152602001828054610c3a906112b1565b8015610c855780601f10610c5c57610100808354040283529160200191610c85565b820191905f5260205f20905b815481529060010190602001808311610c6857829003601f168201915b505050505090806001018054610c9a906112b1565b80601f0160208091040260200160405190810160405280929190818152602001828054610cc6906112b1565b8015610d115780601f10610ce857610100808354040283529160200191610d11565b820191905f5260205f20905b815481529060010190602001808311610cf457829003601f168201915b505050505090806002018054610d26906112b1565b80601f0160208091040260200160405190810160405280929190818152602001828054610d52906112b1565b8015610d9d5780601f10610d7457610100808354040283529160200191610d9d565b820191905f5260205f20905b815481529060010190602001808311610d8057829003601f168201915b505050505090806003015f9054906101000a900460ff16908060030160019054906101000a900460ff16908060030160029054906101000a900473ffffffffffffffffffffffffffffffffffffffff16905086565b5f604051905090565b5f80fd5b5f80fd5b5f73ffffffffffffffffffffffffffffffffffffffff82169050919050565b5f610e2c82610e03565b9050919050565b610e3c81610e22565b8114610e46575f80fd5b50565b5f81359050610e5781610e33565b92915050565b5f60208284031215610e7257610e71610dfb565b5b5f610e7f84828501610e49565b91505092915050565b5f81519050919050565b5f82825260208201905092915050565b8281835e5f83830152505050565b5f601f19601f8301169050919050565b5f610eca82610e88565b610ed48185610e92565b9350610ee4818560208601610ea2565b610eed81610eb0565b840191505092915050565b5f8115159050919050565b610f0c81610ef8565b82525050565b610f1b81610e22565b82525050565b5f60a0820190508181035f830152610f398188610ec0565b90508181036020830152610f4d8187610ec0565b9050610f5c6040830186610f03565b610f696060830185610f03565b610f766080830184610f12565b9695505050505050565b5f602082019050610f935f830184610f03565b92915050565b5f602082019050610fac5f830184610f12565b92915050565b5f80fd5b5f80fd5b7f4e487b71000000000000000000000000000000000000000000000000000000005f52604160045260245ffd5b610ff082610eb0565b810181811067ffffffffffffffff8211171561100f5761100e610fba565b5b80604052505050565b5f611021610df2565b905061102d8282610fe7565b919050565b5f67ffffffffffffffff82111561104c5761104b610fba565b5b61105582610eb0565b9050602081019050919050565b828183375f83830152505050565b5f61108261107d84611032565b611018565b90508281526020810184848401111561109e5761109d610fb6565b5b6110a9848285611062565b509392505050565b5f82601f8301126110c5576110c4610fb2565b5b81356110d5848260208601611070565b91505092915050565b5f805f606084860312156110f5576110f4610dfb565b5b5f84013567ffffffffffffffff81111561111257611111610dff565b5b61111e868287016110b1565b935050602084013567ffffffffffffffff81111561113f5761113e610dff565b5b61114b868287016110b1565b925050604084013567ffffffffffffffff81111561116c5761116b610dff565b5b611178868287016110b1565b9150509250925092565b5f60c0820190508181035f83015261119a8189610ec0565b905081810360208301526111ae8188610ec0565b905081810360408301526111c28187610ec0565b90506111d16060830186610f03565b6111de6080830185610f03565b6111eb60a0830184610f12565b979650505050505050565b7f4f6e6c7920617574686f72697a6564207665726966696572732063616e2070655f8201527f72666f726d207468697320616374696f6e000000000000000000000000000000602082015250565b5f611250603183610e92565b915061125b826111f6565b604082019050919050565b5f6020820190508181035f83015261127d81611244565b9050919050565b7f4e487b71000000000000000000000000000000000000000000000000000000005f52602260045260245ffd5b5f60028204905060018216806112c857607f821691505b6020821081036112db576112da611284565b5b50919050565b7f4f6e6c792074686520636f6e7472616374206f776e65722063616e20706572665f8201527f6f726d207468697320616374696f6e0000000000000000000000000000000000602082015250565b5f61133b602f83610e92565b9150611346826112e1565b604082019050919050565b5f6020820190508181035f8301526113688161132f565b9050919050565b7f4964656e7469747920686173206265656e207265766f6b6564000000000000005f82015250565b5f6113a3601983610e92565b91506113ae8261136f565b602082019050919050565b5f6020820190508181035f8301526113d081611397565b9050919050565b5f81905092915050565b50565b5f6113ef5f836113d7565b91506113fa826113e1565b5f82019050919050565b5f61140e826113e4565b9150819050919050565b5f819050815f5260205f209050919050565b5f8154611436816112b1565b61144081866113d7565b9450600182165f811461145a576001811461146f576114a1565b60ff19831686528115158202860193506114a1565b61147885611418565b5f5b838110156114995781548189015260018201915060208101905061147a565b838801955050505b50505092915050565b5f6114b5828461142a565b915081905092915050565b7f4964656e7469747920616c7265616479207265676973746572656400000000005f82015250565b5f6114f4601b83610e92565b91506114ff826114c0565b602082019050919050565b5f6020820190508181035f830152611521816114e8565b9050919050565b5f6020601f8301049050919050565b5f82821b905092915050565b5f600883026115727fffffffffffffffffffffffffffffffffffffffffffffffffffffffffffffffff82611537565b61157c8683611537565b95508019841693508086168417925050509392505050565b5f819050919050565b5f819050919050565b5f6115c06115bb6115b684611594565b61159d565b611594565b9050919050565b5f819050919050565b6115d9836115a6565b6115ed6115e5826115c7565b848454611543565b825550505050565b5f90565b6116016115f5565b61160c8184846115d0565b505050565b5b8181101561162f576116245f826115f9565b600181019050611612565b5050565b601f8211156116745761164581611418565b61164e84611528565b8101602085101561165d578190505b61167161166985611528565b830182611611565b50505b505050565b5f82821c905092915050565b5f6116945f1984600802611679565b1980831691505092915050565b5f6116ac8383611685565b9150826002028217905092915050565b6116c582610e88565b67ffffffffffffffff8111156116de576116dd610fba565b5b6116e882546112b1565b6116f3828285611633565b5f60209050601f831160018114611724575f8415611712578287015190505b61171c85826116a1565b865550611783565b601f19841661173286611418565b5f5b8281101561175957848901518255600182019150602085019450602081019050611734565b868310156117765784890151611772601f891682611685565b8355505b6001600288020188555050505b505050505050565b5f6040820190508181035f8301526117a38185610ec0565b905081810360208301526117b78184610ec0565b9050939250505056fea26469706673582212208a79a259a235b7f37d9023ae53a2585297f8c169d61040607e01ff4f4dba568264736f6c63430008190033",
					"opcodes": "PUSH1 0x80 PUSH1 0x40 MSTORE CALLVALUE DUP1 ISZERO PUSH1 0xE JUMPI PUSH0 DUP1 REVERT JUMPDEST POP CALLER PUSH1 0x2 PUSH0 PUSH2 0x100 EXP DUP2 SLOAD DUP2 PUSH20 0xFFFFFFFFFFFFFFFFFFFFFFFFFFFFFFFFFFFFFFFF MUL NOT AND SWAP1 DUP4 PUSH20 0xFFFFFFFFFFFFFFFFFFFFFFFFFFFFFFFFFFFFFFFF AND MUL OR SWAP1 SSTORE POP PUSH2 0x17F6 DUP1 PUSH2 0x5C PUSH0 CODECOPY PUSH0 RETURN INVALID PUSH1 0x80 PUSH1 0x40 MSTORE CALLVALUE DUP1 ISZERO PUSH2 0xF JUMPI PUSH0 DUP1 REVERT JUMPDEST POP PUSH1 0x4 CALLDATASIZE LT PUSH2 0x91 JUMPI PUSH0 CALLDATALOAD PUSH1 0xE0 SHR DUP1 PUSH4 0x9000B3D6 GT PUSH2 0x64 JUMPI DUP1 PUSH4 0x9000B3D6 EQ PUSH2 0x133 JUMPI DUP1 PUSH4 0xB5B90FD9 EQ PUSH2 0x14F JUMPI DUP1 PUSH4 0xBDC95B32 EQ PUSH2 0x16B JUMPI DUP1 PUSH4 0xCA2DFD0A EQ PUSH2 0x187 JUMPI DUP1 PUSH4 0xF653B81E EQ PUSH2 0x1A3 JUMPI PUSH2 0x91 JUMP JUMPDEST DUP1 PUSH4 0xEBDDD17 EQ PUSH2 0x95 JUMPI DUP1 PUSH4 0x2FEA7B81 EQ PUSH2 0xB1 JUMPI DUP1 PUSH4 0x6C824487 EQ PUSH2 0xE5 JUMPI DUP1 PUSH4 0x8DA5CB5B EQ PUSH2 0x115 JUMPI JUMPDEST PUSH0 DUP1 REVERT JUMPDEST PUSH2 0xAF PUSH1 0x4 DUP1 CALLDATASIZE SUB DUP2 ADD SWAP1 PUSH2 0xAA SWAP2 SWAP1 PUSH2 0xE5D JUMP JUMPDEST PUSH2 0x1D8 JUMP JUMPDEST STOP JUMPDEST PUSH2 0xCB PUSH1 0x4 DUP1 CALLDATASIZE SUB DUP2 ADD SWAP1 PUSH2 0xC6 SWAP2 SWAP1 PUSH2 0xE5D JUMP JUMPDEST PUSH2 0x36C JUMP JUMPDEST PUSH1 0x40 MLOAD PUSH2 0xDC SWAP6 SWAP5 SWAP4 SWAP3 SWAP2 SWAP1 PUSH2 0xF21 JUMP JUMPDEST PUSH1 0x40 MLOAD DUP1 SWAP2 SUB SWAP1 RETURN JUMPDEST PUSH2 0xFF PUSH1 0x4 DUP1 CALLDATASIZE SUB DUP2 ADD SWAP1 PUSH2 0xFA SWAP2 SWAP1 PUSH2 0xE5D JUMP JUMPDEST PUSH2 0x528 JUMP JUMPDEST PUSH1 0x40 MLOAD PUSH2 0x10C SWAP2 SWAP1 PUSH2 0xF80 JUMP JUMPDEST PUSH1 0x40 MLOAD DUP1 SWAP2 SUB SWAP1 RETURN JUMPDEST PUSH2 0x11D PUSH2 0x545 JUMP JUMPDEST PUSH1 0x40 MLOAD PUSH2 0x12A SWAP2 SWAP1 PUSH2 0xF99 JUMP JUMPDEST PUSH1 0x40 MLOAD DUP1 SWAP2 SUB SWAP1 RETURN JUMPDEST PUSH2 0x14D PUSH1 0x4 DUP1 CALLDATASIZE SUB DUP2 ADD SWAP1 PUSH2 0x148 SWAP2 SWAP1 PUSH2 0xE5D JUMP JUMPDEST PUSH2 0x56A JUMP JUMPDEST STOP JUMPDEST PUSH2 0x169 PUSH1 0x4 DUP1 CALLDATASIZE SUB DUP2 ADD SWAP1 PUSH2 0x164 SWAP2 SWAP1 PUSH2 0xE5D JUMP JUMPDEST PUSH2 0x693 JUMP JUMPDEST STOP JUMPDEST PUSH2 0x185 PUSH1 0x4 DUP1 CALLDATASIZE SUB DUP2 ADD SWAP1 PUSH2 0x180 SWAP2 SWAP1 PUSH2 0x10DE JUMP JUMPDEST PUSH2 0x85D JUMP JUMPDEST STOP JUMPDEST PUSH2 0x1A1 PUSH1 0x4 DUP1 CALLDATASIZE SUB DUP2 ADD SWAP1 PUSH2 0x19C SWAP2 SWAP1 PUSH2 0xE5D JUMP JUMPDEST PUSH2 0xAC7 JUMP JUMPDEST STOP JUMPDEST PUSH2 0x1BD PUSH1 0x4 DUP1 CALLDATASIZE SUB DUP2 ADD SWAP1 PUSH2 0x1B8 SWAP2 SWAP1 PUSH2 0xE5D JUMP JUMPDEST PUSH2 0xBF0 JUMP JUMPDEST PUSH1 0x40 MLOAD PUSH2 0x1CF SWAP7 SWAP6 SWAP5 SWAP4 SWAP3 SWAP2 SWAP1 PUSH2 0x1182 JUMP JUMPDEST PUSH1 0x40 MLOAD DUP1 SWAP2 SUB SWAP1 RETURN JUMPDEST PUSH1 0x1 PUSH0 CALLER PUSH20 0xFFFFFFFFFFFFFFFFFFFFFFFFFFFFFFFFFFFFFFFF AND PUSH20 0xFFFFFFFFFFFFFFFFFFFFFFFFFFFFFFFFFFFFFFFF AND DUP2 MSTORE PUSH1 0x20 ADD SWAP1 DUP2 MSTORE PUSH1 0x20 ADD PUSH0 KECCAK256 PUSH0 SWAP1 SLOAD SWAP1 PUSH2 0x100 EXP SWAP1 DIV PUSH1 0xFF AND PUSH2 0x261 JUMPI PUSH1 0x40 MLOAD PUSH32 0x8C379A000000000000000000000000000000000000000000000000000000000 DUP2 MSTORE PUSH1 0x4 ADD PUSH2 0x258 SWAP1 PUSH2 0x1266 JUMP JUMPDEST PUSH1 0x40 MLOAD DUP1 SWAP2 SUB SWAP1 REVERT JUMPDEST PUSH1 0x1 PUSH0 DUP1 DUP4 PUSH20 0xFFFFFFFFFFFFFFFFFFFFFFFFFFFFFFFFFFFFFFFF AND PUSH20 0xFFFFFFFFFFFFFFFFFFFFFFFFFFFFFFFFFFFFFFFF AND DUP2 MSTORE PUSH1 0x20 ADD SWAP1 DUP2 MSTORE PUSH1 0x20 ADD PUSH0 KECCAK256 PUSH1 0x3 ADD PUSH1 0x1 PUSH2 0x100 EXP DUP2 SLOAD DUP2 PUSH1 0xFF MUL NOT AND SWAP1 DUP4 ISZERO ISZERO MUL OR SWAP1 SSTORE POP PUSH0 DUP1 PUSH0 DUP4 PUSH20 0xFFFFFFFFFFFFFFFFFFFFFFFFFFFFFFFFFFFFFFFF AND PUSH20 0xFFFFFFFFFFFFFFFFFFFFFFFFFFFFFFFFFFFFFFFF AND DUP2 MSTORE PUSH1 0x20 ADD SWAP1 DUP2 MSTORE PUSH1 0x20 ADD PUSH0 KECCAK256 PUSH1 0x3 ADD PUSH0 PUSH2 0x100 EXP DUP2 SLOAD DUP2 PUSH1 0xFF MUL NOT AND SWAP1 DUP4 ISZERO ISZERO MUL OR SWAP1 SSTORE POP CALLER PUSH20 0xFFFFFFFFFFFFFFFFFFFFFFFFFFFFFFFFFFFFFFFF AND DUP2 PUSH20 0xFFFFFFFFFFFFFFFFFFFFFFFFFFFFFFFFFFFFFFFF AND PUSH32 0xD7533BEA9FDCE549B772C9BF708932FCF1560EDAA0C94DF3F90E65E75EB75657 PUSH1 0x40 MLOAD PUSH1 0x40 MLOAD DUP1 SWAP2 SUB SWAP1 LOG3 POP JUMP JUMPDEST PUSH1 0x60 DUP1 PUSH0 DUP1 PUSH0 DUP1 PUSH0 DUP1 DUP9 PUSH20 0xFFFFFFFFFFFFFFFFFFFFFFFFFFFFFFFFFFFFFFFF AND PUSH20 0xFFFFFFFFFFFFFFFFFFFFFFFFFFFFFFFFFFFFFFFF AND DUP2 MSTORE PUSH1 0x20 ADD SWAP1 DUP2 MSTORE PUSH1 0x20 ADD PUSH0 KECCAK256 SWAP1 POP DUP1 PUSH0 ADD DUP2 PUSH1 0x1 ADD DUP3 PUSH1 0x3 ADD PUSH0 SWAP1 SLOAD SWAP1 PUSH2 0x100 EXP SWAP1 DIV PUSH1 0xFF AND DUP4 PUSH1 0x3 ADD PUSH1 0x1 SWAP1 SLOAD SWAP1 PUSH2 0x100 EXP SWAP1 DIV PUSH1 0xFF AND DUP5 PUSH1 0x3 ADD PUSH1 0x2 SWAP1 SLOAD SWAP1 PUSH2 0x100 EXP SWAP1 DIV PUSH20 0xFFFFFFFFFFFFFFFFFFFFFFFFFFFFFFFFFFFFFFFF AND DUP5 DUP1 SLOAD PUSH2 0x40C SWAP1 PUSH2 0x12B1 JUMP JUMPDEST DUP1 PUSH1 0x1F ADD PUSH1 0x20 DUP1 SWAP2 DIV MUL PUSH1 0x20 ADD PUSH1 0x40 MLOAD SWAP1 DUP2 ADD PUSH1 0x40 MSTORE DUP1 SWAP3 SWAP2 SWAP1 DUP2 DUP2 MSTORE PUSH1 0x20 ADD DUP3 DUP1 SLOAD PUSH2 0x438 SWAP1 PUSH2 0x12B1 JUMP JUMPDEST DUP1 ISZERO PUSH2 0x483 JUMPI DUP1 PUSH1 0x1F LT PUSH2 0x45A JUMPI PUSH2 0x100 DUP1 DUP4 SLOAD DIV MUL DUP4 MSTORE SWAP2 PUSH1 0x20 ADD SWAP2 PUSH2 0x483 JUMP JUMPDEST DUP3 ADD SWAP2 SWAP1 PUSH0 MSTORE PUSH1 0x20 PUSH0 KECCAK256 SWAP1 JUMPDEST DUP2 SLOAD DUP2 MSTORE SWAP1 PUSH1 0x1 ADD SWAP1 PUSH1 0x20 ADD DUP1 DUP4 GT PUSH2 0x466 JUMPI DUP3 SWAP1 SUB PUSH1 0x1F AND DUP3 ADD SWAP2 JUMPDEST POP POP POP POP POP SWAP5 POP DUP4 DUP1 SLOAD PUSH2 0x496 SWAP1 PUSH2 0x12B1 JUMP JUMPDEST DUP1 PUSH1 0x1F ADD PUSH1 0x20 DUP1 SWAP2 DIV MUL PUSH1 0x20 ADD PUSH1 0x40 MLOAD SWAP1 DUP2 ADD PUSH1 0x40 MSTORE DUP1 SWAP3 SWAP2 SWAP1 DUP2 DUP2 MSTORE PUSH1 0x20 ADD DUP3 DUP1 SLOAD PUSH2 0x4C2 SWAP1 PUSH2 0x12B1 JUMP JUMPDEST DUP1 ISZERO PUSH2 0x50D JUMPI DUP1 PUSH1 0x1F LT PUSH2 0x4E4 JUMPI PUSH2 0x100 DUP1 DUP4 SLOAD DIV MUL DUP4 MSTORE SWAP2 PUSH1 0x20 ADD SWAP2 PUSH2 0x50D JUMP JUMPDEST DUP3 ADD SWAP2 SWAP1 PUSH0 MSTORE PUSH1 0x20 PUSH0 KECCAK256 SWAP1 JUMPDEST DUP2 SLOAD DUP2 MSTORE SWAP1 PUSH1 0x1 ADD SWAP1 PUSH1 0x20 ADD DUP1 DUP4 GT PUSH2 0x4F0 JUMPI DUP3 SWAP1 SUB PUSH1 0x1F AND DUP3 ADD SWAP2 JUMPDEST POP POP POP POP POP SWAP4 POP SWAP6 POP SWAP6 POP SWAP6 POP SWAP6 POP SWAP6 POP POP SWAP2 SWAP4 SWAP6 SWAP1 SWAP3 SWAP5 POP JUMP JUMPDEST PUSH1 0x1 PUSH1 0x20 MSTORE DUP1 PUSH0 MSTORE PUSH1 0x40 PUSH0 KECCAK256 PUSH0 SWAP2 POP SLOAD SWAP1 PUSH2 0x100 EXP SWAP1 DIV PUSH1 0xFF AND DUP2 JUMP JUMPDEST PUSH1 0x2 PUSH0 SWAP1 SLOAD SWAP1 PUSH2 0x100 EXP SWAP1 DIV PUSH20 0xFFFFFFFFFFFFFFFFFFFFFFFFFFFFFFFFFFFFFFFF AND DUP2 JUMP JUMPDEST PUSH1 0x2 PUSH0 SWAP1 SLOAD SWAP1 PUSH2 0x100 EXP SWAP1 DIV PUSH20 0xFFFFFFFFFFFFFFFFFFFFFFFFFFFFFFFFFFFFFFFF AND PUSH20 0xFFFFFFFFFFFFFFFFFFFFFFFFFFFFFFFFFFFFFFFF AND CALLER PUSH20 0xFFFFFFFFFFFFFFFFFFFFFFFFFFFFFFFFFFFFFFFF AND EQ PUSH2 0x5F9 JUMPI PUSH1 0x40 MLOAD PUSH32 0x8C379A000000000000000000000000000000000000000000000000000000000 DUP2 MSTORE PUSH1 0x4 ADD PUSH2 0x5F0 SWAP1 PUSH2 0x1351 JUMP JUMPDEST PUSH1 0x40 MLOAD DUP1 SWAP2 SUB SWAP1 REVERT JUMPDEST PUSH1 0x1 DUP1 PUSH0 DUP4 PUSH20 0xFFFFFFFFFFFFFFFFFFFFFFFFFFFFFFFFFFFFFFFF AND PUSH20 0xFFFFFFFFFFFFFFFFFFFFFFFFFFFFFFFFFFFFFFFF AND DUP2 MSTORE PUSH1 0x20 ADD SWAP1 DUP2 MSTORE PUSH1 0x20 ADD PUSH0 KECCAK256 PUSH0 PUSH2 0x100 EXP DUP2 SLOAD DUP2 PUSH1 0xFF MUL NOT AND SWAP1 DUP4 ISZERO ISZERO MUL OR SWAP1 SSTORE POP DUP1 PUSH20 0xFFFFFFFFFFFFFFFFFFFFFFFFFFFFFFFFFFFFFFFF AND PUSH32 0x6D05492139C5EA989514A5D2150C028041E5C087E2A39967F67DC7D2655ADB81 PUSH1 0x40 MLOAD PUSH1 0x40 MLOAD DUP1 SWAP2 SUB SWAP1 LOG2 POP JUMP JUMPDEST PUSH1 0x1 PUSH0 CALLER PUSH20 0xFFFFFFFFFFFFFFFFFFFFFFFFFFFFFFFFFFFFFFFF AND PUSH20 0xFFFFFFFFFFFFFFFFFFFFFFFFFFFFFFFFFFFFFFFF AND DUP2 MSTORE PUSH1 0x20 ADD SWAP1 DUP2 MSTORE PUSH1 0x20 ADD PUSH0 KECCAK256 PUSH0 SWAP1 SLOAD SWAP1 PUSH2 0x100 EXP SWAP1 DIV PUSH1 0xFF AND PUSH2 0x71C JUMPI PUSH1 0x40 MLOAD PUSH32 0x8C379A000000000000000000000000000000000000000000000000000000000 DUP2 MSTORE PUSH1 0x4 ADD PUSH2 0x713 SWAP1 PUSH2 0x1266 JUMP JUMPDEST PUSH1 0x40 MLOAD DUP1 SWAP2 SUB SWAP1 REVERT JUMPDEST PUSH0 DUP1 DUP3 PUSH20 0xFFFFFFFFFFFFFFFFFFFFFFFFFFFFFFFFFFFFFFFF AND PUSH20 0xFFFFFFFFFFFFFFFFFFFFFFFFFFFFFFFFFFFFFFFF AND DUP2 MSTORE PUSH1 0x20 ADD SWAP1 DUP2 MSTORE PUSH1 0x20 ADD PUSH0 KECCAK256 PUSH1 0x3 ADD PUSH1 0x1 SWAP1 SLOAD SWAP1 PUSH2 0x100 EXP SWAP1 DIV PUSH1 0xFF AND ISZERO PUSH2 0x7A9 JUMPI PUSH1 0x40 MLOAD PUSH32 0x8C379A000000000000000000000000000000000000000000000000000000000 DUP2 MSTORE PUSH1 0x4 ADD PUSH2 0x7A0 SWAP1 PUSH2 0x13B9 JUMP JUMPDEST PUSH1 0x40 MLOAD DUP1 SWAP2 SUB SWAP1 REVERT JUMPDEST PUSH1 0x1 PUSH0 DUP1 DUP4 PUSH20 0xFFFFFFFFFFFFFFFFFFFFFFFFFFFFFFFFFFFFFFFF AND PUSH20 0xFFFFFFFFFFFFFFFFFFFFFFFFFFFFFFFFFFFFFFFF AND DUP2 MSTORE PUSH1 0x20 ADD SWAP1 DUP2 MSTORE PUSH1 0x20 ADD PUSH0 KECCAK256 PUSH1 0x3 ADD PUSH0 PUSH2 0x100 EXP DUP2 SLOAD DUP2 PUSH1 0xFF MUL NOT AND SWAP1 DUP4 ISZERO ISZERO MUL OR SWAP1 SSTORE POP CALLER PUSH20 0xFFFFFFFFFFFFFFFFFFFFFFFFFFFFFFFFFFFFFFFF AND DUP2 PUSH20 0xFFFFFFFFFFFFFFFFFFFFFFFFFFFFFFFFFFFFFFFF AND PUSH32 0x25E4589528AA4C1DCD5C91AB0CC06E99D962229FB9E54162702032772A1655A0 PUSH1 0x40 MLOAD PUSH1 0x40 MLOAD DUP1 SWAP2 SUB SWAP1 LOG3 POP JUMP JUMPDEST PUSH1 0x40 MLOAD PUSH1 0x20 ADD PUSH2 0x86C SWAP1 PUSH2 0x1404 JUMP JUMPDEST PUSH1 0x40 MLOAD PUSH1 0x20 DUP2 DUP4 SUB SUB DUP2 MSTORE SWAP1 PUSH1 0x40 MSTORE DUP1 MLOAD SWAP1 PUSH1 0x20 ADD KECCAK256 PUSH0 DUP1 CALLER PUSH20 0xFFFFFFFFFFFFFFFFFFFFFFFFFFFFFFFFFFFFFFFF AND PUSH20 0xFFFFFFFFFFFFFFFFFFFFFFFFFFFFFFFFFFFFFFFF AND DUP2 MSTORE PUSH1 0x20 ADD SWAP1 DUP2 MSTORE PUSH1 0x20 ADD PUSH0 KECCAK256 PUSH0 ADD PUSH1 0x40 MLOAD PUSH1 0x20 ADD PUSH2 0x8D0 SWAP2 SWAP1 PUSH2 0x14AA JUMP JUMPDEST PUSH1 0x40 MLOAD PUSH1 0x20 DUP2 DUP4 SUB SUB DUP2 MSTORE SWAP1 PUSH1 0x40 MSTORE DUP1 MLOAD SWAP1 PUSH1 0x20 ADD KECCAK256 EQ PUSH2 0x926 JUMPI PUSH1 0x40 MLOAD PUSH32 0x8C379A000000000000000000000000000000000000000000000000000000000 DUP2 MSTORE PUSH1 0x4 ADD PUSH2 0x91D SWAP1 PUSH2 0x150A JUMP JUMPDEST PUSH1 0x40 MLOAD DUP1 SWAP2 SUB SWAP1 REVERT JUMPDEST PUSH1 0x40 MLOAD DUP1 PUSH1 0xC0 ADD PUSH1 0x40 MSTORE DUP1 DUP5 DUP2 MSTORE PUSH1 0x20 ADD DUP4 DUP2 MSTORE PUSH1 0x20 ADD DUP3 DUP2 MSTORE PUSH1 0x20 ADD PUSH0 ISZERO ISZERO DUP2 MSTORE PUSH1 0x20 ADD PUSH0 ISZERO ISZERO DUP2 MSTORE PUSH1 0x20 ADD CALLER PUSH20 0xFFFFFFFFFFFFFFFFFFFFFFFFFFFFFFFFFFFFFFFF AND DUP2 MSTORE POP PUSH0 DUP1 CALLER PUSH20 0xFFFFFFFFFFFFFFFFFFFFFFFFFFFFFFFFFFFFFFFF AND PUSH20 0xFFFFFFFFFFFFFFFFFFFFFFFFFFFFFFFFFFFFFFFF AND DUP2 MSTORE PUSH1 0x20 ADD SWAP1 DUP2 MSTORE PUSH1 0x20 ADD PUSH0 KECCAK256 PUSH0 DUP3 ADD MLOAD DUP2 PUSH0 ADD SWAP1 DUP2 PUSH2 0x9BC SWAP2 SWAP1 PUSH2 0x16BC JUMP JUMPDEST POP PUSH1 0x20 DUP3 ADD MLOAD DUP2 PUSH1 0x1 ADD SWAP1 DUP2 PUSH2 0x9D2 SWAP2 SWAP1 PUSH2 0x16BC JUMP JUMPDEST POP PUSH1 0x40 DUP3 ADD MLOAD DUP2 PUSH1 0x2 ADD SWAP1 DUP2 PUSH2 0x9E8 SWAP2 SWAP1 PUSH2 0x16BC JUMP JUMPDEST POP PUSH1 0x60 DUP3 ADD MLOAD DUP2 PUSH1 0x3 ADD PUSH0 PUSH2 0x100 EXP DUP2 SLOAD DUP2 PUSH1 0xFF MUL NOT AND SWAP1 DUP4 ISZERO ISZERO MUL OR SWAP1 SSTORE POP PUSH1 0x80 DUP3 ADD MLOAD DUP2 PUSH1 0x3 ADD PUSH1 0x1 PUSH2 0x100 EXP DUP2 SLOAD DUP2 PUSH1 0xFF MUL NOT AND SWAP1 DUP4 ISZERO ISZERO MUL OR SWAP1 SSTORE POP PUSH1 0xA0 DUP3 ADD MLOAD DUP2 PUSH1 0x3 ADD PUSH1 0x2 PUSH2 0x100 EXP DUP2 SLOAD DUP2 PUSH20 0xFFFFFFFFFFFFFFFFFFFFFFFFFFFFFFFFFFFFFFFF MUL NOT AND SWAP1 DUP4 PUSH20 0xFFFFFFFFFFFFFFFFFFFFFFFFFFFFFFFFFFFFFFFF AND MUL OR SWAP1 SSTORE POP SWAP1 POP POP CALLER PUSH20 0xFFFFFFFFFFFFFFFFFFFFFFFFFFFFFFFFFFFFFFFF AND PUSH32 0xDC8C7948EFD57970D2239C1BD917B1AACCCB1AF7B9D31499BB5ED1F80A792527 DUP5 DUP5 PUSH1 0x40 MLOAD PUSH2 0xABA SWAP3 SWAP2 SWAP1 PUSH2 0x178B JUMP JUMPDEST PUSH1 0x40 MLOAD DUP1 SWAP2 SUB SWAP1 LOG2 POP POP POP JUMP JUMPDEST PUSH1 0x2 PUSH0 SWAP1 SLOAD SWAP1 PUSH2 0x100 EXP SWAP1 DIV PUSH20 0xFFFFFFFFFFFFFFFFFFFFFFFFFFFFFFFFFFFFFFFF AND PUSH20 0xFFFFFFFFFFFFFFFFFFFFFFFFFFFFFFFFFFFFFFFF AND CALLER PUSH20 0xFFFFFFFFFFFFFFFFFFFFFFFFFFFFFFFFFFFFFFFF AND EQ PUSH2 0xB56 JUMPI PUSH1 0x40 MLOAD PUSH32 0x8C379A000000000000000000000000000000000000000000000000000000000 DUP2 MSTORE PUSH1 0x4 ADD PUSH2 0xB4D SWAP1 PUSH2 0x1351 JUMP JUMPDEST PUSH1 0x40 MLOAD DUP1 SWAP2 SUB SWAP1 REVERT JUMPDEST PUSH0 PUSH1 0x1 PUSH0 DUP4 PUSH20 0xFFFFFFFFFFFFFFFFFFFFFFFFFFFFFFFFFFFFFFFF AND PUSH20 0xFFFFFFFFFFFFFFFFFFFFFFFFFFFFFFFFFFFFFFFF AND DUP2 MSTORE PUSH1 0x20 ADD SWAP1 DUP2 MSTORE PUSH1 0x20 ADD PUSH0 KECCAK256 PUSH0 PUSH2 0x100 EXP DUP2 SLOAD DUP2 PUSH1 0xFF MUL NOT AND SWAP1 DUP4 ISZERO ISZERO MUL OR SWAP1 SSTORE POP DUP1 PUSH20 0xFFFFFFFFFFFFFFFFFFFFFFFFFFFFFFFFFFFFFFFF AND PUSH32 0x44A3CD4EB5CC5748F6169DF057B1CB2AE4C383E87CD94663C430E095D4CBA424 PUSH1 0x40 MLOAD PUSH1 0x40 MLOAD DUP1 SWAP2 SUB SWAP1 LOG2 POP JUMP JUMPDEST PUSH0 PUSH1 0x20 MSTORE DUP1 PUSH0 MSTORE PUSH1 0x40 PUSH0 KECCAK256 PUSH0 SWAP2 POP SWAP1 POP DUP1 PUSH0 ADD DUP1 SLOAD PUSH2 0xC0E SWAP1 PUSH2 0x12B1 JUMP JUMPDEST DUP1 PUSH1 0x1F ADD PUSH1 0x20 DUP1 SWAP2 DIV MUL PUSH1 0x20 ADD PUSH1 0x40 MLOAD SWAP1 DUP2 ADD PUSH1 0x40 MSTORE DUP1 SWAP3 SWAP2 SWAP1 DUP2 DUP2 MSTORE PUSH1 0x20 ADD DUP3 DUP1 SLOAD PUSH2 0xC3A SWAP1 PUSH2 0x12B1 JUMP JUMPDEST DUP1 ISZERO PUSH2 0xC85 JUMPI DUP1 PUSH1 0x1F LT PUSH2 0xC5C JUMPI PUSH2 0x100 DUP1 DUP4 SLOAD DIV MUL DUP4 MSTORE SWAP2 PUSH1 0x20 ADD SWAP2 PUSH2 0xC85 JUMP JUMPDEST DUP3 ADD SWAP2 SWAP1 PUSH0 MSTORE PUSH1 0x20 PUSH0 KECCAK256 SWAP1 JUMPDEST DUP2 SLOAD DUP2 MSTORE SWAP1 PUSH1 0x1 ADD SWAP1 PUSH1 0x20 ADD DUP1 DUP4 GT PUSH2 0xC68 JUMPI DUP3 SWAP1 SUB PUSH1 0x1F AND DUP3 ADD SWAP2 JUMPDEST POP POP POP POP POP SWAP1 DUP1 PUSH1 0x1 ADD DUP1 SLOAD PUSH2 0xC9A SWAP1 PUSH2 0x12B1 JUMP JUMPDEST DUP1 PUSH1 0x1F ADD PUSH1 0x20 DUP1 SWAP2 DIV MUL PUSH1 0x20 ADD PUSH1 0x40 MLOAD SWAP1 DUP2 ADD PUSH1 0x40 MSTORE DUP1 SWAP3 SWAP2 SWAP1 DUP2 DUP2 MSTORE PUSH1 0x20 ADD DUP3 DUP1 SLOAD PUSH2 0xCC6 SWAP1 PUSH2 0x12B1 JUMP JUMPDEST DUP1 ISZERO PUSH2 0xD11 JUMPI DUP1 PUSH1 0x1F LT PUSH2 0xCE8 JUMPI PUSH2 0x100 DUP1 DUP4 SLOAD DIV MUL DUP4 MSTORE SWAP2 PUSH1 0x20 ADD SWAP2 PUSH2 0xD11 JUMP JUMPDEST DUP3 ADD SWAP2 SWAP1 PUSH0 MSTORE PUSH1 0x20 PUSH0 KECCAK256 SWAP1 JUMPDEST DUP2 SLOAD DUP2 MSTORE SWAP1 PUSH1 0x1 ADD SWAP1 PUSH1 0x20 ADD DUP1 DUP4 GT PUSH2 0xCF4 JUMPI DUP3 SWAP1 SUB PUSH1 0x1F AND DUP3 ADD SWAP2 JUMPDEST POP POP POP POP POP SWAP1 DUP1 PUSH1 0x2 ADD DUP1 SLOAD PUSH2 0xD26 SWAP1 PUSH2 0x12B1 JUMP JUMPDEST DUP1 PUSH1 0x1F ADD PUSH1 0x20 DUP1 SWAP2 DIV MUL PUSH1 0x20 ADD PUSH1 0x40 MLOAD SWAP1 DUP2 ADD PUSH1 0x40 MSTORE DUP1 SWAP3 SWAP2 SWAP1 DUP2 DUP2 MSTORE PUSH1 0x20 ADD DUP3 DUP1 SLOAD PUSH2 0xD52 SWAP1 PUSH2 0x12B1 JUMP JUMPDEST DUP1 ISZERO PUSH2 0xD9D JUMPI DUP1 PUSH1 0x1F LT PUSH2 0xD74 JUMPI PUSH2 0x100 DUP1 DUP4 SLOAD DIV MUL DUP4 MSTORE SWAP2 PUSH1 0x20 ADD SWAP2 PUSH2 0xD9D JUMP JUMPDEST DUP3 ADD SWAP2 SWAP1 PUSH0 MSTORE PUSH1 0x20 PUSH0 KECCAK256 SWAP1 JUMPDEST DUP2 SLOAD DUP2 MSTORE SWAP1 PUSH1 0x1 ADD SWAP1 PUSH1 0x20 ADD DUP1 DUP4 GT PUSH2 0xD80 JUMPI DUP3 SWAP1 SUB PUSH1 0x1F AND DUP3 ADD SWAP2 JUMPDEST POP POP POP POP POP SWAP1 DUP1 PUSH1 0x3 ADD PUSH0 SWAP1 SLOAD SWAP1 PUSH2 0x100 EXP SWAP1 DIV PUSH1 0xFF AND SWAP1 DUP1 PUSH1 0x3 ADD PUSH1 0x1 SWAP1 SLOAD SWAP1 PUSH2 0x100 EXP SWAP1 DIV PUSH1 0xFF AND SWAP1 DUP1 PUSH1 0x3 ADD PUSH1 0x2 SWAP1 SLOAD SWAP1 PUSH2 0x100 EXP SWAP1 DIV PUSH20 0xFFFFFFFFFFFFFFFFFFFFFFFFFFFFFFFFFFFFFFFF AND SWAP1 POP DUP7 JUMP JUMPDEST PUSH0 PUSH1 0x40 MLOAD SWAP1 POP SWAP1 JUMP JUMPDEST PUSH0 DUP1 REVERT JUMPDEST PUSH0 DUP1 REVERT JUMPDEST PUSH0 PUSH20 0xFFFFFFFFFFFFFFFFFFFFFFFFFFFFFFFFFFFFFFFF DUP3 AND SWAP1 POP SWAP2 SWAP1 POP JUMP JUMPDEST PUSH0 PUSH2 0xE2C DUP3 PUSH2 0xE03 JUMP JUMPDEST SWAP1 POP SWAP2 SWAP1 POP JUMP JUMPDEST PUSH2 0xE3C DUP2 PUSH2 0xE22 JUMP JUMPDEST DUP2 EQ PUSH2 0xE46 JUMPI PUSH0 DUP1 REVERT JUMPDEST POP JUMP JUMPDEST PUSH0 DUP2 CALLDATALOAD SWAP1 POP PUSH2 0xE57 DUP2 PUSH2 0xE33 JUMP JUMPDEST SWAP3 SWAP2 POP POP JUMP JUMPDEST PUSH0 PUSH1 0x20 DUP3 DUP5 SUB SLT ISZERO PUSH2 0xE72 JUMPI PUSH2 0xE71 PUSH2 0xDFB JUMP JUMPDEST JUMPDEST PUSH0 PUSH2 0xE7F DUP5 DUP3 DUP6 ADD PUSH2 0xE49 JUMP JUMPDEST SWAP2 POP POP SWAP3 SWAP2 POP POP JUMP JUMPDEST PUSH0 DUP2 MLOAD SWAP1 POP SWAP2 SWAP1 POP JUMP JUMPDEST PUSH0 DUP3 DUP3 MSTORE PUSH1 0x20 DUP3 ADD SWAP1 POP SWAP3 SWAP2 POP POP JUMP JUMPDEST DUP3 DUP2 DUP4 MCOPY PUSH0 DUP4 DUP4 ADD MSTORE POP POP POP JUMP JUMPDEST PUSH0 PUSH1 0x1F NOT PUSH1 0x1F DUP4 ADD AND SWAP1 POP SWAP2 SWAP1 POP JUMP JUMPDEST PUSH0 PUSH2 0xECA DUP3 PUSH2 0xE88 JUMP JUMPDEST PUSH2 0xED4 DUP2 DUP6 PUSH2 0xE92 JUMP JUMPDEST SWAP4 POP PUSH2 0xEE4 DUP2 DUP6 PUSH1 0x20 DUP7 ADD PUSH2 0xEA2 JUMP JUMPDEST PUSH2 0xEED DUP2 PUSH2 0xEB0 JUMP JUMPDEST DUP5 ADD SWAP2 POP POP SWAP3 SWAP2 POP POP JUMP JUMPDEST PUSH0 DUP2 ISZERO ISZERO SWAP1 POP SWAP2 SWAP1 POP JUMP JUMPDEST PUSH2 0xF0C DUP2 PUSH2 0xEF8 JUMP JUMPDEST DUP3 MSTORE POP POP JUMP JUMPDEST PUSH2 0xF1B DUP2 PUSH2 0xE22 JUMP JUMPDEST DUP3 MSTORE POP POP JUMP JUMPDEST PUSH0 PUSH1 0xA0 DUP3 ADD SWAP1 POP DUP2 DUP2 SUB PUSH0 DUP4 ADD MSTORE PUSH2 0xF39 DUP2 DUP9 PUSH2 0xEC0 JUMP JUMPDEST SWAP1 POP DUP2 DUP2 SUB PUSH1 0x20 DUP4 ADD MSTORE PUSH2 0xF4D DUP2 DUP8 PUSH2 0xEC0 JUMP JUMPDEST SWAP1 POP PUSH2 0xF5C PUSH1 0x40 DUP4 ADD DUP7 PUSH2 0xF03 JUMP JUMPDEST PUSH2 0xF69 PUSH1 0x60 DUP4 ADD DUP6 PUSH2 0xF03 JUMP JUMPDEST PUSH2 0xF76 PUSH1 0x80 DUP4 ADD DUP5 PUSH2 0xF12 JUMP JUMPDEST SWAP7 SWAP6 POP POP POP POP POP POP JUMP JUMPDEST PUSH0 PUSH1 0x20 DUP3 ADD SWAP1 POP PUSH2 0xF93 PUSH0 DUP4 ADD DUP5 PUSH2 0xF03 JUMP JUMPDEST SWAP3 SWAP2 POP POP JUMP JUMPDEST PUSH0 PUSH1 0x20 DUP3 ADD SWAP1 POP PUSH2 0xFAC PUSH0 DUP4 ADD DUP5 PUSH2 0xF12 JUMP JUMPDEST SWAP3 SWAP2 POP POP JUMP JUMPDEST PUSH0 DUP1 REVERT JUMPDEST PUSH0 DUP1 REVERT JUMPDEST PUSH32 0x4E487B7100000000000000000000000000000000000000000000000000000000 PUSH0 MSTORE PUSH1 0x41 PUSH1 0x4 MSTORE PUSH1 0x24 PUSH0 REVERT JUMPDEST PUSH2 0xFF0 DUP3 PUSH2 0xEB0 JUMP JUMPDEST DUP2 ADD DUP2 DUP2 LT PUSH8 0xFFFFFFFFFFFFFFFF DUP3 GT OR ISZERO PUSH2 0x100F JUMPI PUSH2 0x100E PUSH2 0xFBA JUMP JUMPDEST JUMPDEST DUP1 PUSH1 0x40 MSTORE POP POP POP JUMP JUMPDEST PUSH0 PUSH2 0x1021 PUSH2 0xDF2 JUMP JUMPDEST SWAP1 POP PUSH2 0x102D DUP3 DUP3 PUSH2 0xFE7 JUMP JUMPDEST SWAP2 SWAP1 POP JUMP JUMPDEST PUSH0 PUSH8 0xFFFFFFFFFFFFFFFF DUP3 GT ISZERO PUSH2 0x104C JUMPI PUSH2 0x104B PUSH2 0xFBA JUMP JUMPDEST JUMPDEST PUSH2 0x1055 DUP3 PUSH2 0xEB0 JUMP JUMPDEST SWAP1 POP PUSH1 0x20 DUP2 ADD SWAP1 POP SWAP2 SWAP1 POP JUMP JUMPDEST DUP3 DUP2 DUP4 CALLDATACOPY PUSH0 DUP4 DUP4 ADD MSTORE POP POP POP JUMP JUMPDEST PUSH0 PUSH2 0x1082 PUSH2 0x107D DUP5 PUSH2 0x1032 JUMP JUMPDEST PUSH2 0x1018 JUMP JUMPDEST SWAP1 POP DUP3 DUP2 MSTORE PUSH1 0x20 DUP2 ADD DUP5 DUP5 DUP5 ADD GT ISZERO PUSH2 0x109E JUMPI PUSH2 0x109D PUSH2 0xFB6 JUMP JUMPDEST JUMPDEST PUSH2 0x10A9 DUP5 DUP3 DUP6 PUSH2 0x1062 JUMP JUMPDEST POP SWAP4 SWAP3 POP POP POP JUMP JUMPDEST PUSH0 DUP3 PUSH1 0x1F DUP4 ADD SLT PUSH2 0x10C5 JUMPI PUSH2 0x10C4 PUSH2 0xFB2 JUMP JUMPDEST JUMPDEST DUP2 CALLDATALOAD PUSH2 0x10D5 DUP5 DUP3 PUSH1 0x20 DUP7 ADD PUSH2 0x1070 JUMP JUMPDEST SWAP2 POP POP SWAP3 SWAP2 POP POP JUMP JUMPDEST PUSH0 DUP1 PUSH0 PUSH1 0x60 DUP5 DUP7 SUB SLT ISZERO PUSH2 0x10F5 JUMPI PUSH2 0x10F4 PUSH2 0xDFB JUMP JUMPDEST JUMPDEST PUSH0 DUP5 ADD CALLDATALOAD PUSH8 0xFFFFFFFFFFFFFFFF DUP2 GT ISZERO PUSH2 0x1112 JUMPI PUSH2 0x1111 PUSH2 0xDFF JUMP JUMPDEST JUMPDEST PUSH2 0x111E DUP7 DUP3 DUP8 ADD PUSH2 0x10B1 JUMP JUMPDEST SWAP4 POP POP PUSH1 0x20 DUP5 ADD CALLDATALOAD PUSH8 0xFFFFFFFFFFFFFFFF DUP2 GT ISZERO PUSH2 0x113F JUMPI PUSH2 0x113E PUSH2 0xDFF JUMP JUMPDEST JUMPDEST PUSH2 0x114B DUP7 DUP3 DUP8 ADD PUSH2 0x10B1 JUMP JUMPDEST SWAP3 POP POP PUSH1 0x40 DUP5 ADD CALLDATALOAD PUSH8 0xFFFFFFFFFFFFFFFF DUP2 GT ISZERO PUSH2 0x116C JUMPI PUSH2 0x116B PUSH2 0xDFF JUMP JUMPDEST JUMPDEST PUSH2 0x1178 DUP7 DUP3 DUP8 ADD PUSH2 0x10B1 JUMP JUMPDEST SWAP2 POP POP SWAP3 POP SWAP3 POP SWAP3 JUMP JUMPDEST PUSH0 PUSH1 0xC0 DUP3 ADD SWAP1 POP DUP2 DUP2 SUB PUSH0 DUP4 ADD MSTORE PUSH2 0x119A DUP2 DUP10 PUSH2 0xEC0 JUMP JUMPDEST SWAP1 POP DUP2 DUP2 SUB PUSH1 0x20 DUP4 ADD MSTORE PUSH2 0x11AE DUP2 DUP9 PUSH2 0xEC0 JUMP JUMPDEST SWAP1 POP DUP2 DUP2 SUB PUSH1 0x40 DUP4 ADD MSTORE PUSH2 0x11C2 DUP2 DUP8 PUSH2 0xEC0 JUMP JUMPDEST SWAP1 POP PUSH2 0x11D1 PUSH1 0x60 DUP4 ADD DUP7 PUSH2 0xF03 JUMP JUMPDEST PUSH2 0x11DE PUSH1 0x80 DUP4 ADD DUP6 PUSH2 0xF03 JUMP JUMPDEST PUSH2 0x11EB PUSH1 0xA0 DUP4 ADD DUP5 PUSH2 0xF12 JUMP JUMPDEST SWAP8 SWAP7 POP POP POP POP POP POP POP JUMP JUMPDEST PUSH32 0x4F6E6C7920617574686F72697A6564207665726966696572732063616E207065 PUSH0 DUP3 ADD MSTORE PUSH32 0x72666F726D207468697320616374696F6E000000000000000000000000000000 PUSH1 0x20 DUP3 ADD MSTORE POP JUMP JUMPDEST PUSH0 PUSH2 0x1250 PUSH1 0x31 DUP4 PUSH2 0xE92 JUMP JUMPDEST SWAP2 POP PUSH2 0x125B DUP3 PUSH2 0x11F6 JUMP JUMPDEST PUSH1 0x40 DUP3 ADD SWAP1 POP SWAP2 SWAP1 POP JUMP JUMPDEST PUSH0 PUSH1 0x20 DUP3 ADD SWAP1 POP DUP2 DUP2 SUB PUSH0 DUP4 ADD MSTORE PUSH2 0x127D DUP2 PUSH2 0x1244 JUMP JUMPDEST SWAP1 POP SWAP2 SWAP1 POP JUMP JUMPDEST PUSH32 0x4E487B7100000000000000000000000000000000000000000000000000000000 PUSH0 MSTORE PUSH1 0x22 PUSH1 0x4 MSTORE PUSH1 0x24 PUSH0 REVERT JUMPDEST PUSH0 PUSH1 0x2 DUP3 DIV SWAP1 POP PUSH1 0x1 DUP3 AND DUP1 PUSH2 0x12C8 JUMPI PUSH1 0x7F DUP3 AND SWAP2 POP JUMPDEST PUSH1 0x20 DUP3 LT DUP2 SUB PUSH2 0x12DB JUMPI PUSH2 0x12DA PUSH2 0x1284 JUMP JUMPDEST JUMPDEST POP SWAP2 SWAP1 POP JUMP JUMPDEST PUSH32 0x4F6E6C792074686520636F6E7472616374206F776E65722063616E2070657266 PUSH0 DUP3 ADD MSTORE PUSH32 0x6F726D207468697320616374696F6E0000000000000000000000000000000000 PUSH1 0x20 DUP3 ADD MSTORE POP JUMP JUMPDEST PUSH0 PUSH2 0x133B PUSH1 0x2F DUP4 PUSH2 0xE92 JUMP JUMPDEST SWAP2 POP PUSH2 0x1346 DUP3 PUSH2 0x12E1 JUMP JUMPDEST PUSH1 0x40 DUP3 ADD SWAP1 POP SWAP2 SWAP1 POP JUMP JUMPDEST PUSH0 PUSH1 0x20 DUP3 ADD SWAP1 POP DUP2 DUP2 SUB PUSH0 DUP4 ADD MSTORE PUSH2 0x1368 DUP2 PUSH2 0x132F JUMP JUMPDEST SWAP1 POP SWAP2 SWAP1 POP JUMP JUMPDEST PUSH32 0x4964656E7469747920686173206265656E207265766F6B656400000000000000 PUSH0 DUP3 ADD MSTORE POP JUMP JUMPDEST PUSH0 PUSH2 0x13A3 PUSH1 0x19 DUP4 PUSH2 0xE92 JUMP JUMPDEST SWAP2 POP PUSH2 0x13AE DUP3 PUSH2 0x136F JUMP JUMPDEST PUSH1 0x20 DUP3 ADD SWAP1 POP SWAP2 SWAP1 POP JUMP JUMPDEST PUSH0 PUSH1 0x20 DUP3 ADD SWAP1 POP DUP2 DUP2 SUB PUSH0 DUP4 ADD MSTORE PUSH2 0x13D0 DUP2 PUSH2 0x1397 JUMP JUMPDEST SWAP1 POP SWAP2 SWAP1 POP JUMP JUMPDEST PUSH0 DUP2 SWAP1 POP SWAP3 SWAP2 POP POP JUMP JUMPDEST POP JUMP JUMPDEST PUSH0 PUSH2 0x13EF PUSH0 DUP4 PUSH2 0x13D7 JUMP JUMPDEST SWAP2 POP PUSH2 0x13FA DUP3 PUSH2 0x13E1 JUMP JUMPDEST PUSH0 DUP3 ADD SWAP1 POP SWAP2 SWAP1 POP JUMP JUMPDEST PUSH0 PUSH2 0x140E DUP3 PUSH2 0x13E4 JUMP JUMPDEST SWAP2 POP DUP2 SWAP1 POP SWAP2 SWAP1 POP JUMP JUMPDEST PUSH0 DUP2 SWAP1 POP DUP2 PUSH0 MSTORE PUSH1 0x20 PUSH0 KECCAK256 SWAP1 POP SWAP2 SWAP1 POP JUMP JUMPDEST PUSH0 DUP2 SLOAD PUSH2 0x1436 DUP2 PUSH2 0x12B1 JUMP JUMPDEST PUSH2 0x1440 DUP2 DUP7 PUSH2 0x13D7 JUMP JUMPDEST SWAP5 POP PUSH1 0x1 DUP3 AND PUSH0 DUP2 EQ PUSH2 0x145A JUMPI PUSH1 0x1 DUP2 EQ PUSH2 0x146F JUMPI PUSH2 0x14A1 JUMP JUMPDEST PUSH1 0xFF NOT DUP4 AND DUP7 MSTORE DUP2 ISZERO ISZERO DUP3 MUL DUP7 ADD SWAP4 POP PUSH2 0x14A1 JUMP JUMPDEST PUSH2 0x1478 DUP6 PUSH2 0x1418 JUMP JUMPDEST PUSH0 JUMPDEST DUP4 DUP2 LT ISZERO PUSH2 0x1499 JUMPI DUP2 SLOAD DUP2 DUP10 ADD MSTORE PUSH1 0x1 DUP3 ADD SWAP2 POP PUSH1 0x20 DUP2 ADD SWAP1 POP PUSH2 0x147A JUMP JUMPDEST DUP4 DUP9 ADD SWAP6 POP POP POP JUMPDEST POP POP POP SWAP3 SWAP2 POP POP JUMP JUMPDEST PUSH0 PUSH2 0x14B5 DUP3 DUP5 PUSH2 0x142A JUMP JUMPDEST SWAP2 POP DUP2 SWAP1 POP SWAP3 SWAP2 POP POP JUMP JUMPDEST PUSH32 0x4964656E7469747920616C726561647920726567697374657265640000000000 PUSH0 DUP3 ADD MSTORE POP JUMP JUMPDEST PUSH0 PUSH2 0x14F4 PUSH1 0x1B DUP4 PUSH2 0xE92 JUMP JUMPDEST SWAP2 POP PUSH2 0x14FF DUP3 PUSH2 0x14C0 JUMP JUMPDEST PUSH1 0x20 DUP3 ADD SWAP1 POP SWAP2 SWAP1 POP JUMP JUMPDEST PUSH0 PUSH1 0x20 DUP3 ADD SWAP1 POP DUP2 DUP2 SUB PUSH0 DUP4 ADD MSTORE PUSH2 0x1521 DUP2 PUSH2 0x14E8 JUMP JUMPDEST SWAP1 POP SWAP2 SWAP1 POP JUMP JUMPDEST PUSH0 PUSH1 0x20 PUSH1 0x1F DUP4 ADD DIV SWAP1 POP SWAP2 SWAP1 POP JUMP JUMPDEST PUSH0 DUP3 DUP3 SHL SWAP1 POP SWAP3 SWAP2 POP POP JUMP JUMPDEST PUSH0 PUSH1 0x8 DUP4 MUL PUSH2 0x1572 PUSH32 0xFFFFFFFFFFFFFFFFFFFFFFFFFFFFFFFFFFFFFFFFFFFFFFFFFFFFFFFFFFFFFFFF DUP3 PUSH2 0x1537 JUMP JUMPDEST PUSH2 0x157C DUP7 DUP4 PUSH2 0x1537 JUMP JUMPDEST SWAP6 POP DUP1 NOT DUP5 AND SWAP4 POP DUP1 DUP7 AND DUP5 OR SWAP3 POP POP POP SWAP4 SWAP3 POP POP POP JUMP JUMPDEST PUSH0 DUP2 SWAP1 POP SWAP2 SWAP1 POP JUMP JUMPDEST PUSH0 DUP2 SWAP1 POP SWAP2 SWAP1 POP JUMP JUMPDEST PUSH0 PUSH2 0x15C0 PUSH2 0x15BB PUSH2 0x15B6 DUP5 PUSH2 0x1594 JUMP JUMPDEST PUSH2 0x159D JUMP JUMPDEST PUSH2 0x1594 JUMP JUMPDEST SWAP1 POP SWAP2 SWAP1 POP JUMP JUMPDEST PUSH0 DUP2 SWAP1 POP SWAP2 SWAP1 POP JUMP JUMPDEST PUSH2 0x15D9 DUP4 PUSH2 0x15A6 JUMP JUMPDEST PUSH2 0x15ED PUSH2 0x15E5 DUP3 PUSH2 0x15C7 JUMP JUMPDEST DUP5 DUP5 SLOAD PUSH2 0x1543 JUMP JUMPDEST DUP3 SSTORE POP POP POP POP JUMP JUMPDEST PUSH0 SWAP1 JUMP JUMPDEST PUSH2 0x1601 PUSH2 0x15F5 JUMP JUMPDEST PUSH2 0x160C DUP2 DUP5 DUP5 PUSH2 0x15D0 JUMP JUMPDEST POP POP POP JUMP JUMPDEST JUMPDEST DUP2 DUP2 LT ISZERO PUSH2 0x162F JUMPI PUSH2 0x1624 PUSH0 DUP3 PUSH2 0x15F9 JUMP JUMPDEST PUSH1 0x1 DUP2 ADD SWAP1 POP PUSH2 0x1612 JUMP JUMPDEST POP POP JUMP JUMPDEST PUSH1 0x1F DUP3 GT ISZERO PUSH2 0x1674 JUMPI PUSH2 0x1645 DUP2 PUSH2 0x1418 JUMP JUMPDEST PUSH2 0x164E DUP5 PUSH2 0x1528 JUMP JUMPDEST DUP2 ADD PUSH1 0x20 DUP6 LT ISZERO PUSH2 0x165D JUMPI DUP2 SWAP1 POP JUMPDEST PUSH2 0x1671 PUSH2 0x1669 DUP6 PUSH2 0x1528 JUMP JUMPDEST DUP4 ADD DUP3 PUSH2 0x1611 JUMP JUMPDEST POP POP JUMPDEST POP POP POP JUMP JUMPDEST PUSH0 DUP3 DUP3 SHR SWAP1 POP SWAP3 SWAP2 POP POP JUMP JUMPDEST PUSH0 PUSH2 0x1694 PUSH0 NOT DUP5 PUSH1 0x8 MUL PUSH2 0x1679 JUMP JUMPDEST NOT DUP1 DUP4 AND SWAP2 POP POP SWAP3 SWAP2 POP POP JUMP JUMPDEST PUSH0 PUSH2 0x16AC DUP4 DUP4 PUSH2 0x1685 JUMP JUMPDEST SWAP2 POP DUP3 PUSH1 0x2 MUL DUP3 OR SWAP1 POP SWAP3 SWAP2 POP POP JUMP JUMPDEST PUSH2 0x16C5 DUP3 PUSH2 0xE88 JUMP JUMPDEST PUSH8 0xFFFFFFFFFFFFFFFF DUP2 GT ISZERO PUSH2 0x16DE JUMPI PUSH2 0x16DD PUSH2 0xFBA JUMP JUMPDEST JUMPDEST PUSH2 0x16E8 DUP3 SLOAD PUSH2 0x12B1 JUMP JUMPDEST PUSH2 0x16F3 DUP3 DUP3 DUP6 PUSH2 0x1633 JUMP JUMPDEST PUSH0 PUSH1 0x20 SWAP1 POP PUSH1 0x1F DUP4 GT PUSH1 0x1 DUP2 EQ PUSH2 0x1724 JUMPI PUSH0 DUP5 ISZERO PUSH2 0x1712 JUMPI DUP3 DUP8 ADD MLOAD SWAP1 POP JUMPDEST PUSH2 0x171C DUP6 DUP3 PUSH2 0x16A1 JUMP JUMPDEST DUP7 SSTORE POP PUSH2 0x1783 JUMP JUMPDEST PUSH1 0x1F NOT DUP5 AND PUSH2 0x1732 DUP7 PUSH2 0x1418 JUMP JUMPDEST PUSH0 JUMPDEST DUP3 DUP2 LT ISZERO PUSH2 0x1759 JUMPI DUP5 DUP10 ADD MLOAD DUP3 SSTORE PUSH1 0x1 DUP3 ADD SWAP2 POP PUSH1 0x20 DUP6 ADD SWAP5 POP PUSH1 0x20 DUP2 ADD SWAP1 POP PUSH2 0x1734 JUMP JUMPDEST DUP7 DUP4 LT ISZERO PUSH2 0x1776 JUMPI DUP5 DUP10 ADD MLOAD PUSH2 0x1772 PUSH1 0x1F DUP10 AND DUP3 PUSH2 0x1685 JUMP JUMPDEST DUP4 SSTORE POP JUMPDEST PUSH1 0x1 PUSH1 0x2 DUP9 MUL ADD DUP9 SSTORE POP POP POP JUMPDEST POP POP POP POP POP POP JUMP JUMPDEST PUSH0 PUSH1 0x40 DUP3 ADD SWAP1 POP DUP2 DUP2 SUB PUSH0 DUP4 ADD MSTORE PUSH2 0x17A3 DUP2 DUP6 PUSH2 0xEC0 JUMP JUMPDEST SWAP1 POP DUP2 DUP2 SUB PUSH1 0x20 DUP4 ADD MSTORE PUSH2 0x17B7 DUP2 DUP5 PUSH2 0xEC0 JUMP JUMPDEST SWAP1 POP SWAP4 SWAP3 POP POP POP JUMP INVALID LOG2 PUSH5 0x6970667358 0x22 SLT KECCAK256 DUP11 PUSH26 0xA259A235B7F37D9023AE53A2585297F8C169D61040607E01FF4F 0x4D 0xBA JUMP DUP3 PUSH5 0x736F6C6343 STOP ADDMOD NOT STOP CALLER "
				},
				"gasEstimates": {
					"creation": {
						"codeDepositCost": "1226800",
						"executionCost": "25538",
						"totalCost": "1252338"
					},
					"external": {
						"addVerifier(address)": "28133",
						"getIdentity(address)": "infinite",
						"identities(address)": "infinite",
						"owner()": "2575",
						"registerIdentity(string,string,string)": "infinite",
						"removeVerifier(address)": "28198",
						"revokeIdentity(address)": "53003",
						"verifiers(address)": "2878",
						"verifyIdentity(address)": "30914"
					}
				},
				"methodIdentifiers": {
					"addVerifier(address)": "9000b3d6",
					"getIdentity(address)": "2fea7b81",
					"identities(address)": "f653b81e",
					"owner()": "8da5cb5b",
					"registerIdentity(string,string,string)": "bdc95b32",
					"removeVerifier(address)": "ca2dfd0a",
					"revokeIdentity(address)": "0ebddd17",
					"verifiers(address)": "6c824487",
					"verifyIdentity(address)": "b5b90fd9"
				}
			},
			"storageLayout": {
				"storage": [
					{
						"astId": 19,
						"contract": "did.sol:DecentralizedIdentity",
						"label": "identities",
						"offset": 0,
						"slot": "0",
						"type": "t_mapping(t_address,t_struct(Identity)14_storage)"
					},
					{
						"astId": 23,
						"contract": "did.sol:DecentralizedIdentity",
						"label": "verifiers",
						"offset": 0,
						"slot": "1",
						"type": "t_mapping(t_address,t_bool)"
					},
					{
						"astId": 25,
						"contract": "did.sol:DecentralizedIdentity",
						"label": "owner",
						"offset": 0,
						"slot": "2",
						"type": "t_address"
					}
				],
				"types": {
					"t_address": {
						"encoding": "inplace",
						"label": "address",
						"numberOfBytes": "20"
					},
					"t_bool": {
						"encoding": "inplace",
						"label": "bool",
						"numberOfBytes": "1"
					},
					"t_mapping(t_address,t_bool)": {
						"encoding": "mapping",
						"key": "t_address",
						"label": "mapping(address => bool)",
						"numberOfBytes": "32",
						"value": "t_bool"
					},
					"t_mapping(t_address,t_struct(Identity)14_storage)": {
						"encoding": "mapping",
						"key": "t_address",
						"label": "mapping(address => struct DecentralizedIdentity.Identity)",
						"numberOfBytes": "32",
						"value": "t_struct(Identity)14_storage"
					},
					"t_string_storage": {
						"encoding": "bytes",
						"label": "string",
						"numberOfBytes": "32"
					},
					"t_struct(Identity)14_storage": {
						"encoding": "inplace",
						"label": "struct DecentralizedIdentity.Identity",
						"members": [
							{
								"astId": 3,
								"contract": "did.sol:DecentralizedIdentity",
								"label": "name",
								"offset": 0,
								"slot": "0",
								"type": "t_string_storage"
							},
							{
								"astId": 5,
								"contract": "did.sol:DecentralizedIdentity",
								"label": "email",
								"offset": 0,
								"slot": "1",
								"type": "t_string_storage"
							},
							{
								"astId": 7,
								"contract": "did.sol:DecentralizedIdentity",
								"label": "verificationDocument",
								"offset": 0,
								"slot": "2",
								"type": "t_string_storage"
							},
							{
								"astId": 9,
								"contract": "did.sol:DecentralizedIdentity",
								"label": "isVerified",
								"offset": 0,
								"slot": "3",
								"type": "t_bool"
							},
							{
								"astId": 11,
								"contract": "did.sol:DecentralizedIdentity",
								"label": "isRevoked",
								"offset": 1,
								"slot": "3",
								"type": "t_bool"
							},
							{
								"astId": 13,
								"contract": "did.sol:DecentralizedIdentity",
								"label": "owner",
								"offset": 2,
								"slot": "3",
								"type": "t_address"
							}
						],
						"numberOfBytes": "128"
					}
				}
			},
			"userdoc": {
				"kind": "user",
				"methods": {},
				"version": 1
			}
		}
	}
}